{
  "contractName": "Fyghters",
  "abi": [
    {
      "inputs": [
        {
          "internalType": "contract Dai",
          "name": "_dai",
          "type": "address"
        }
      ],
      "stateMutability": "nonpayable",
      "type": "constructor"
    },
    {
      "anonymous": false,
      "inputs": [
        {
          "indexed": true,
          "internalType": "address",
          "name": "owner",
          "type": "address"
        },
        {
          "indexed": true,
          "internalType": "address",
          "name": "approved",
          "type": "address"
        },
        {
          "indexed": true,
          "internalType": "uint256",
          "name": "tokenId",
          "type": "uint256"
        }
      ],
      "name": "Approval",
      "type": "event"
    },
    {
      "anonymous": false,
      "inputs": [
        {
          "indexed": true,
          "internalType": "address",
          "name": "owner",
          "type": "address"
        },
        {
          "indexed": true,
          "internalType": "address",
          "name": "operator",
          "type": "address"
        },
        {
          "indexed": false,
          "internalType": "bool",
          "name": "approved",
          "type": "bool"
        }
      ],
      "name": "ApprovalForAll",
      "type": "event"
    },
    {
      "anonymous": false,
      "inputs": [
        {
          "indexed": true,
          "internalType": "uint256",
          "name": "challengerId",
          "type": "uint256"
        },
        {
          "indexed": false,
          "internalType": "uint256",
          "name": "targetId",
          "type": "uint256"
        },
        {
          "indexed": false,
          "internalType": "uint256",
          "name": "winnerId",
          "type": "uint256"
        }
      ],
      "name": "ChallengeOccurred",
      "type": "event"
    },
    {
      "anonymous": false,
      "inputs": [
        {
          "indexed": true,
          "internalType": "uint256",
          "name": "id",
          "type": "uint256"
        },
        {
          "indexed": false,
          "internalType": "uint256",
          "name": "amount",
          "type": "uint256"
        }
      ],
      "name": "Deposited",
      "type": "event"
    },
    {
      "anonymous": false,
      "inputs": [
        {
          "indexed": true,
          "internalType": "address",
          "name": "owner",
          "type": "address"
        },
        {
          "indexed": false,
          "internalType": "uint256",
          "name": "id",
          "type": "uint256"
        },
        {
          "indexed": false,
          "internalType": "string",
          "name": "name",
          "type": "string"
        }
      ],
      "name": "FyghterCreated",
      "type": "event"
    },
    {
      "anonymous": false,
      "inputs": [
        {
          "indexed": true,
          "internalType": "uint256",
          "name": "id",
          "type": "uint256"
        },
        {
          "indexed": false,
          "internalType": "string",
          "name": "newName",
          "type": "string"
        }
      ],
      "name": "FyghterRenamed",
      "type": "event"
    },
    {
      "anonymous": false,
      "inputs": [
        {
          "indexed": true,
          "internalType": "uint256",
          "name": "id",
          "type": "uint256"
        },
        {
          "indexed": false,
          "internalType": "string",
          "name": "newSkin",
          "type": "string"
        }
      ],
      "name": "SkinChanged",
      "type": "event"
    },
    {
      "anonymous": false,
      "inputs": [
        {
          "indexed": true,
          "internalType": "address",
          "name": "from",
          "type": "address"
        },
        {
          "indexed": true,
          "internalType": "address",
          "name": "to",
          "type": "address"
        },
        {
          "indexed": true,
          "internalType": "uint256",
          "name": "tokenId",
          "type": "uint256"
        }
      ],
      "name": "Transfer",
      "type": "event"
    },
    {
      "anonymous": false,
      "inputs": [
        {
          "indexed": true,
          "internalType": "uint256",
          "name": "id",
          "type": "uint256"
        },
        {
          "indexed": false,
          "internalType": "uint256",
          "name": "amount",
          "type": "uint256"
        }
      ],
      "name": "Withdrawn",
      "type": "event"
    },
    {
      "inputs": [
        {
          "internalType": "address",
          "name": "to",
          "type": "address"
        },
        {
          "internalType": "uint256",
          "name": "tokenId",
          "type": "uint256"
        }
      ],
      "name": "approve",
      "outputs": [],
      "stateMutability": "nonpayable",
      "type": "function"
    },
    {
      "inputs": [
        {
          "internalType": "address",
          "name": "owner",
          "type": "address"
        }
      ],
      "name": "balanceOf",
      "outputs": [
        {
          "internalType": "uint256",
          "name": "",
          "type": "uint256"
        }
      ],
      "stateMutability": "view",
      "type": "function",
      "constant": true
    },
    {
      "inputs": [
        {
          "internalType": "uint256",
          "name": "",
          "type": "uint256"
        }
      ],
      "name": "fyghters",
      "outputs": [
        {
          "internalType": "uint256",
          "name": "id",
          "type": "uint256"
        },
        {
          "internalType": "string",
          "name": "name",
          "type": "string"
        },
        {
          "internalType": "string",
          "name": "skin",
          "type": "string"
        },
        {
          "internalType": "uint256",
          "name": "xp",
          "type": "uint256"
        },
        {
          "internalType": "uint256",
          "name": "balance",
          "type": "uint256"
        }
      ],
      "stateMutability": "view",
      "type": "function",
      "constant": true
    },
    {
      "inputs": [
        {
          "internalType": "uint256",
          "name": "tokenId",
          "type": "uint256"
        }
      ],
      "name": "getApproved",
      "outputs": [
        {
          "internalType": "address",
          "name": "",
          "type": "address"
        }
      ],
      "stateMutability": "view",
      "type": "function",
      "constant": true
    },
    {
      "inputs": [
        {
          "internalType": "address",
          "name": "owner",
          "type": "address"
        },
        {
          "internalType": "address",
          "name": "operator",
          "type": "address"
        }
      ],
      "name": "isApprovedForAll",
      "outputs": [
        {
          "internalType": "bool",
          "name": "",
          "type": "bool"
        }
      ],
      "stateMutability": "view",
      "type": "function",
      "constant": true
    },
    {
      "inputs": [
        {
          "internalType": "uint256",
          "name": "tokenId",
          "type": "uint256"
        }
      ],
      "name": "ownerOf",
      "outputs": [
        {
          "internalType": "address",
          "name": "",
          "type": "address"
        }
      ],
      "stateMutability": "view",
      "type": "function",
      "constant": true
    },
    {
      "inputs": [
        {
          "internalType": "address",
          "name": "from",
          "type": "address"
        },
        {
          "internalType": "address",
          "name": "to",
          "type": "address"
        },
        {
          "internalType": "uint256",
          "name": "tokenId",
          "type": "uint256"
        }
      ],
      "name": "safeTransferFrom",
      "outputs": [],
      "stateMutability": "nonpayable",
      "type": "function"
    },
    {
      "inputs": [
        {
          "internalType": "address",
          "name": "from",
          "type": "address"
        },
        {
          "internalType": "address",
          "name": "to",
          "type": "address"
        },
        {
          "internalType": "uint256",
          "name": "tokenId",
          "type": "uint256"
        },
        {
          "internalType": "bytes",
          "name": "_data",
          "type": "bytes"
        }
      ],
      "name": "safeTransferFrom",
      "outputs": [],
      "stateMutability": "nonpayable",
      "type": "function"
    },
    {
      "inputs": [
        {
          "internalType": "address",
          "name": "operator",
          "type": "address"
        },
        {
          "internalType": "bool",
          "name": "approved",
          "type": "bool"
        }
      ],
      "name": "setApprovalForAll",
      "outputs": [],
      "stateMutability": "nonpayable",
      "type": "function"
    },
    {
      "inputs": [
        {
          "internalType": "uint256",
          "name": "",
          "type": "uint256"
        }
      ],
      "name": "skins",
      "outputs": [
        {
          "internalType": "string",
          "name": "skin",
          "type": "string"
        },
        {
          "internalType": "uint8",
          "name": "xpNeeded",
          "type": "uint8"
        }
      ],
      "stateMutability": "view",
      "type": "function",
      "constant": true
    },
    {
      "inputs": [
        {
          "internalType": "bytes4",
          "name": "interfaceId",
          "type": "bytes4"
        }
      ],
      "name": "supportsInterface",
      "outputs": [
        {
          "internalType": "bool",
          "name": "",
          "type": "bool"
        }
      ],
      "stateMutability": "view",
      "type": "function",
      "constant": true
    },
    {
      "inputs": [
        {
          "internalType": "address",
          "name": "from",
          "type": "address"
        },
        {
          "internalType": "address",
          "name": "to",
          "type": "address"
        },
        {
          "internalType": "uint256",
          "name": "tokenId",
          "type": "uint256"
        }
      ],
      "name": "transferFrom",
      "outputs": [],
      "stateMutability": "nonpayable",
      "type": "function"
    },
    {
      "inputs": [],
      "name": "getMinimumDeposit",
      "outputs": [
        {
          "internalType": "uint256",
          "name": "",
          "type": "uint256"
        }
      ],
      "stateMutability": "pure",
      "type": "function",
      "constant": true
    },
    {
      "inputs": [],
      "name": "getBetValue",
      "outputs": [
        {
          "internalType": "uint256",
          "name": "",
          "type": "uint256"
        }
      ],
      "stateMutability": "pure",
      "type": "function",
      "constant": true
    },
    {
      "inputs": [
        {
          "internalType": "string",
          "name": "_name",
          "type": "string"
        }
      ],
      "name": "create",
      "outputs": [],
      "stateMutability": "nonpayable",
      "type": "function"
    },
    {
      "inputs": [
        {
          "internalType": "uint256",
          "name": "_fyghterId",
          "type": "uint256"
        },
        {
          "internalType": "uint256",
          "name": "_amount",
          "type": "uint256"
        }
      ],
      "name": "deposit",
      "outputs": [],
      "stateMutability": "nonpayable",
      "type": "function"
    },
    {
      "inputs": [
        {
          "internalType": "uint256",
          "name": "_fyghterId",
          "type": "uint256"
        }
      ],
      "name": "withdrawAll",
      "outputs": [],
      "stateMutability": "nonpayable",
      "type": "function"
    },
    {
      "inputs": [
        {
          "internalType": "uint256",
          "name": "_fyghterId",
          "type": "uint256"
        },
        {
          "internalType": "string",
          "name": "_newName",
          "type": "string"
        }
      ],
      "name": "rename",
      "outputs": [],
      "stateMutability": "nonpayable",
      "type": "function"
    },
    {
      "inputs": [
        {
          "internalType": "uint256",
          "name": "_winProbability",
          "type": "uint256"
        }
      ],
      "name": "calculateGainAndLoss",
      "outputs": [
        {
          "internalType": "uint256",
          "name": "gainIfWin",
          "type": "uint256"
        },
        {
          "internalType": "uint256",
          "name": "lossIfLose",
          "type": "uint256"
        }
      ],
      "stateMutability": "pure",
      "type": "function",
      "constant": true
    },
    {
      "inputs": [
        {
          "internalType": "uint256",
          "name": "_challengerId",
          "type": "uint256"
        },
        {
          "internalType": "uint256",
          "name": "_targetId",
          "type": "uint256"
        }
      ],
      "name": "challenge",
      "outputs": [],
      "stateMutability": "nonpayable",
      "type": "function"
    },
    {
      "inputs": [
        {
          "internalType": "uint256",
          "name": "_fyghterId",
          "type": "uint256"
        },
        {
          "internalType": "string",
          "name": "_newSkin",
          "type": "string"
        }
      ],
      "name": "changeSkin",
      "outputs": [],
      "stateMutability": "nonpayable",
      "type": "function"
    },
    {
      "inputs": [
        {
          "internalType": "uint256",
          "name": "_challengerId",
          "type": "uint256"
        },
        {
          "internalType": "uint256",
          "name": "_targetId",
          "type": "uint256"
        }
      ],
      "name": "calculateWinProbability",
      "outputs": [
        {
          "internalType": "uint256",
          "name": "winProbability",
          "type": "uint256"
        }
      ],
      "stateMutability": "view",
      "type": "function",
      "constant": true
    }
  ],
  "bytecode": "0x60806040523480156200001157600080fd5b506040516200451638038062004516833981810160405260208110156200003757600080fd5b8101908080519060200190929190505050620000606301ffc9a760e01b6200083b60201b60201c565b620000786380ac58cd60e01b6200083b60201b60201c565b80600560006101000a81548173ffffffffffffffffffffffffffffffffffffffff021916908373ffffffffffffffffffffffffffffffffffffffff160217905550600760405180604001604052806040518060400160405280600581526020017f6e616b65640000000000000000000000000000000000000000000000000000008152508152602001600160ff16815250908060018154018082558091505060019003906000526020600020906002020160009091909190915060008201518160000190805190602001906200015092919062000944565b5060208201518160010160006101000a81548160ff021916908360ff1602179055505050600760405180604001604052806040518060400160405280600a81526020017f6e6f726d616c5f677579000000000000000000000000000000000000000000008152508152602001600a60ff16815250908060018154018082558091505060019003906000526020600020906002020160009091909190915060008201518160000190805190602001906200020b92919062000944565b5060208201518160010160006101000a81548160ff021916908360ff1602179055505050600760405180604001604052806040518060400160405280600a81526020017f6b61726174655f6b6964000000000000000000000000000000000000000000008152508152602001600f60ff1681525090806001815401808255809150506001900390600052602060002090600202016000909190919091506000820151816000019080519060200190620002c692919062000944565b5060208201518160010160006101000a81548160ff021916908360ff1602179055505050600760405180604001604052806040518060400160405280600881526020017f6a61706f6e6573650000000000000000000000000000000000000000000000008152508152602001601960ff16815250908060018154018082558091505060019003906000526020600020906002020160009091909190915060008201518160000190805190602001906200038192919062000944565b5060208201518160010160006101000a81548160ff021916908360ff1602179055505050600760405180604001604052806040518060400160405280600481526020017f6d6f6e6b000000000000000000000000000000000000000000000000000000008152508152602001602860ff16815250908060018154018082558091505060019003906000526020600020906002020160009091909190915060008201518160000190805190602001906200043c92919062000944565b5060208201518160010160006101000a81548160ff021916908360ff1602179055505050600760405180604001604052806040518060400160405280600581526020017f6e696e6a610000000000000000000000000000000000000000000000000000008152508152602001603260ff1681525090806001815401808255809150506001900390600052602060002090600202016000909190919091506000820151816000019080519060200190620004f792919062000944565b5060208201518160010160006101000a81548160ff021916908360ff1602179055505050600760405180604001604052806040518060400160405280600681526020017f6e6f5f6f6e6500000000000000000000000000000000000000000000000000008152508152602001605060ff1681525090806001815401808255809150506001900390600052602060002090600202016000909190919091506000820151816000019080519060200190620005b292919062000944565b5060208201518160010160006101000a81548160ff021916908360ff1602179055505050600760405180604001604052806040518060400160405280600581526020017f64656d6f6e0000000000000000000000000000000000000000000000000000008152508152602001605060ff16815250908060018154018082558091505060019003906000526020600020906002020160009091909190915060008201518160000190805190602001906200066d92919062000944565b5060208201518160010160006101000a81548160ff021916908360ff1602179055505050600760405180604001604052806040518060400160405280600681526020017f6d617374657200000000000000000000000000000000000000000000000000008152508152602001606460ff16815250908060018154018082558091505060019003906000526020600020906002020160009091909190915060008201518160000190805190602001906200072892919062000944565b5060208201518160010160006101000a81548160ff021916908360ff160217905550505060008090505b6007805490508110156200083357600781815481106200076e57fe5b906000526020600020906002020160010160009054906101000a900460ff1660ff16600860078381548110620007a057fe5b90600052602060002090600202016000016040518082805460018160011615610100020316600290048015620008105780601f10620007ed57610100808354040283529182019162000810565b820191906000526020600020905b815481529060010190602001808311620007fb575b505091505090815260200160405180910390208190555080600101905062000752565b5050620009f3565b63ffffffff60e01b817bffffffffffffffffffffffffffffffffffffffffffffffffffffffff19161415620008d8576040517f08c379a000000000000000000000000000000000000000000000000000000000815260040180806020018281038252601c8152602001807f4552433136353a20696e76616c696420696e746572666163652069640000000081525060200191505060405180910390fd5b6001600080837bffffffffffffffffffffffffffffffffffffffffffffffffffffffff19167bffffffffffffffffffffffffffffffffffffffffffffffffffffffff1916815260200190815260200160002060006101000a81548160ff02191690831515021790555050565b828054600181600116156101000203166002900490600052602060002090601f016020900481019282601f106200098757805160ff1916838001178555620009b8565b82800160010185558215620009b8579182015b82811115620009b75782518255916020019190600101906200099a565b5b509050620009c79190620009cb565b5090565b620009f091905b80821115620009ec576000816000905550600101620009d2565b5090565b90565b613b138062000a036000396000f3fe608060405234801561001057600080fd5b50600436106101425760003560e01c80636e8c9a14116100b8578063a91635361161007c578063a9163536146107a4578063b6a46b3b14610827578063b88d4fde146108a0578063b94c9406146109a5578063e2bbb158146109f1578063e985e9c514610a2957610142565b80636e8c9a141461066757806370a0823114610685578063958e2d31146106dd5780639abc61f51461070b578063a22cb4651461075457610142565b80632db2ede51161010a5780632db2ede5146102f45780632e414890146103a85780633ec2d836146103e057806342842e0e1461046357806349b640c5146104d15780636352211e146105f957610142565b806301ffc9a714610147578063035cf142146101ac578063081812fc146101ca578063095ea7b31461023857806323b872dd14610286575b600080fd5b6101926004803603602081101561015d57600080fd5b8101908080357bffffffffffffffffffffffffffffffffffffffffffffffffffffffff19169060200190929190505050610aa5565b604051808215151515815260200191505060405180910390f35b6101b4610b0c565b6040518082815260200191505060405180910390f35b6101f6600480360360208110156101e057600080fd5b8101908080359060200190929190505050610b1f565b604051808273ffffffffffffffffffffffffffffffffffffffff1673ffffffffffffffffffffffffffffffffffffffff16815260200191505060405180910390f35b6102846004803603604081101561024e57600080fd5b81019080803573ffffffffffffffffffffffffffffffffffffffff16906020019092919080359060200190929190505050610bba565b005b6102f26004803603606081101561029c57600080fd5b81019080803573ffffffffffffffffffffffffffffffffffffffff169060200190929190803573ffffffffffffffffffffffffffffffffffffffff16906020019092919080359060200190929190505050610cfe565b005b6103206004803603602081101561030a57600080fd5b8101908080359060200190929190505050610d74565b60405180806020018360ff1660ff168152602001828103825284818151815260200191508051906020019080838360005b8381101561036c578082015181840152602081019050610351565b50505050905090810190601f1680156103995780820380516001836020036101000a031916815260200191505b50935050505060405180910390f35b6103de600480360360408110156103be57600080fd5b810190808035906020019092919080359060200190929190505050610e4a565b005b610461600480360360408110156103f657600080fd5b81019080803590602001909291908035906020019064010000000081111561041d57600080fd5b82018360208201111561042f57600080fd5b8035906020019184600183028401116401000000008311171561045157600080fd5b9091929391929390505050610f13565b005b6104cf6004803603606081101561047957600080fd5b81019080803573ffffffffffffffffffffffffffffffffffffffff169060200190929190803573ffffffffffffffffffffffffffffffffffffffff16906020019092919080359060200190929190505050611038565b005b6104fd600480360360208110156104e757600080fd5b8101908080359060200190929190505050611058565b604051808681526020018060200180602001858152602001848152602001838103835287818151815260200191508051906020019080838360005b83811015610553578082015181840152602081019050610538565b50505050905090810190601f1680156105805780820380516001836020036101000a031916815260200191505b50838103825286818151815260200191508051906020019080838360005b838110156105b957808201518184015260208101905061059e565b50505050905090810190601f1680156105e65780820380516001836020036101000a031916815260200191505b5097505050505050505060405180910390f35b6106256004803603602081101561060f57600080fd5b81019080803590602001909291905050506111cb565b604051808273ffffffffffffffffffffffffffffffffffffffff1673ffffffffffffffffffffffffffffffffffffffff16815260200191505060405180910390f35b61066f611293565b6040518082815260200191505060405180910390f35b6106c76004803603602081101561069b57600080fd5b81019080803573ffffffffffffffffffffffffffffffffffffffff1690602001909291905050506112a6565b6040518082815260200191505060405180910390f35b610709600480360360208110156106f357600080fd5b810190808035906020019092919050505061137b565b005b6107376004803603602081101561072157600080fd5b81019080803590602001909291905050506115e2565b604051808381526020018281526020019250505060405180910390f35b6107a26004803603604081101561076a57600080fd5b81019080803573ffffffffffffffffffffffffffffffffffffffff169060200190929190803515159060200190929190505050611678565b005b610825600480360360408110156107ba57600080fd5b8101908080359060200190929190803590602001906401000000008111156107e157600080fd5b8201836020820111156107f357600080fd5b8035906020019184600183028401116401000000008311171561081557600080fd5b9091929391929390505050611830565b005b61089e6004803603602081101561083d57600080fd5b810190808035906020019064010000000081111561085a57600080fd5b82018360208201111561086c57600080fd5b8035906020019184600183028401116401000000008311171561088e57600080fd5b9091929391929390505050611abe565b005b6109a3600480360360808110156108b657600080fd5b81019080803573ffffffffffffffffffffffffffffffffffffffff169060200190929190803573ffffffffffffffffffffffffffffffffffffffff169060200190929190803590602001909291908035906020019064010000000081111561091d57600080fd5b82018360208201111561092f57600080fd5b8035906020019184600183028401116401000000008311171561095157600080fd5b91908080601f016020809104026020016040519081016040528093929190818152602001838380828437600081840152601f19601f820116905080830192505050505050509192919290505050611d63565b005b6109db600480360360408110156109bb57600080fd5b810190808035906020019092919080359060200190929190505050611ddb565b6040518082815260200191505060405180910390f35b610a2760048036036040811015610a0757600080fd5b810190808035906020019092919080359060200190929190505050612156565b005b610a8b60048036036040811015610a3f57600080fd5b81019080803573ffffffffffffffffffffffffffffffffffffffff169060200190929190803573ffffffffffffffffffffffffffffffffffffffff1690602001909291905050506123d3565b604051808215151515815260200191505060405180910390f35b6000806000837bffffffffffffffffffffffffffffffffffffffffffffffffffffffff19167bffffffffffffffffffffffffffffffffffffffffffffffffffffffff1916815260200190815260200160002060009054906101000a900460ff169050919050565b60006005670de0b6b3a764000002905090565b6000610b2a82612467565b610b7f576040517f08c379a000000000000000000000000000000000000000000000000000000000815260040180806020018281038252602c815260200180613999602c913960400191505060405180910390fd5b6002600083815260200190815260200160002060009054906101000a900473ffffffffffffffffffffffffffffffffffffffff169050919050565b6000610bc5826111cb565b90508073ffffffffffffffffffffffffffffffffffffffff168373ffffffffffffffffffffffffffffffffffffffff161415610c4c576040517f08c379a0000000000000000000000000000000000000000000000000000000008152600401808060200182810382526021815260200180613a366021913960400191505060405180910390fd5b8073ffffffffffffffffffffffffffffffffffffffff16610c6b6124d9565b73ffffffffffffffffffffffffffffffffffffffff161480610c9a5750610c9981610c946124d9565b6123d3565b5b610cef576040517f08c379a00000000000000000000000000000000000000000000000000000000081526004018080602001828103825260388152602001806138ed6038913960400191505060405180910390fd5b610cf983836124e1565b505050565b610d0f610d096124d9565b8261259a565b610d64576040517f08c379a0000000000000000000000000000000000000000000000000000000008152600401808060200182810382526031815260200180613a806031913960400191505060405180910390fd5b610d6f83838361268e565b505050565b60078181548110610d8157fe5b9060005260206000209060020201600091509050806000018054600181600116156101000203166002900480601f016020809104026020016040519081016040528092919081815260200182805460018160011615610100020316600290048015610e2d5780601f10610e0257610100808354040283529160200191610e2d565b820191906000526020600020905b815481529060010190602001808311610e1057829003601f168201915b5050505050908060010160009054906101000a900460ff16905082565b81610e54816111cb565b73ffffffffffffffffffffffffffffffffffffffff163373ffffffffffffffffffffffffffffffffffffffff1614610ed7576040517f08c379a000000000000000000000000000000000000000000000000000000000815260040180806020018281038252602d815260200180613ab1602d913960400191505060405180910390fd5b6000610ee38484611ddb565b9050600081610ef06128f6565b1115610efc5783610efe565b845b9050610f0c85858385612956565b5050505050565b82610f1d816111cb565b73ffffffffffffffffffffffffffffffffffffffff163373ffffffffffffffffffffffffffffffffffffffff1614610fa0576040517f08c379a000000000000000000000000000000000000000000000000000000000815260040180806020018281038252602d815260200180613ab1602d913960400191505060405180910390fd5b828260068681548110610faf57fe5b90600052602060002090600502016001019190610fcd9291906136cc565b50837f553656c6feb05b3e720bd33ad52f9cc39bc80982fb434f80e81391abc4c9dda5848460405180806020018281038252848482818152602001925080828437600081840152601f19601f820116905080830192505050935050505060405180910390a250505050565b61105383838360405180602001604052806000815250611d63565b505050565b6006818154811061106557fe5b9060005260206000209060050201600091509050806000015490806001018054600181600116156101000203166002900480601f0160208091040260200160405190810160405280929190818152602001828054600181600116156101000203166002900480156111175780601f106110ec57610100808354040283529160200191611117565b820191906000526020600020905b8154815290600101906020018083116110fa57829003601f168201915b505050505090806002018054600181600116156101000203166002900480601f0160208091040260200160405190810160405280929190818152602001828054600181600116156101000203166002900480156111b55780601f1061118a576101008083540402835291602001916111b5565b820191906000526020600020905b81548152906001019060200180831161119857829003601f168201915b5050505050908060030154908060040154905085565b6000806001600084815260200190815260200160002060009054906101000a900473ffffffffffffffffffffffffffffffffffffffff169050600073ffffffffffffffffffffffffffffffffffffffff168173ffffffffffffffffffffffffffffffffffffffff16141561128a576040517f08c379a000000000000000000000000000000000000000000000000000000000815260040180806020018281038252602981526020018061394f6029913960400191505060405180910390fd5b80915050919050565b60006005670de0b6b3a764000002905090565b60008073ffffffffffffffffffffffffffffffffffffffff168273ffffffffffffffffffffffffffffffffffffffff16141561132d576040517f08c379a000000000000000000000000000000000000000000000000000000000815260040180806020018281038252602a815260200180613925602a913960400191505060405180910390fd5b611374600360008473ffffffffffffffffffffffffffffffffffffffff1673ffffffffffffffffffffffffffffffffffffffff168152602001908152602001600020612ba2565b9050919050565b80611385816111cb565b73ffffffffffffffffffffffffffffffffffffffff163373ffffffffffffffffffffffffffffffffffffffff1614611408576040517f08c379a000000000000000000000000000000000000000000000000000000000815260040180806020018281038252602d815260200180613ab1602d913960400191505060405180910390fd5b60006006838154811061141757fe5b906000526020600020906005020160040154905060006006848154811061143a57fe5b906000526020600020906005020160040181905550600560009054906101000a900473ffffffffffffffffffffffffffffffffffffffff1673ffffffffffffffffffffffffffffffffffffffff1663a9059cbb33836040518363ffffffff1660e01b8152600401808373ffffffffffffffffffffffffffffffffffffffff1673ffffffffffffffffffffffffffffffffffffffff16815260200182815260200192505050602060405180830381600087803b1580156114f857600080fd5b505af115801561150c573d6000803e3d6000fd5b505050506040513d602081101561152257600080fd5b81019080805190602001909291905050506115a5576040517f08c379a000000000000000000000000000000000000000000000000000000000815260040180806020018281038252601d8152602001807f5769746864726177207472616e736665722077697468206572726f722e00000081525060200191505060405180910390fd5b827f0c875c8d391179c5cf7ad8303d268efd50b8beb78b671f85cd54bfb91eb8ef40826040518082815260200191505060405180910390a2505050565b600080611637670de0b6b3a764000061162961160f86670de0b6b3a7640000612bb090919063ffffffff16565b6005670de0b6b3a764000002612bfa90919063ffffffff16565b612c8090919063ffffffff16565b9150611671670de0b6b3a7640000611663856005670de0b6b3a764000002612bfa90919063ffffffff16565b612c8090919063ffffffff16565b9050915091565b6116806124d9565b73ffffffffffffffffffffffffffffffffffffffff168273ffffffffffffffffffffffffffffffffffffffff161415611721576040517f08c379a00000000000000000000000000000000000000000000000000000000081526004018080602001828103825260198152602001807f4552433732313a20617070726f766520746f2063616c6c65720000000000000081525060200191505060405180910390fd5b806004600061172e6124d9565b73ffffffffffffffffffffffffffffffffffffffff1673ffffffffffffffffffffffffffffffffffffffff16815260200190815260200160002060008473ffffffffffffffffffffffffffffffffffffffff1673ffffffffffffffffffffffffffffffffffffffff16815260200190815260200160002060006101000a81548160ff0219169083151502179055508173ffffffffffffffffffffffffffffffffffffffff166117db6124d9565b73ffffffffffffffffffffffffffffffffffffffff167f17307eab39ab6107e8899845ad3d59bd9653f200f220920489ca2b5937696c3183604051808215151515815260200191505060405180910390a35050565b8261183a816111cb565b73ffffffffffffffffffffffffffffffffffffffff163373ffffffffffffffffffffffffffffffffffffffff16146118bd576040517f08c379a000000000000000000000000000000000000000000000000000000000815260040180806020018281038252602d815260200180613ab1602d913960400191505060405180910390fd5b61190a83838080601f016020809104026020016040519081016040528093929190818152602001838380828437600081840152601f19601f82011690508083019250505050505050612cca565b61197c576040517f08c379a000000000000000000000000000000000000000000000000000000000815260040180806020018281038252600d8152602001807f496e76616c696420736b696e2e0000000000000000000000000000000000000081525060200191505060405180910390fd5b60006006858154811061198b57fe5b9060005260206000209060050201905060006008858560405180838380828437808301925050509250505090815260200160405180910390205490508082600301541015611a24576040517f08c379a0000000000000000000000000000000000000000000000000000000008152600401808060200182810382526024815260200180613a126024913960400191505060405180910390fd5b848460068881548110611a3357fe5b90600052602060002090600502016002019190611a519291906136cc565b50857f546aa5db2f34cd0c10c3bf80054ede7658175a11189cbeee6241bd45952c3a99868660405180806020018281038252848482818152602001925080828437600081840152601f19601f820116905080830192505050935050505060405180910390a2505050505050565b6000611ac9336112a6565b14611b1f576040517f08c379a00000000000000000000000000000000000000000000000000000000081526004018080602001828103825260248152602001806139c56024913960400191505060405180910390fd5b6000600680549050905060066040518060a0016040528083815260200185858080601f016020809104026020016040519081016040528093929190818152602001838380828437600081840152601f19601f8201169050808301925050505050505081526020016007600081548110611b9457fe5b90600052602060002090600202016000018054600181600116156101000203166002900480601f016020809104026020016040519081016040528092919081815260200182805460018160011615610100020316600290048015611c395780601f10611c0e57610100808354040283529160200191611c39565b820191906000526020600020905b815481529060010190602001808311611c1c57829003601f168201915b505050505081526020016001815260200160008152509080600181540180825580915050600190039060005260206000209060050201600090919091909150600082015181600001556020820151816001019080519060200190611c9e92919061374c565b506040820151816002019080519060200190611cbb92919061374c565b5060608201518160030155608082015181600401555050611cdc3382612d3f565b3373ffffffffffffffffffffffffffffffffffffffff167f1243c32293ccfe8a2001f7de06e504e0ffb98f63144253faa43123a5cffe93dc82858560405180848152602001806020018281038252848482818152602001925080828437600081840152601f19601f82011690508083019250505094505050505060405180910390a2505050565b611d74611d6e6124d9565b8361259a565b611dc9576040517f08c379a0000000000000000000000000000000000000000000000000000000008152600401808060200182810382526031815260200180613a806031913960400191505060405180910390fd5b611dd584848484612f63565b50505050565b6000611de56137cc565b60068481548110611df257fe5b90600052602060002090600502016040518060a001604052908160008201548152602001600182018054600181600116156101000203166002900480601f016020809104026020016040519081016040528092919081815260200182805460018160011615610100020316600290048015611eae5780601f10611e8357610100808354040283529160200191611eae565b820191906000526020600020905b815481529060010190602001808311611e9157829003601f168201915b50505050508152602001600282018054600181600116156101000203166002900480601f016020809104026020016040519081016040528092919081815260200182805460018160011615610100020316600290048015611f505780601f10611f2557610100808354040283529160200191611f50565b820191906000526020600020905b815481529060010190602001808311611f3357829003601f168201915b50505050508152602001600382015481526020016004820154815250509050611f776137cc565b60068481548110611f8457fe5b90600052602060002090600502016040518060a001604052908160008201548152602001600182018054600181600116156101000203166002900480601f0160208091040260200160405190810160405280929190818152602001828054600181600116156101000203166002900480156120405780601f1061201557610100808354040283529160200191612040565b820191906000526020600020905b81548152906001019060200180831161202357829003601f168201915b50505050508152602001600282018054600181600116156101000203166002900480601f0160208091040260200160405190810160405280929190818152602001828054600181600116156101000203166002900480156120e25780601f106120b7576101008083540402835291602001916120e2565b820191906000526020600020905b8154815290600101906020018083116120c557829003601f168201915b5050505050815260200160038201548152602001600482015481525050905061214c61211f82606001518460600151612fd590919063ffffffff16565b61213e670de0b6b3a76400008560600151612bfa90919063ffffffff16565b612c8090919063ffffffff16565b9250505092915050565b600560009054906101000a900473ffffffffffffffffffffffffffffffffffffffff1673ffffffffffffffffffffffffffffffffffffffff166323b872dd3330846040518463ffffffff1660e01b8152600401808473ffffffffffffffffffffffffffffffffffffffff1673ffffffffffffffffffffffffffffffffffffffff1681526020018373ffffffffffffffffffffffffffffffffffffffff1673ffffffffffffffffffffffffffffffffffffffff1681526020018281526020019350505050602060405180830381600087803b15801561223357600080fd5b505af1158015612247573d6000803e3d6000fd5b505050506040513d602081101561225d57600080fd5b81019080805190602001909291905050506122e0576040517f08c379a000000000000000000000000000000000000000000000000000000000815260040180806020018281038252601c8152602001807f4465706f736974207472616e736665722077697468206572726f722e0000000081525060200191505060405180910390fd5b6005670de0b6b3a764000002811015612344576040517f08c379a00000000000000000000000000000000000000000000000000000000081526004018080602001828103825260248152602001806138216024913960400191505060405180910390fd5b612375816006848154811061235557fe5b906000526020600020906005020160040154612fd590919063ffffffff16565b6006838154811061238257fe5b906000526020600020906005020160040181905550817f06da3309189fa49284f335d2c2bcb4cb0b8ad2a59ad92a9bdebeeb8f1ceba511826040518082815260200191505060405180910390a25050565b6000600460008473ffffffffffffffffffffffffffffffffffffffff1673ffffffffffffffffffffffffffffffffffffffff16815260200190815260200160002060008373ffffffffffffffffffffffffffffffffffffffff1673ffffffffffffffffffffffffffffffffffffffff16815260200190815260200160002060009054906101000a900460ff16905092915050565b6000806001600084815260200190815260200160002060009054906101000a900473ffffffffffffffffffffffffffffffffffffffff169050600073ffffffffffffffffffffffffffffffffffffffff168173ffffffffffffffffffffffffffffffffffffffff161415915050919050565b600033905090565b816002600083815260200190815260200160002060006101000a81548173ffffffffffffffffffffffffffffffffffffffff021916908373ffffffffffffffffffffffffffffffffffffffff160217905550808273ffffffffffffffffffffffffffffffffffffffff16612554836111cb565b73ffffffffffffffffffffffffffffffffffffffff167f8c5be1e5ebec7d5bd14f71427d1e84f3dd0314c0f7b2291e5b200ac8c7c3b92560405160405180910390a45050565b60006125a582612467565b6125fa576040517f08c379a000000000000000000000000000000000000000000000000000000000815260040180806020018281038252602c8152602001806138c1602c913960400191505060405180910390fd5b6000612605836111cb565b90508073ffffffffffffffffffffffffffffffffffffffff168473ffffffffffffffffffffffffffffffffffffffff16148061267457508373ffffffffffffffffffffffffffffffffffffffff1661265c84610b1f565b73ffffffffffffffffffffffffffffffffffffffff16145b80612685575061268481856123d3565b5b91505092915050565b8273ffffffffffffffffffffffffffffffffffffffff166126ae826111cb565b73ffffffffffffffffffffffffffffffffffffffff161461271a576040517f08c379a00000000000000000000000000000000000000000000000000000000081526004018080602001828103825260298152602001806139e96029913960400191505060405180910390fd5b600073ffffffffffffffffffffffffffffffffffffffff168273ffffffffffffffffffffffffffffffffffffffff1614156127a0576040517f08c379a000000000000000000000000000000000000000000000000000000000815260040180806020018281038252602481526020018061389d6024913960400191505060405180910390fd5b6127ab83838361305d565b6127b66000826124e1565b6127fd600360008573ffffffffffffffffffffffffffffffffffffffff1673ffffffffffffffffffffffffffffffffffffffff168152602001908152602001600020613062565b612844600360008473ffffffffffffffffffffffffffffffffffffffff1673ffffffffffffffffffffffffffffffffffffffff168152602001908152602001600020613085565b816001600083815260200190815260200160002060006101000a81548173ffffffffffffffffffffffffffffffffffffffff021916908373ffffffffffffffffffffffffffffffffffffffff160217905550808273ffffffffffffffffffffffffffffffffffffffff168473ffffffffffffffffffffffffffffffffffffffff167fddf252ad1be2c89b69c2b068fc378daa952ba7f163c4a11628f55a4df523b3ef60405160405180910390a4505050565b60006129516064670de0b6b3a76400006064424460405160200180838152602001828152602001925050506040516020818303038152906040528051906020012060001c8161294157fe5b0602612c8090919063ffffffff16565b905090565b600080612962836115e2565b91509150806006878154811061297457fe5b90600052602060002090600502016004015410156129dd576040517f08c379a0000000000000000000000000000000000000000000000000000000008152600401808060200182810382526029815260200180613a576029913960400191505060405180910390fd5b81600686815481106129eb57fe5b9060005260206000209060050201600401541015612a54576040517f08c379a00000000000000000000000000000000000000000000000000000000081526004018080602001828103825260268152602001806138776026913960400191505060405180910390fd5b6000848714612a635781612a65565b825b90506000878614612a765787612a78565b865b905060068681548110612a8757fe5b906000526020600020906005020160030160008154809291906001019190505550612ad98260068881548110612ab957fe5b906000526020600020906005020160040154612fd590919063ffffffff16565b60068781548110612ae657fe5b906000526020600020906005020160040181905550612b2c8260068381548110612b0c57fe5b906000526020600020906005020160040154612bb090919063ffffffff16565b60068281548110612b3957fe5b906000526020600020906005020160040181905550612b578661309b565b50877f9710e56297b5e8778d11e7e8579c9906ed103bf38376059777631205ff0c57788888604051808381526020018281526020019250505060405180910390a25050505050505050565b600081600001549050919050565b6000612bf283836040518060400160405280601e81526020017f536166654d6174683a207375627472616374696f6e206f766572666c6f7700008152506131d8565b905092915050565b600080831415612c0d5760009050612c7a565b6000828402905082848281612c1e57fe5b0414612c75576040517f08c379a00000000000000000000000000000000000000000000000000000000081526004018080602001828103825260218152602001806139786021913960400191505060405180910390fd5b809150505b92915050565b6000612cc283836040518060400160405280601a81526020017f536166654d6174683a206469766973696f6e206279207a65726f000000000000815250613298565b905092915050565b6000806008836040518082805190602001908083835b60208310612d035780518252602082019150602081019050602083039250612ce0565b6001836020036101000a038019825116818451168082178552505050505050905001915050908152602001604051809103902054119050919050565b600073ffffffffffffffffffffffffffffffffffffffff168273ffffffffffffffffffffffffffffffffffffffff161415612de2576040517f08c379a00000000000000000000000000000000000000000000000000000000081526004018080602001828103825260208152602001807f4552433732313a206d696e7420746f20746865207a65726f206164647265737381525060200191505060405180910390fd5b612deb81612467565b15612e5e576040517f08c379a000000000000000000000000000000000000000000000000000000000815260040180806020018281038252601c8152602001807f4552433732313a20746f6b656e20616c7265616479206d696e7465640000000081525060200191505060405180910390fd5b612e6a6000838361305d565b816001600083815260200190815260200160002060006101000a81548173ffffffffffffffffffffffffffffffffffffffff021916908373ffffffffffffffffffffffffffffffffffffffff160217905550612f03600360008473ffffffffffffffffffffffffffffffffffffffff1673ffffffffffffffffffffffffffffffffffffffff168152602001908152602001600020613085565b808273ffffffffffffffffffffffffffffffffffffffff16600073ffffffffffffffffffffffffffffffffffffffff167fddf252ad1be2c89b69c2b068fc378daa952ba7f163c4a11628f55a4df523b3ef60405160405180910390a45050565b612f6e84848461268e565b612f7a8484848461335e565b612fcf576040517f08c379a00000000000000000000000000000000000000000000000000000000081526004018080602001828103825260328152602001806138456032913960400191505060405180910390fd5b50505050565b600080828401905083811015613053576040517f08c379a000000000000000000000000000000000000000000000000000000000815260040180806020018281038252601b8152602001807f536166654d6174683a206164646974696f6e206f766572666c6f77000000000081525060200191505060405180910390fd5b8091505092915050565b505050565b61307a60018260000154612bb090919063ffffffff16565b816000018190555050565b6001816000016000828254019250508190555050565b6060600060016007805490500390505b600081106131d257600781815481106130c057fe5b906000526020600020906002020160010160009054906101000a900460ff1660ff16600684815481106130ef57fe5b906000526020600020906005020160030154106131c4576007818154811061311357fe5b90600052602060002090600202016000018054600181600116156101000203166002900480601f0160208091040260200160405190810160405280929190818152602001828054600181600116156101000203166002900480156131b85780601f1061318d576101008083540402835291602001916131b8565b820191906000526020600020905b81548152906001019060200180831161319b57829003601f168201915b505050505091506131d2565b8080600190039150506130ab565b50919050565b6000838311158290613285576040517f08c379a00000000000000000000000000000000000000000000000000000000081526004018080602001828103825283818151815260200191508051906020019080838360005b8381101561324a57808201518184015260208101905061322f565b50505050905090810190601f1680156132775780820380516001836020036101000a031916815260200191505b509250505060405180910390fd5b5060008385039050809150509392505050565b60008083118290613344576040517f08c379a00000000000000000000000000000000000000000000000000000000081526004018080602001828103825283818151815260200191508051906020019080838360005b838110156133095780820151818401526020810190506132ee565b50505050905090810190601f1680156133365780820380516001836020036101000a031916815260200191505b509250505060405180910390fd5b50600083858161335057fe5b049050809150509392505050565b600061337f8473ffffffffffffffffffffffffffffffffffffffff16613681565b61338c5760019050613679565b600060608573ffffffffffffffffffffffffffffffffffffffff1663150b7a0260e01b6133b76124d9565b898888604051602401808573ffffffffffffffffffffffffffffffffffffffff1673ffffffffffffffffffffffffffffffffffffffff1681526020018473ffffffffffffffffffffffffffffffffffffffff1673ffffffffffffffffffffffffffffffffffffffff16815260200183815260200180602001828103825283818151815260200191508051906020019080838360005b8381101561346757808201518184015260208101905061344c565b50505050905090810190601f1680156134945780820380516001836020036101000a031916815260200191505b5095505050505050604051602081830303815290604052907bffffffffffffffffffffffffffffffffffffffffffffffffffffffff19166020820180517bffffffffffffffffffffffffffffffffffffffffffffffffffffffff83818316178352505050506040518082805190602001908083835b6020831061352c5780518252602082019150602081019050602083039250613509565b6001836020036101000a0380198251168184511680821785525050505050509050019150506000604051808303816000865af19150503d806000811461358e576040519150601f19603f3d011682016040523d82523d6000602084013e613593565b606091505b509150915081613601576000815111156135b05780518082602001fd5b6040517f08c379a00000000000000000000000000000000000000000000000000000000081526004018080602001828103825260328152602001806138456032913960400191505060405180910390fd5b600081806020019051602081101561361857600080fd5b8101908080519060200190929190505050905063150b7a0260e01b7bffffffffffffffffffffffffffffffffffffffffffffffffffffffff1916817bffffffffffffffffffffffffffffffffffffffffffffffffffffffff19161493505050505b949350505050565b60008060007fc5d2460186f7233c927e7db2dcc703c0e500b653ca82273b7bfad8045d85a47060001b9050833f91508082141580156136c357506000801b8214155b92505050919050565b828054600181600116156101000203166002900490600052602060002090601f016020900481019282601f1061370d57803560ff191683800117855561373b565b8280016001018555821561373b579182015b8281111561373a57823582559160200191906001019061371f565b5b50905061374891906137fb565b5090565b828054600181600116156101000203166002900490600052602060002090601f016020900481019282601f1061378d57805160ff19168380011785556137bb565b828001600101855582156137bb579182015b828111156137ba57825182559160200191906001019061379f565b5b5090506137c891906137fb565b5090565b6040518060a0016040528060008152602001606081526020016060815260200160008152602001600081525090565b61381d91905b80821115613819576000816000905550600101613801565b5090565b9056fe4465706f73697420616d6f756e74206c657373207468616e20746865206d696e696d756d4552433732313a207472616e7366657220746f206e6f6e20455243373231526563656976657220696d706c656d656e74657254686520656e656d7920646f65736e2774206861766520656e6f7567682062616c616e63652e4552433732313a207472616e7366657220746f20746865207a65726f20616464726573734552433732313a206f70657261746f7220717565727920666f72206e6f6e6578697374656e7420746f6b656e4552433732313a20617070726f76652063616c6c6572206973206e6f74206f776e6572206e6f7220617070726f76656420666f7220616c6c4552433732313a2062616c616e636520717565727920666f7220746865207a65726f20616464726573734552433732313a206f776e657220717565727920666f72206e6f6e6578697374656e7420746f6b656e536166654d6174683a206d756c7469706c69636174696f6e206f766572666c6f774552433732313a20617070726f76656420717565727920666f72206e6f6e6578697374656e7420746f6b656e4561636820757365722063616e2068617665206a757374206f6e6520667967687465722e4552433732313a207472616e73666572206f6620746f6b656e2074686174206973206e6f74206f776e596f7572206679676874657220646f65736e2774206861766520656e6f7567682058502e4552433732313a20617070726f76616c20746f2063757272656e74206f776e6572596f7572206679676874657220646f65736e2774206861766520656e6f7567682062616c616e63652e4552433732313a207472616e736665722063616c6c6572206973206e6f74206f776e6572206e6f7220617070726f76656454686973206f7065726174696f6e206f6e6c792063616e20626520646f6e6520627920746865206f776e65722ea2646970667358221220c69fd204156b52d7caf5aa4adf10a7671f7e4e539ed00df6b509dd796dffeea864736f6c63430006020033",
  "source": "pragma solidity 0.6.2;\n\nimport \"@openzeppelin/contracts/math/SafeMath.sol\";\nimport \"@openzeppelin/contracts/token/ERC721/ERC721.sol\";\nimport \"./Dai.sol\";\n\ncontract Fyghters is ERC721 {\n    using SafeMath for uint256;\n\n    uint256 constant ONE = 1 * 10**18;\n    uint256 constant MIN_DEPOSIT = ONE * 5;\n    uint256 constant BET_VALUE = ONE * 5;\n\n    Dai private dai;\n\n    event FyghterCreated(address indexed owner, uint256 id, string name);\n    event ChallengeOccurred(uint256 indexed challengerId, uint256 targetId, uint256 winnerId);\n    event SkinChanged(uint256 indexed id, string newSkin);\n    event FyghterRenamed(uint256 indexed id, string newName);\n    event Deposited(uint256 indexed id, uint256 amount);\n    event Withdrawn(uint256 indexed id, uint256 amount);\n\n    struct Fyghter {\n        uint256 id;\n        string name;\n        string skin;\n        uint256 xp;\n        uint256 balance;\n    }\n\n    struct Skin {\n        string skin;\n        uint8 xpNeeded;\n    }\n\n    Fyghter[] public fyghters;\n    Skin[] public skins;\n    mapping(string => uint256) xpNeededForTheSkin;\n\n    modifier onlyOwnerOf(uint256 _fyghterId) {\n        require(msg.sender == ownerOf(_fyghterId), \"This operation only can be done by the owner.\");\n        _;\n    }\n\n    constructor(Dai _dai) public {\n        dai = _dai;\n\n        // Skins table\n        skins.push(Skin({skin: \"naked\", xpNeeded: 1}));\n        skins.push(Skin({skin: \"normal_guy\", xpNeeded: 10}));\n        skins.push(Skin({skin: \"karate_kid\", xpNeeded: 15}));\n        skins.push(Skin({skin: \"japonese\", xpNeeded: 25}));\n        skins.push(Skin({skin: \"monk\", xpNeeded: 40}));\n        skins.push(Skin({skin: \"ninja\", xpNeeded: 50}));\n        skins.push(Skin({skin: \"no_one\", xpNeeded: 80}));\n        skins.push(Skin({skin: \"demon\", xpNeeded: 80}));\n        skins.push(Skin({skin: \"master\", xpNeeded: 100}));\n\n        for (uint256 i = 0; i < skins.length; ++i) {\n            xpNeededForTheSkin[skins[i].skin] = skins[i].xpNeeded;\n        }\n    }\n\n    function getMinimumDeposit() external pure returns (uint256) {\n        return MIN_DEPOSIT;\n    }\n\n    function getBetValue() external pure returns (uint256) {\n        return BET_VALUE;\n    }\n\n    function create(string calldata _name) external {\n        require(balanceOf(msg.sender) == 0, \"Each user can have just one fyghter.\");\n\n        uint256 _id = fyghters.length;\n        fyghters.push(Fyghter({id: _id, name: _name, skin: skins[0].skin, xp: 1, balance: 0}));\n        _mint(msg.sender, _id);\n        emit FyghterCreated(msg.sender, _id, _name);\n    }\n\n    function deposit(uint256 _fyghterId, uint256 _amount) external {\n        require(dai.transferFrom(msg.sender, address(this), _amount), \"Deposit transfer with error.\");\n        require(_amount >= MIN_DEPOSIT, \"Deposit amount less than the minimum\");\n        fyghters[_fyghterId].balance = fyghters[_fyghterId].balance.add(_amount);\n        emit Deposited(_fyghterId, _amount);\n    }\n\n    function withdrawAll(uint256 _fyghterId) external onlyOwnerOf(_fyghterId) {\n        uint256 balance = fyghters[_fyghterId].balance;\n        fyghters[_fyghterId].balance = 0;\n        require(dai.transfer(msg.sender, balance), \"Withdraw transfer with error.\");\n        emit Withdrawn(_fyghterId, balance);\n    }\n\n    function rename(uint256 _fyghterId, string calldata _newName) external onlyOwnerOf(_fyghterId) {\n        fyghters[_fyghterId].name = _newName;\n        emit FyghterRenamed(_fyghterId, _newName);\n    }\n\n    function calculateGainAndLoss(uint256 _winProbability) public pure returns (uint256 gainIfWin, uint256 lossIfLose) {\n        gainIfWin = BET_VALUE.mul(ONE.sub(_winProbability)).div(ONE);\n        lossIfLose = BET_VALUE.mul(_winProbability).div(ONE);\n    }\n\n    function challenge(uint256 _challengerId, uint256 _targetId) external onlyOwnerOf(_challengerId) {\n        uint256 winProbability = calculateWinProbability(_challengerId, _targetId);\n        uint256 winnerId = (_random() <= winProbability) ? _challengerId : _targetId;\n\n        processChallengeResult(_challengerId, _targetId, winnerId, winProbability);\n    }\n\n    function processChallengeResult(\n        uint256 _challengerId,\n        uint256 _targetId,\n        uint256 _winnerId,\n        uint256 _winProbability\n    ) internal {\n        (uint256 gainIfWin, uint256 lossIfLose) = calculateGainAndLoss(_winProbability);\n\n        require(fyghters[_challengerId].balance >= lossIfLose, \"Your fyghter doesn't have enough balance.\");\n        require(fyghters[_targetId].balance >= gainIfWin, \"The enemy doesn't have enough balance.\");\n\n        uint256 prize = (_challengerId == _winnerId) ? gainIfWin : lossIfLose;\n        uint256 loserId = _winnerId == _challengerId ? _targetId : _challengerId;\n\n        fyghters[_winnerId].xp++;\n        fyghters[_winnerId].balance = fyghters[_winnerId].balance.add(prize);\n        fyghters[loserId].balance = fyghters[loserId].balance.sub(prize);\n\n        _checkForSkinUpdate(_winnerId);\n\n        emit ChallengeOccurred(_challengerId, _targetId, _winnerId);\n    }\n\n    function changeSkin(uint256 _fyghterId, string calldata _newSkin) external onlyOwnerOf(_fyghterId) {\n        require(_isSkinValid(_newSkin), \"Invalid skin.\");\n\n        Fyghter storage fyghter = fyghters[_fyghterId];\n        uint256 xpNeeded = xpNeededForTheSkin[_newSkin];\n        require(fyghter.xp >= xpNeeded, \"Your fyghter doesn't have enough XP.\");\n\n        fyghters[_fyghterId].skin = _newSkin;\n\n        emit SkinChanged(_fyghterId, _newSkin);\n    }\n\n    function calculateWinProbability(uint256 _challengerId, uint256 _targetId)\n        public\n        view\n        returns (uint256 winProbability)\n    {\n        Fyghter memory challenger = fyghters[_challengerId];\n        Fyghter memory target = fyghters[_targetId];\n\n        winProbability = challenger.xp.mul(ONE).div(challenger.xp.add(target.xp));\n    }\n\n    function _checkForSkinUpdate(uint256 _fyghterId) internal view returns (string memory newSkin) {\n        for (uint256 i = skins.length - 1; i >= 0; i--) {\n            if (fyghters[_fyghterId].xp >= skins[i].xpNeeded) {\n                newSkin = skins[i].skin;\n                break;\n            }\n        }\n    }\n\n    /*\n    * Note: It isn't a safe way to generate random number.\n    * See more: https://github.com/marcelomorgado/fyght/issues/71\n    */\n    function _random() internal view returns (uint256) {\n        return ((uint256(keccak256(abi.encodePacked(block.timestamp, block.difficulty))) % 100) * ONE).div(100);\n    }\n\n    function _isSkinValid(string memory _skin) private view returns (bool isSkinValid) {\n        return xpNeededForTheSkin[_skin] > 0;\n    }\n\n}\n",
  "sourcePath": "/home/cmarcelo/git/fyght/packages/contracts/contracts/Fyghters.sol",
  "compiler": {
    "name": "solc",
    "version": "0.6.2+commit.bacdbe57.Emscripten.clang"
  },
  "schemaVersion": "3.0.23",
  "updatedAt": "2020-03-26T20:00:45.123Z",
  "networkType": "ethereum",
  "devdoc": {
    "methods": {
      "approve(address,uint256)": {
        "details": "Approves another address to transfer the given token ID The zero address indicates there is no approved address. There can only be one approved address per token at a given time. Can only be called by the token owner or an approved operator.",
        "params": {
          "to": "address to be approved for the given token ID",
          "tokenId": "uint256 ID of the token to be approved"
        }
      },
      "balanceOf(address)": {
        "details": "Gets the balance of the specified address.",
        "params": {
          "owner": "address to query the balance of"
        },
        "returns": {
          "_0": "uint256 representing the amount owned by the passed address"
        }
      },
      "getApproved(uint256)": {
        "details": "Gets the approved address for a token ID, or zero if no address set Reverts if the token ID does not exist.",
        "params": {
          "tokenId": "uint256 ID of the token to query the approval of"
        },
        "returns": {
          "_0": "address currently approved for the given token ID"
        }
      },
      "isApprovedForAll(address,address)": {
        "details": "Tells whether an operator is approved by a given owner.",
        "params": {
          "operator": "operator address which you want to query the approval of",
          "owner": "owner address which you want to query the approval of"
        },
        "returns": {
          "_0": "bool whether the given operator is approved by the given owner"
        }
      },
      "ownerOf(uint256)": {
        "details": "Gets the owner of the specified token ID.",
        "params": {
          "tokenId": "uint256 ID of the token to query the owner of"
        },
        "returns": {
          "_0": "address currently marked as the owner of the given token ID"
        }
      },
      "safeTransferFrom(address,address,uint256)": {
        "details": "Safely transfers the ownership of a given token ID to another address If the target address is a contract, it must implement {IERC721Receiver-onERC721Received}, which is called upon a safe transfer, and return the magic value `bytes4(keccak256(\"onERC721Received(address,address,uint256,bytes)\"))`; otherwise, the transfer is reverted. Requires the msg.sender to be the owner, approved, or operator",
        "params": {
          "from": "current owner of the token",
          "to": "address to receive the ownership of the given token ID",
          "tokenId": "uint256 ID of the token to be transferred"
        }
      },
      "safeTransferFrom(address,address,uint256,bytes)": {
        "details": "Safely transfers the ownership of a given token ID to another address If the target address is a contract, it must implement {IERC721Receiver-onERC721Received}, which is called upon a safe transfer, and return the magic value `bytes4(keccak256(\"onERC721Received(address,address,uint256,bytes)\"))`; otherwise, the transfer is reverted. Requires the _msgSender() to be the owner, approved, or operator",
        "params": {
          "_data": "bytes data to send along with a safe transfer check",
          "from": "current owner of the token",
          "to": "address to receive the ownership of the given token ID",
          "tokenId": "uint256 ID of the token to be transferred"
        }
      },
      "setApprovalForAll(address,bool)": {
        "details": "Sets or unsets the approval of a given operator An operator is allowed to transfer all tokens of the sender on their behalf.",
        "params": {
          "approved": "representing the status of the approval to be set",
          "operator": "operator address to set the approval"
        }
      },
      "supportsInterface(bytes4)": {
        "details": "See {IERC165-supportsInterface}.     * Time complexity O(1), guaranteed to always use less than 30 000 gas."
      },
      "transferFrom(address,address,uint256)": {
        "details": "Transfers the ownership of a given token ID to another address. Usage of this method is discouraged, use {safeTransferFrom} whenever possible. Requires the msg.sender to be the owner, approved, or operator.",
        "params": {
          "from": "current owner of the token",
          "to": "address to receive the ownership of the given token ID",
          "tokenId": "uint256 ID of the token to be transferred"
        }
      }
    }
  },
  "userdoc": {
    "methods": {}
  }
}