{
  "contractName": "Fyghters",
  "abi": [
    {
      "inputs": [
        {
          "internalType": "contract Dai",
          "name": "_dai",
          "type": "address"
        }
      ],
      "stateMutability": "nonpayable",
      "type": "constructor"
    },
    {
      "anonymous": false,
      "inputs": [
        {
          "indexed": true,
          "internalType": "address",
          "name": "owner",
          "type": "address"
        },
        {
          "indexed": true,
          "internalType": "address",
          "name": "approved",
          "type": "address"
        },
        {
          "indexed": true,
          "internalType": "uint256",
          "name": "tokenId",
          "type": "uint256"
        }
      ],
      "name": "Approval",
      "type": "event"
    },
    {
      "anonymous": false,
      "inputs": [
        {
          "indexed": true,
          "internalType": "address",
          "name": "owner",
          "type": "address"
        },
        {
          "indexed": true,
          "internalType": "address",
          "name": "operator",
          "type": "address"
        },
        {
          "indexed": false,
          "internalType": "bool",
          "name": "approved",
          "type": "bool"
        }
      ],
      "name": "ApprovalForAll",
      "type": "event"
    },
    {
      "anonymous": false,
      "inputs": [
        {
          "indexed": true,
          "internalType": "uint256",
          "name": "challengerId",
          "type": "uint256"
        },
        {
          "indexed": false,
          "internalType": "uint256",
          "name": "targetId",
          "type": "uint256"
        },
        {
          "indexed": false,
          "internalType": "uint256",
          "name": "winnerId",
          "type": "uint256"
        }
      ],
      "name": "ChallengeOccurred",
      "type": "event"
    },
    {
      "anonymous": false,
      "inputs": [
        {
          "indexed": true,
          "internalType": "address",
          "name": "owner",
          "type": "address"
        },
        {
          "indexed": false,
          "internalType": "uint256",
          "name": "id",
          "type": "uint256"
        },
        {
          "indexed": false,
          "internalType": "string",
          "name": "name",
          "type": "string"
        }
      ],
      "name": "FyghterCreated",
      "type": "event"
    },
    {
      "anonymous": false,
      "inputs": [
        {
          "indexed": true,
          "internalType": "uint256",
          "name": "id",
          "type": "uint256"
        },
        {
          "indexed": false,
          "internalType": "string",
          "name": "newName",
          "type": "string"
        }
      ],
      "name": "FyghterRenamed",
      "type": "event"
    },
    {
      "anonymous": false,
      "inputs": [
        {
          "indexed": true,
          "internalType": "uint256",
          "name": "id",
          "type": "uint256"
        },
        {
          "indexed": false,
          "internalType": "string",
          "name": "newSkin",
          "type": "string"
        }
      ],
      "name": "SkinChanged",
      "type": "event"
    },
    {
      "anonymous": false,
      "inputs": [
        {
          "indexed": true,
          "internalType": "address",
          "name": "from",
          "type": "address"
        },
        {
          "indexed": true,
          "internalType": "address",
          "name": "to",
          "type": "address"
        },
        {
          "indexed": true,
          "internalType": "uint256",
          "name": "tokenId",
          "type": "uint256"
        }
      ],
      "name": "Transfer",
      "type": "event"
    },
    {
      "inputs": [
        {
          "internalType": "address",
          "name": "to",
          "type": "address"
        },
        {
          "internalType": "uint256",
          "name": "tokenId",
          "type": "uint256"
        }
      ],
      "name": "approve",
      "outputs": [],
      "stateMutability": "nonpayable",
      "type": "function"
    },
    {
      "inputs": [
        {
          "internalType": "address",
          "name": "owner",
          "type": "address"
        }
      ],
      "name": "balanceOf",
      "outputs": [
        {
          "internalType": "uint256",
          "name": "",
          "type": "uint256"
        }
      ],
      "stateMutability": "view",
      "type": "function",
      "constant": true
    },
    {
      "inputs": [
        {
          "internalType": "uint256",
          "name": "",
          "type": "uint256"
        }
      ],
      "name": "fyghters",
      "outputs": [
        {
          "internalType": "uint256",
          "name": "id",
          "type": "uint256"
        },
        {
          "internalType": "string",
          "name": "name",
          "type": "string"
        },
        {
          "internalType": "string",
          "name": "skin",
          "type": "string"
        },
        {
          "internalType": "uint256",
          "name": "xp",
          "type": "uint256"
        },
        {
          "internalType": "uint256",
          "name": "balance",
          "type": "uint256"
        }
      ],
      "stateMutability": "view",
      "type": "function",
      "constant": true
    },
    {
      "inputs": [
        {
          "internalType": "uint256",
          "name": "tokenId",
          "type": "uint256"
        }
      ],
      "name": "getApproved",
      "outputs": [
        {
          "internalType": "address",
          "name": "",
          "type": "address"
        }
      ],
      "stateMutability": "view",
      "type": "function",
      "constant": true
    },
    {
      "inputs": [
        {
          "internalType": "address",
          "name": "owner",
          "type": "address"
        },
        {
          "internalType": "address",
          "name": "operator",
          "type": "address"
        }
      ],
      "name": "isApprovedForAll",
      "outputs": [
        {
          "internalType": "bool",
          "name": "",
          "type": "bool"
        }
      ],
      "stateMutability": "view",
      "type": "function",
      "constant": true
    },
    {
      "inputs": [
        {
          "internalType": "uint256",
          "name": "tokenId",
          "type": "uint256"
        }
      ],
      "name": "ownerOf",
      "outputs": [
        {
          "internalType": "address",
          "name": "",
          "type": "address"
        }
      ],
      "stateMutability": "view",
      "type": "function",
      "constant": true
    },
    {
      "inputs": [
        {
          "internalType": "address",
          "name": "from",
          "type": "address"
        },
        {
          "internalType": "address",
          "name": "to",
          "type": "address"
        },
        {
          "internalType": "uint256",
          "name": "tokenId",
          "type": "uint256"
        }
      ],
      "name": "safeTransferFrom",
      "outputs": [],
      "stateMutability": "nonpayable",
      "type": "function"
    },
    {
      "inputs": [
        {
          "internalType": "address",
          "name": "from",
          "type": "address"
        },
        {
          "internalType": "address",
          "name": "to",
          "type": "address"
        },
        {
          "internalType": "uint256",
          "name": "tokenId",
          "type": "uint256"
        },
        {
          "internalType": "bytes",
          "name": "_data",
          "type": "bytes"
        }
      ],
      "name": "safeTransferFrom",
      "outputs": [],
      "stateMutability": "nonpayable",
      "type": "function"
    },
    {
      "inputs": [
        {
          "internalType": "address",
          "name": "operator",
          "type": "address"
        },
        {
          "internalType": "bool",
          "name": "approved",
          "type": "bool"
        }
      ],
      "name": "setApprovalForAll",
      "outputs": [],
      "stateMutability": "nonpayable",
      "type": "function"
    },
    {
      "inputs": [
        {
          "internalType": "uint256",
          "name": "",
          "type": "uint256"
        }
      ],
      "name": "skins",
      "outputs": [
        {
          "internalType": "string",
          "name": "skin",
          "type": "string"
        },
        {
          "internalType": "uint8",
          "name": "xpNeeded",
          "type": "uint8"
        }
      ],
      "stateMutability": "view",
      "type": "function",
      "constant": true
    },
    {
      "inputs": [
        {
          "internalType": "bytes4",
          "name": "interfaceId",
          "type": "bytes4"
        }
      ],
      "name": "supportsInterface",
      "outputs": [
        {
          "internalType": "bool",
          "name": "",
          "type": "bool"
        }
      ],
      "stateMutability": "view",
      "type": "function",
      "constant": true
    },
    {
      "inputs": [
        {
          "internalType": "address",
          "name": "from",
          "type": "address"
        },
        {
          "internalType": "address",
          "name": "to",
          "type": "address"
        },
        {
          "internalType": "uint256",
          "name": "tokenId",
          "type": "uint256"
        }
      ],
      "name": "transferFrom",
      "outputs": [],
      "stateMutability": "nonpayable",
      "type": "function"
    },
    {
      "inputs": [],
      "name": "getMinimumDeposit",
      "outputs": [
        {
          "internalType": "uint256",
          "name": "",
          "type": "uint256"
        }
      ],
      "stateMutability": "pure",
      "type": "function",
      "constant": true
    },
    {
      "inputs": [],
      "name": "getBetValue",
      "outputs": [
        {
          "internalType": "uint256",
          "name": "",
          "type": "uint256"
        }
      ],
      "stateMutability": "pure",
      "type": "function",
      "constant": true
    },
    {
      "inputs": [
        {
          "internalType": "string",
          "name": "_name",
          "type": "string"
        }
      ],
      "name": "create",
      "outputs": [],
      "stateMutability": "nonpayable",
      "type": "function"
    },
    {
      "inputs": [
        {
          "internalType": "uint256",
          "name": "_fyghterId",
          "type": "uint256"
        },
        {
          "internalType": "string",
          "name": "_newName",
          "type": "string"
        }
      ],
      "name": "rename",
      "outputs": [],
      "stateMutability": "nonpayable",
      "type": "function"
    },
    {
      "inputs": [
        {
          "internalType": "uint256",
          "name": "_winProbability",
          "type": "uint256"
        }
      ],
      "name": "calculateGainAndLoss",
      "outputs": [
        {
          "internalType": "uint256",
          "name": "gainIfWin",
          "type": "uint256"
        },
        {
          "internalType": "uint256",
          "name": "lossIfLose",
          "type": "uint256"
        }
      ],
      "stateMutability": "pure",
      "type": "function",
      "constant": true
    },
    {
      "inputs": [
        {
          "internalType": "uint256",
          "name": "_challengerId",
          "type": "uint256"
        },
        {
          "internalType": "uint256",
          "name": "_targetId",
          "type": "uint256"
        }
      ],
      "name": "challenge",
      "outputs": [],
      "stateMutability": "nonpayable",
      "type": "function"
    },
    {
      "inputs": [
        {
          "internalType": "uint256",
          "name": "_fyghterId",
          "type": "uint256"
        },
        {
          "internalType": "string",
          "name": "_newSkin",
          "type": "string"
        }
      ],
      "name": "changeSkin",
      "outputs": [],
      "stateMutability": "nonpayable",
      "type": "function"
    },
    {
      "inputs": [
        {
          "internalType": "uint256",
          "name": "_challengerId",
          "type": "uint256"
        },
        {
          "internalType": "uint256",
          "name": "_targetId",
          "type": "uint256"
        }
      ],
      "name": "calculateWinProbability",
      "outputs": [
        {
          "internalType": "uint256",
          "name": "winProbability",
          "type": "uint256"
        }
      ],
      "stateMutability": "view",
      "type": "function",
      "constant": true
    }
  ],
  "bytecode": "0x60806040523480156200001157600080fd5b506040516200441638038062004416833981810160405260208110156200003757600080fd5b8101908080519060200190929190505050620000606301ffc9a760e01b6200075360201b60201c565b620000786380ac58cd60e01b6200075360201b60201c565b80600560006101000a81548173ffffffffffffffffffffffffffffffffffffffff021916908373ffffffffffffffffffffffffffffffffffffffff160217905550600760405180604001604052806040518060400160405280600581526020017f6e616b65640000000000000000000000000000000000000000000000000000008152508152602001600060ff1681525090806001815401808255809150506001900390600052602060002090600202016000909190919091506000820151816000019080519060200190620001509291906200085c565b5060208201518160010160006101000a81548160ff021916908360ff1602179055505050600760405180604001604052806040518060400160405280600a81526020017f6e6f726d616c5f677579000000000000000000000000000000000000000000008152508152602001600a60ff16815250908060018154018082558091505060019003906000526020600020906002020160009091909190915060008201518160000190805190602001906200020b9291906200085c565b5060208201518160010160006101000a81548160ff021916908360ff1602179055505050600760405180604001604052806040518060400160405280600a81526020017f6b61726174655f6b6964000000000000000000000000000000000000000000008152508152602001600f60ff1681525090806001815401808255809150506001900390600052602060002090600202016000909190919091506000820151816000019080519060200190620002c69291906200085c565b5060208201518160010160006101000a81548160ff021916908360ff1602179055505050600760405180604001604052806040518060400160405280600881526020017f6a61706f6e6573650000000000000000000000000000000000000000000000008152508152602001601960ff1681525090806001815401808255809150506001900390600052602060002090600202016000909190919091506000820151816000019080519060200190620003819291906200085c565b5060208201518160010160006101000a81548160ff021916908360ff1602179055505050600760405180604001604052806040518060400160405280600481526020017f6d6f6e6b000000000000000000000000000000000000000000000000000000008152508152602001602860ff16815250908060018154018082558091505060019003906000526020600020906002020160009091909190915060008201518160000190805190602001906200043c9291906200085c565b5060208201518160010160006101000a81548160ff021916908360ff1602179055505050600760405180604001604052806040518060400160405280600581526020017f6e696e6a610000000000000000000000000000000000000000000000000000008152508152602001603260ff1681525090806001815401808255809150506001900390600052602060002090600202016000909190919091506000820151816000019080519060200190620004f79291906200085c565b5060208201518160010160006101000a81548160ff021916908360ff1602179055505050600760405180604001604052806040518060400160405280600681526020017f6e6f5f6f6e6500000000000000000000000000000000000000000000000000008152508152602001605060ff1681525090806001815401808255809150506001900390600052602060002090600202016000909190919091506000820151816000019080519060200190620005b29291906200085c565b5060208201518160010160006101000a81548160ff021916908360ff1602179055505050600760405180604001604052806040518060400160405280600581526020017f64656d6f6e0000000000000000000000000000000000000000000000000000008152508152602001605060ff16815250908060018154018082558091505060019003906000526020600020906002020160009091909190915060008201518160000190805190602001906200066d9291906200085c565b5060208201518160010160006101000a81548160ff021916908360ff1602179055505050600760405180604001604052806040518060400160405280600681526020017f6d617374657200000000000000000000000000000000000000000000000000008152508152602001606460ff1681525090806001815401808255809150506001900390600052602060002090600202016000909190919091506000820151816000019080519060200190620007289291906200085c565b5060208201518160010160006101000a81548160ff021916908360ff1602179055505050506200090b565b63ffffffff60e01b817bffffffffffffffffffffffffffffffffffffffffffffffffffffffff19161415620007f0576040517f08c379a000000000000000000000000000000000000000000000000000000000815260040180806020018281038252601c8152602001807f4552433136353a20696e76616c696420696e746572666163652069640000000081525060200191505060405180910390fd5b6001600080837bffffffffffffffffffffffffffffffffffffffffffffffffffffffff19167bffffffffffffffffffffffffffffffffffffffffffffffffffffffff1916815260200190815260200160002060006101000a81548160ff02191690831515021790555050565b828054600181600116156101000203166002900490600052602060002090601f016020900481019282601f106200089f57805160ff1916838001178555620008d0565b82800160010185558215620008d0579182015b82811115620008cf578251825591602001919060010190620008b2565b5b509050620008df9190620008e3565b5090565b6200090891905b8082111562000904576000816000905550600101620008ea565b5090565b90565b613afb806200091b6000396000f3fe608060405234801561001057600080fd5b506004361061012c5760003560e01c80636352211e116100ad578063a916353611610071578063a916353614610760578063b6a46b3b146107e3578063b88d4fde1461085c578063b94c940614610961578063e985e9c5146109ad5761012c565b80636352211e146105e35780636e8c9a141461065157806370a082311461066f5780639abc61f5146106c7578063a22cb465146107105761012c565b80632db2ede5116100f45780632db2ede5146102de5780632e414890146103925780633ec2d836146103ca57806342842e0e1461044d57806349b640c5146104bb5761012c565b806301ffc9a714610131578063035cf14214610196578063081812fc146101b4578063095ea7b31461022257806323b872dd14610270575b600080fd5b61017c6004803603602081101561014757600080fd5b8101908080357bffffffffffffffffffffffffffffffffffffffffffffffffffffffff19169060200190929190505050610a29565b604051808215151515815260200191505060405180910390f35b61019e610a90565b6040518082815260200191505060405180910390f35b6101e0600480360360208110156101ca57600080fd5b8101908080359060200190929190505050610aa3565b604051808273ffffffffffffffffffffffffffffffffffffffff1673ffffffffffffffffffffffffffffffffffffffff16815260200191505060405180910390f35b61026e6004803603604081101561023857600080fd5b81019080803573ffffffffffffffffffffffffffffffffffffffff16906020019092919080359060200190929190505050610b3e565b005b6102dc6004803603606081101561028657600080fd5b81019080803573ffffffffffffffffffffffffffffffffffffffff169060200190929190803573ffffffffffffffffffffffffffffffffffffffff16906020019092919080359060200190929190505050610c82565b005b61030a600480360360208110156102f457600080fd5b8101908080359060200190929190505050610cf8565b60405180806020018360ff1660ff168152602001828103825284818151815260200191508051906020019080838360005b8381101561035657808201518184015260208101905061033b565b50505050905090810190601f1680156103835780820380516001836020036101000a031916815260200191505b50935050505060405180910390f35b6103c8600480360360408110156103a857600080fd5b810190808035906020019092919080359060200190929190505050610dce565b005b61044b600480360360408110156103e057600080fd5b81019080803590602001909291908035906020019064010000000081111561040757600080fd5b82018360208201111561041957600080fd5b8035906020019184600183028401116401000000008311171561043b57600080fd5b9091929391929390505050610f97565b005b6104b96004803603606081101561046357600080fd5b81019080803573ffffffffffffffffffffffffffffffffffffffff169060200190929190803573ffffffffffffffffffffffffffffffffffffffff169060200190929190803590602001909291905050506110bc565b005b6104e7600480360360208110156104d157600080fd5b81019080803590602001909291905050506110dc565b604051808681526020018060200180602001858152602001848152602001838103835287818151815260200191508051906020019080838360005b8381101561053d578082015181840152602081019050610522565b50505050905090810190601f16801561056a5780820380516001836020036101000a031916815260200191505b50838103825286818151815260200191508051906020019080838360005b838110156105a3578082015181840152602081019050610588565b50505050905090810190601f1680156105d05780820380516001836020036101000a031916815260200191505b5097505050505050505060405180910390f35b61060f600480360360208110156105f957600080fd5b810190808035906020019092919050505061124f565b604051808273ffffffffffffffffffffffffffffffffffffffff1673ffffffffffffffffffffffffffffffffffffffff16815260200191505060405180910390f35b610659611317565b6040518082815260200191505060405180910390f35b6106b16004803603602081101561068557600080fd5b81019080803573ffffffffffffffffffffffffffffffffffffffff16906020019092919050505061132a565b6040518082815260200191505060405180910390f35b6106f3600480360360208110156106dd57600080fd5b81019080803590602001909291905050506113ff565b604051808381526020018281526020019250505060405180910390f35b61075e6004803603604081101561072657600080fd5b81019080803573ffffffffffffffffffffffffffffffffffffffff169060200190929190803515159060200190929190505050611495565b005b6107e16004803603604081101561077657600080fd5b81019080803590602001909291908035906020019064010000000081111561079d57600080fd5b8201836020820111156107af57600080fd5b803590602001918460018302840111640100000000831117156107d157600080fd5b909192939192939050505061164d565b005b61085a600480360360208110156107f957600080fd5b810190808035906020019064010000000081111561081657600080fd5b82018360208201111561082857600080fd5b8035906020019184600183028401116401000000008311171561084a57600080fd5b90919293919293905050506119f1565b005b61095f6004803603608081101561087257600080fd5b81019080803573ffffffffffffffffffffffffffffffffffffffff169060200190929190803573ffffffffffffffffffffffffffffffffffffffff16906020019092919080359060200190929190803590602001906401000000008111156108d957600080fd5b8201836020820111156108eb57600080fd5b8035906020019184600183028401116401000000008311171561090d57600080fd5b91908080601f016020809104026020016040519081016040528093929190818152602001838380828437600081840152601f19601f820116905080830192505050505050509192919290505050611fa6565b005b6109976004803603604081101561097757600080fd5b81019080803590602001909291908035906020019092919050505061201e565b6040518082815260200191505060405180910390f35b610a0f600480360360408110156109c357600080fd5b81019080803573ffffffffffffffffffffffffffffffffffffffff169060200190929190803573ffffffffffffffffffffffffffffffffffffffff169060200190929190505050612399565b604051808215151515815260200191505060405180910390f35b6000806000837bffffffffffffffffffffffffffffffffffffffffffffffffffffffff19167bffffffffffffffffffffffffffffffffffffffffffffffffffffffff1916815260200190815260200160002060009054906101000a900460ff169050919050565b60006005670de0b6b3a764000002905090565b6000610aae8261242d565b610b03576040517f08c379a000000000000000000000000000000000000000000000000000000000815260040180806020018281038252602c8152602001806139d2602c913960400191505060405180910390fd5b6002600083815260200190815260200160002060009054906101000a900473ffffffffffffffffffffffffffffffffffffffff169050919050565b6000610b498261124f565b90508073ffffffffffffffffffffffffffffffffffffffff168373ffffffffffffffffffffffffffffffffffffffff161415610bd0576040517f08c379a0000000000000000000000000000000000000000000000000000000008152600401808060200182810382526021815260200180613a4b6021913960400191505060405180910390fd5b8073ffffffffffffffffffffffffffffffffffffffff16610bef61249f565b73ffffffffffffffffffffffffffffffffffffffff161480610c1e5750610c1d81610c1861249f565b612399565b5b610c73576040517f08c379a00000000000000000000000000000000000000000000000000000000081526004018080602001828103825260388152602001806139266038913960400191505060405180910390fd5b610c7d83836124a7565b505050565b610c93610c8d61249f565b82612560565b610ce8576040517f08c379a0000000000000000000000000000000000000000000000000000000008152600401808060200182810382526031815260200180613a956031913960400191505060405180910390fd5b610cf3838383612654565b505050565b60078181548110610d0557fe5b9060005260206000209060020201600091509050806000018054600181600116156101000203166002900480601f016020809104026020016040519081016040528092919081815260200182805460018160011615610100020316600290048015610db15780601f10610d8657610100808354040283529160200191610db1565b820191906000526020600020905b815481529060010190602001808311610d9457829003601f168201915b5050505050908060010160009054906101000a900460ff16905082565b81610dd88161124f565b73ffffffffffffffffffffffffffffffffffffffff163373ffffffffffffffffffffffffffffffffffffffff1614610e5b576040517f08c379a000000000000000000000000000000000000000000000000000000000815260040180806020018281038252602e8152602001806138d1602e913960400191505060405180910390fd5b6000610e67848461201e565b9050600080610e75836113ff565b915091508060068781548110610e8757fe5b9060005260206000209060050201600401541015610ef0576040517f08c379a0000000000000000000000000000000000000000000000000000000008152600401808060200182810382526029815260200180613a6c6029913960400191505060405180910390fd5b8160068681548110610efe57fe5b9060005260206000209060050201600401541015610f67576040517f08c379a00000000000000000000000000000000000000000000000000000000081526004018080602001828103825260268152602001806138256026913960400191505060405180910390fd5b600083610f726128bc565b1115610f7e5785610f80565b865b9050610f8e8787838761291c565b50505050505050565b82610fa18161124f565b73ffffffffffffffffffffffffffffffffffffffff163373ffffffffffffffffffffffffffffffffffffffff1614611024576040517f08c379a000000000000000000000000000000000000000000000000000000000815260040180806020018281038252602e8152602001806138d1602e913960400191505060405180910390fd5b82826006868154811061103357fe5b90600052602060002090600502016001019190611051929190613672565b50837f553656c6feb05b3e720bd33ad52f9cc39bc80982fb434f80e81391abc4c9dda5848460405180806020018281038252848482818152602001925080828437600081840152601f19601f820116905080830192505050935050505060405180910390a250505050565b6110d783838360405180602001604052806000815250611fa6565b505050565b600681815481106110e957fe5b9060005260206000209060050201600091509050806000015490806001018054600181600116156101000203166002900480601f01602080910402602001604051908101604052809291908181526020018280546001816001161561010002031660029004801561119b5780601f106111705761010080835404028352916020019161119b565b820191906000526020600020905b81548152906001019060200180831161117e57829003601f168201915b505050505090806002018054600181600116156101000203166002900480601f0160208091040260200160405190810160405280929190818152602001828054600181600116156101000203166002900480156112395780601f1061120e57610100808354040283529160200191611239565b820191906000526020600020905b81548152906001019060200180831161121c57829003601f168201915b5050505050908060030154908060040154905085565b6000806001600084815260200190815260200160002060009054906101000a900473ffffffffffffffffffffffffffffffffffffffff169050600073ffffffffffffffffffffffffffffffffffffffff168173ffffffffffffffffffffffffffffffffffffffff16141561130e576040517f08c379a00000000000000000000000000000000000000000000000000000000081526004018080602001828103825260298152602001806139886029913960400191505060405180910390fd5b80915050919050565b60006005670de0b6b3a764000002905090565b60008073ffffffffffffffffffffffffffffffffffffffff168273ffffffffffffffffffffffffffffffffffffffff1614156113b1576040517f08c379a000000000000000000000000000000000000000000000000000000000815260040180806020018281038252602a81526020018061395e602a913960400191505060405180910390fd5b6113f8600360008473ffffffffffffffffffffffffffffffffffffffff1673ffffffffffffffffffffffffffffffffffffffff168152602001908152602001600020612a7a565b9050919050565b600080611454670de0b6b3a764000061144661142c86670de0b6b3a7640000612a8890919063ffffffff16565b6005670de0b6b3a764000002612ad290919063ffffffff16565b612b5890919063ffffffff16565b915061148e670de0b6b3a7640000611480856005670de0b6b3a764000002612ad290919063ffffffff16565b612b5890919063ffffffff16565b9050915091565b61149d61249f565b73ffffffffffffffffffffffffffffffffffffffff168273ffffffffffffffffffffffffffffffffffffffff16141561153e576040517f08c379a00000000000000000000000000000000000000000000000000000000081526004018080602001828103825260198152602001807f4552433732313a20617070726f766520746f2063616c6c65720000000000000081525060200191505060405180910390fd5b806004600061154b61249f565b73ffffffffffffffffffffffffffffffffffffffff1673ffffffffffffffffffffffffffffffffffffffff16815260200190815260200160002060008473ffffffffffffffffffffffffffffffffffffffff1673ffffffffffffffffffffffffffffffffffffffff16815260200190815260200160002060006101000a81548160ff0219169083151502179055508173ffffffffffffffffffffffffffffffffffffffff166115f861249f565b73ffffffffffffffffffffffffffffffffffffffff167f17307eab39ab6107e8899845ad3d59bd9653f200f220920489ca2b5937696c3183604051808215151515815260200191505060405180910390a35050565b826116578161124f565b73ffffffffffffffffffffffffffffffffffffffff163373ffffffffffffffffffffffffffffffffffffffff16146116da576040517f08c379a000000000000000000000000000000000000000000000000000000000815260040180806020018281038252602e8152602001806138d1602e913960400191505060405180910390fd5b6000600685815481106116e957fe5b90600052602060002090600502019050605060ff168160030154101561175a576040517f08c379a000000000000000000000000000000000000000000000000000000000815260040180806020018281038252602c8152602001806137c7602c913960400191505060405180910390fd5b6117a784848080601f016020809104026020016040519081016040528093929190818152602001838380828437600081840152601f19601f82011690508083019250505050505050612ba2565b611819576040517f08c379a000000000000000000000000000000000000000000000000000000000815260040180806020018281038252600d8152602001807f496e76616c696420736b696e2e0000000000000000000000000000000000000081525060200191505060405180910390fd5b6040518060400160405280600681526020017f6d617374657200000000000000000000000000000000000000000000000000008152506040516020018082805190602001908083835b602083106118855780518252602082019150602081019050602083039250611862565b6001836020036101000a03801982511681845116808217855250505050505090500191505060405160208183030381529060405280519060200120848460405160200180838380828437808301925050509250505060405160208183030381529060405280519060200120141561195857606460ff1681600301541015611957576040517f08c379a000000000000000000000000000000000000000000000000000000000815260040180806020018281038252603681526020018061384b6036913960400191505060405180910390fd5b5b83836006878154811061196757fe5b90600052602060002090600502016002019190611985929190613672565b50847f546aa5db2f34cd0c10c3bf80054ede7658175a11189cbeee6241bd45952c3a99858560405180806020018281038252848482818152602001925080828437600081840152601f19601f820116905080830192505050935050505060405180910390a25050505050565b60006119fc3361132a565b14611a52576040517f08c379a00000000000000000000000000000000000000000000000000000000081526004018080602001828103825260248152602001806139fe6024913960400191505060405180910390fd5b6005670de0b6b3a764000002600560009054906101000a900473ffffffffffffffffffffffffffffffffffffffff1673ffffffffffffffffffffffffffffffffffffffff1663dd62ed3e33306040518363ffffffff1660e01b8152600401808373ffffffffffffffffffffffffffffffffffffffff1673ffffffffffffffffffffffffffffffffffffffff1681526020018273ffffffffffffffffffffffffffffffffffffffff1673ffffffffffffffffffffffffffffffffffffffff1681526020019250505060206040518083038186803b158015611b3157600080fd5b505afa158015611b45573d6000803e3d6000fd5b505050506040513d6020811015611b5b57600080fd5b81019080805190602001909291905050501015611bc3576040517f08c379a00000000000000000000000000000000000000000000000000000000081526004018080602001828103825260278152602001806138ff6027913960400191505060405180910390fd5b600560009054906101000a900473ffffffffffffffffffffffffffffffffffffffff1673ffffffffffffffffffffffffffffffffffffffff166323b872dd33306005670de0b6b3a7640000026040518463ffffffff1660e01b8152600401808473ffffffffffffffffffffffffffffffffffffffff1673ffffffffffffffffffffffffffffffffffffffff1681526020018373ffffffffffffffffffffffffffffffffffffffff1673ffffffffffffffffffffffffffffffffffffffff1681526020018281526020019350505050602060405180830381600087803b158015611cab57600080fd5b505af1158015611cbf573d6000803e3d6000fd5b505050506040513d6020811015611cd557600080fd5b8101908080519060200190929190505050611d58576040517f08c379a000000000000000000000000000000000000000000000000000000000815260040180806020018281038252601b8152602001807f4572726f72207768656e206465706f736974696e6720446169732e000000000081525060200191505060405180910390fd5b6000600680549050905060066040518060a0016040528083815260200185858080601f016020809104026020016040519081016040528093929190818152602001838380828437600081840152601f19601f8201169050808301925050505050505081526020016007600081548110611dcd57fe5b90600052602060002090600202016000018054600181600116156101000203166002900480601f016020809104026020016040519081016040528092919081815260200182805460018160011615610100020316600290048015611e725780601f10611e4757610100808354040283529160200191611e72565b820191906000526020600020905b815481529060010190602001808311611e5557829003601f168201915b50505050508152602001600181526020016005670de0b6b3a7640000028152509080600181540180825580915050600190039060005260206000209060050201600090919091909150600082015181600001556020820151816001019080519060200190611ee19291906136f2565b506040820151816002019080519060200190611efe9291906136f2565b5060608201518160030155608082015181600401555050611f1f3382612ce5565b3373ffffffffffffffffffffffffffffffffffffffff167f1243c32293ccfe8a2001f7de06e504e0ffb98f63144253faa43123a5cffe93dc82858560405180848152602001806020018281038252848482818152602001925080828437600081840152601f19601f82011690508083019250505094505050505060405180910390a2505050565b611fb7611fb161249f565b83612560565b61200c576040517f08c379a0000000000000000000000000000000000000000000000000000000008152600401808060200182810382526031815260200180613a956031913960400191505060405180910390fd5b61201884848484612f09565b50505050565b6000612028613772565b6006848154811061203557fe5b90600052602060002090600502016040518060a001604052908160008201548152602001600182018054600181600116156101000203166002900480601f0160208091040260200160405190810160405280929190818152602001828054600181600116156101000203166002900480156120f15780601f106120c6576101008083540402835291602001916120f1565b820191906000526020600020905b8154815290600101906020018083116120d457829003601f168201915b50505050508152602001600282018054600181600116156101000203166002900480601f0160208091040260200160405190810160405280929190818152602001828054600181600116156101000203166002900480156121935780601f1061216857610100808354040283529160200191612193565b820191906000526020600020905b81548152906001019060200180831161217657829003601f168201915b505050505081526020016003820154815260200160048201548152505090506121ba613772565b600684815481106121c757fe5b90600052602060002090600502016040518060a001604052908160008201548152602001600182018054600181600116156101000203166002900480601f0160208091040260200160405190810160405280929190818152602001828054600181600116156101000203166002900480156122835780601f1061225857610100808354040283529160200191612283565b820191906000526020600020905b81548152906001019060200180831161226657829003601f168201915b50505050508152602001600282018054600181600116156101000203166002900480601f0160208091040260200160405190810160405280929190818152602001828054600181600116156101000203166002900480156123255780601f106122fa57610100808354040283529160200191612325565b820191906000526020600020905b81548152906001019060200180831161230857829003601f168201915b5050505050815260200160038201548152602001600482015481525050905061238f61236282606001518460600151612f7b90919063ffffffff16565b612381670de0b6b3a76400008560600151612ad290919063ffffffff16565b612b5890919063ffffffff16565b9250505092915050565b6000600460008473ffffffffffffffffffffffffffffffffffffffff1673ffffffffffffffffffffffffffffffffffffffff16815260200190815260200160002060008373ffffffffffffffffffffffffffffffffffffffff1673ffffffffffffffffffffffffffffffffffffffff16815260200190815260200160002060009054906101000a900460ff16905092915050565b6000806001600084815260200190815260200160002060009054906101000a900473ffffffffffffffffffffffffffffffffffffffff169050600073ffffffffffffffffffffffffffffffffffffffff168173ffffffffffffffffffffffffffffffffffffffff161415915050919050565b600033905090565b816002600083815260200190815260200160002060006101000a81548173ffffffffffffffffffffffffffffffffffffffff021916908373ffffffffffffffffffffffffffffffffffffffff160217905550808273ffffffffffffffffffffffffffffffffffffffff1661251a8361124f565b73ffffffffffffffffffffffffffffffffffffffff167f8c5be1e5ebec7d5bd14f71427d1e84f3dd0314c0f7b2291e5b200ac8c7c3b92560405160405180910390a45050565b600061256b8261242d565b6125c0576040517f08c379a000000000000000000000000000000000000000000000000000000000815260040180806020018281038252602c8152602001806138a5602c913960400191505060405180910390fd5b60006125cb8361124f565b90508073ffffffffffffffffffffffffffffffffffffffff168473ffffffffffffffffffffffffffffffffffffffff16148061263a57508373ffffffffffffffffffffffffffffffffffffffff1661262284610aa3565b73ffffffffffffffffffffffffffffffffffffffff16145b8061264b575061264a8185612399565b5b91505092915050565b8273ffffffffffffffffffffffffffffffffffffffff166126748261124f565b73ffffffffffffffffffffffffffffffffffffffff16146126e0576040517f08c379a0000000000000000000000000000000000000000000000000000000008152600401808060200182810382526029815260200180613a226029913960400191505060405180910390fd5b600073ffffffffffffffffffffffffffffffffffffffff168273ffffffffffffffffffffffffffffffffffffffff161415612766576040517f08c379a00000000000000000000000000000000000000000000000000000000081526004018080602001828103825260248152602001806138816024913960400191505060405180910390fd5b612771838383613003565b61277c6000826124a7565b6127c3600360008573ffffffffffffffffffffffffffffffffffffffff1673ffffffffffffffffffffffffffffffffffffffff168152602001908152602001600020613008565b61280a600360008473ffffffffffffffffffffffffffffffffffffffff1673ffffffffffffffffffffffffffffffffffffffff16815260200190815260200160002061302b565b816001600083815260200190815260200160002060006101000a81548173ffffffffffffffffffffffffffffffffffffffff021916908373ffffffffffffffffffffffffffffffffffffffff160217905550808273ffffffffffffffffffffffffffffffffffffffff168473ffffffffffffffffffffffffffffffffffffffff167fddf252ad1be2c89b69c2b068fc378daa952ba7f163c4a11628f55a4df523b3ef60405160405180910390a4505050565b60006129176064670de0b6b3a76400006064424460405160200180838152602001828152602001925050506040516020818303038152906040528051906020012060001c8161290757fe5b0602612b5890919063ffffffff16565b905090565b600080612928836113ff565b91509150600084871461293b578161293d565b825b9050600087861461294e5787612950565b865b90506006868154811061295f57fe5b9060005260206000209060050201600301600081548092919060010191905055506129b1826006888154811061299157fe5b906000526020600020906005020160040154612f7b90919063ffffffff16565b600687815481106129be57fe5b906000526020600020906005020160040181905550612a0482600683815481106129e457fe5b906000526020600020906005020160040154612a8890919063ffffffff16565b60068281548110612a1157fe5b906000526020600020906005020160040181905550612a2f86613041565b50877f9710e56297b5e8778d11e7e8579c9906ed103bf38376059777631205ff0c57788888604051808381526020018281526020019250505060405180910390a25050505050505050565b600081600001549050919050565b6000612aca83836040518060400160405280601e81526020017f536166654d6174683a207375627472616374696f6e206f766572666c6f77000081525061317e565b905092915050565b600080831415612ae55760009050612b52565b6000828402905082848281612af657fe5b0414612b4d576040517f08c379a00000000000000000000000000000000000000000000000000000000081526004018080602001828103825260218152602001806139b16021913960400191505060405180910390fd5b809150505b92915050565b6000612b9a83836040518060400160405280601a81526020017f536166654d6174683a206469766973696f6e206279207a65726f00000000000081525061323e565b905092915050565b600080905060008090505b600780549050811015612cdf5760078181548110612bc757fe5b90600052602060002090600202016000016040516020018082805460018160011615610100020316600290048015612c365780601f10612c14576101008083540402835291820191612c36565b820191906000526020600020905b815481529060010190602001808311612c22575b505091505060405160208183030381529060405280519060200120836040516020018082805190602001908083835b60208310612c885780518252602082019150602081019050602083039250612c65565b6001836020036101000a038019825116818451168082178552505050505050905001915050604051602081830303815290604052805190602001201415612cd25760019150612cdf565b8080600101915050612bad565b50919050565b600073ffffffffffffffffffffffffffffffffffffffff168273ffffffffffffffffffffffffffffffffffffffff161415612d88576040517f08c379a00000000000000000000000000000000000000000000000000000000081526004018080602001828103825260208152602001807f4552433732313a206d696e7420746f20746865207a65726f206164647265737381525060200191505060405180910390fd5b612d918161242d565b15612e04576040517f08c379a000000000000000000000000000000000000000000000000000000000815260040180806020018281038252601c8152602001807f4552433732313a20746f6b656e20616c7265616479206d696e7465640000000081525060200191505060405180910390fd5b612e1060008383613003565b816001600083815260200190815260200160002060006101000a81548173ffffffffffffffffffffffffffffffffffffffff021916908373ffffffffffffffffffffffffffffffffffffffff160217905550612ea9600360008473ffffffffffffffffffffffffffffffffffffffff1673ffffffffffffffffffffffffffffffffffffffff16815260200190815260200160002061302b565b808273ffffffffffffffffffffffffffffffffffffffff16600073ffffffffffffffffffffffffffffffffffffffff167fddf252ad1be2c89b69c2b068fc378daa952ba7f163c4a11628f55a4df523b3ef60405160405180910390a45050565b612f14848484612654565b612f2084848484613304565b612f75576040517f08c379a00000000000000000000000000000000000000000000000000000000081526004018080602001828103825260328152602001806137f36032913960400191505060405180910390fd5b50505050565b600080828401905083811015612ff9576040517f08c379a000000000000000000000000000000000000000000000000000000000815260040180806020018281038252601b8152602001807f536166654d6174683a206164646974696f6e206f766572666c6f77000000000081525060200191505060405180910390fd5b8091505092915050565b505050565b61302060018260000154612a8890919063ffffffff16565b816000018190555050565b6001816000016000828254019250508190555050565b6060600060016007805490500390505b60008110613178576007818154811061306657fe5b906000526020600020906002020160010160009054906101000a900460ff1660ff166006848154811061309557fe5b9060005260206000209060050201600301541061316a57600781815481106130b957fe5b90600052602060002090600202016000018054600181600116156101000203166002900480601f01602080910402602001604051908101604052809291908181526020018280546001816001161561010002031660029004801561315e5780601f106131335761010080835404028352916020019161315e565b820191906000526020600020905b81548152906001019060200180831161314157829003601f168201915b50505050509150613178565b808060019003915050613051565b50919050565b600083831115829061322b576040517f08c379a00000000000000000000000000000000000000000000000000000000081526004018080602001828103825283818151815260200191508051906020019080838360005b838110156131f05780820151818401526020810190506131d5565b50505050905090810190601f16801561321d5780820380516001836020036101000a031916815260200191505b509250505060405180910390fd5b5060008385039050809150509392505050565b600080831182906132ea576040517f08c379a00000000000000000000000000000000000000000000000000000000081526004018080602001828103825283818151815260200191508051906020019080838360005b838110156132af578082015181840152602081019050613294565b50505050905090810190601f1680156132dc5780820380516001836020036101000a031916815260200191505b509250505060405180910390fd5b5060008385816132f657fe5b049050809150509392505050565b60006133258473ffffffffffffffffffffffffffffffffffffffff16613627565b613332576001905061361f565b600060608573ffffffffffffffffffffffffffffffffffffffff1663150b7a0260e01b61335d61249f565b898888604051602401808573ffffffffffffffffffffffffffffffffffffffff1673ffffffffffffffffffffffffffffffffffffffff1681526020018473ffffffffffffffffffffffffffffffffffffffff1673ffffffffffffffffffffffffffffffffffffffff16815260200183815260200180602001828103825283818151815260200191508051906020019080838360005b8381101561340d5780820151818401526020810190506133f2565b50505050905090810190601f16801561343a5780820380516001836020036101000a031916815260200191505b5095505050505050604051602081830303815290604052907bffffffffffffffffffffffffffffffffffffffffffffffffffffffff19166020820180517bffffffffffffffffffffffffffffffffffffffffffffffffffffffff83818316178352505050506040518082805190602001908083835b602083106134d257805182526020820191506020810190506020830392506134af565b6001836020036101000a0380198251168184511680821785525050505050509050019150506000604051808303816000865af19150503d8060008114613534576040519150601f19603f3d011682016040523d82523d6000602084013e613539565b606091505b5091509150816135a7576000815111156135565780518082602001fd5b6040517f08c379a00000000000000000000000000000000000000000000000000000000081526004018080602001828103825260328152602001806137f36032913960400191505060405180910390fd5b60008180602001905160208110156135be57600080fd5b8101908080519060200190929190505050905063150b7a0260e01b7bffffffffffffffffffffffffffffffffffffffffffffffffffffffff1916817bffffffffffffffffffffffffffffffffffffffffffffffffffffffff19161493505050505b949350505050565b60008060007fc5d2460186f7233c927e7db2dcc703c0e500b653ca82273b7bfad8045d85a47060001b9050833f915080821415801561366957506000801b8214155b92505050919050565b828054600181600116156101000203166002900490600052602060002090601f016020900481019282601f106136b357803560ff19168380011785556136e1565b828001600101855582156136e1579182015b828111156136e05782358255916020019190600101906136c5565b5b5090506136ee91906137a1565b5090565b828054600181600116156101000203166002900490600052602060002090601f016020900481019282601f1061373357805160ff1916838001178555613761565b82800160010185558215613761579182015b82811115613760578251825591602001919060010190613745565b5b50905061376e91906137a1565b5090565b6040518060a0016040528060008152602001606081526020016060815260200160008152602001600081525090565b6137c391905b808211156137bf5760008160009055506001016137a7565b5090565b9056fe5468652066796768746572206861736e277420656e6f75676820585020746f206368616e676520736b696e2e4552433732313a207472616e7366657220746f206e6f6e20455243373231526563656976657220696d706c656d656e74657254686520656e656d7920646f65736e2774206861766520656e6f7567682062616c616e63652e54686520667967687465722073686f756c642062652061206d617374657220746f2075736520746865206d617374657220736b696e2e4552433732313a207472616e7366657220746f20746865207a65726f20616464726573734552433732313a206f70657261746f7220717565727920666f72206e6f6e6578697374656e7420746f6b656e54686973206f706572616374696f6e206f6e6c792063616e20626520646f6e6520627920746865206f776e65722e44616920616c6c6f77616e6365206973206c657373207468616e20746865206d696e696d756d2e4552433732313a20617070726f76652063616c6c6572206973206e6f74206f776e6572206e6f7220617070726f76656420666f7220616c6c4552433732313a2062616c616e636520717565727920666f7220746865207a65726f20616464726573734552433732313a206f776e657220717565727920666f72206e6f6e6578697374656e7420746f6b656e536166654d6174683a206d756c7469706c69636174696f6e206f766572666c6f774552433732313a20617070726f76656420717565727920666f72206e6f6e6578697374656e7420746f6b656e4561636820757365722063616e2068617665206a757374206f6e6520667967687465722e4552433732313a207472616e73666572206f6620746f6b656e2074686174206973206e6f74206f776e4552433732313a20617070726f76616c20746f2063757272656e74206f776e6572596f7572206679676874657220646f65736e2774206861766520656e6f7567682062616c616e63652e4552433732313a207472616e736665722063616c6c6572206973206e6f74206f776e6572206e6f7220617070726f766564a2646970667358221220b78aa97725756cf8ce1b11004dd6ef3f2dd9f443030ab9fe59910d02de1c114364736f6c63430006020033",
  "source": "pragma solidity 0.6.2;\n\nimport \"@openzeppelin/contracts/math/SafeMath.sol\";\nimport \"@openzeppelin/contracts/token/ERC721/ERC721.sol\";\nimport \"./Dai.sol\";\n\ncontract Fyghters is ERC721 {\n    using SafeMath for uint256;\n\n    uint8 constant ALL_SKINS_MIN_XP = 80;\n    uint8 constant MASTER_MIN_XP = 100;\n    string constant MASTER_SKIN = \"master\";\n    uint256 constant ONE = 1 * 10**18;\n    uint256 constant MIN_DEPOSIT = ONE * 5;\n    uint256 constant BET_VALUE = ONE * 5;\n\n    Dai private dai;\n\n    event FyghterCreated(address indexed owner, uint256 id, string name);\n    event ChallengeOccurred(uint256 indexed challengerId, uint256 targetId, uint256 winnerId);\n    event SkinChanged(uint256 indexed id, string newSkin);\n    event FyghterRenamed(uint256 indexed id, string newName);\n\n    struct Fyghter {\n        uint256 id;\n        string name;\n        string skin;\n        uint256 xp;\n        uint256 balance;\n    }\n\n    struct Skin {\n        string skin;\n        uint8 xpNeeded;\n    }\n\n    Fyghter[] public fyghters;\n    Skin[] public skins;\n\n    modifier onlyOwnerOf(uint256 _fyghterId) {\n        require(msg.sender == ownerOf(_fyghterId), \"This operaction only can be done by the owner.\");\n        _;\n    }\n\n    constructor(Dai _dai) public {\n        dai = _dai;\n\n        // Skins table\n        skins.push(Skin({skin: \"naked\", xpNeeded: 0}));\n        skins.push(Skin({skin: \"normal_guy\", xpNeeded: 10}));\n        skins.push(Skin({skin: \"karate_kid\", xpNeeded: 15}));\n        skins.push(Skin({skin: \"japonese\", xpNeeded: 25}));\n        skins.push(Skin({skin: \"monk\", xpNeeded: 40}));\n        skins.push(Skin({skin: \"ninja\", xpNeeded: 50}));\n        skins.push(Skin({skin: \"no_one\", xpNeeded: ALL_SKINS_MIN_XP}));\n        skins.push(Skin({skin: \"demon\", xpNeeded: 80}));\n        skins.push(Skin({skin: MASTER_SKIN, xpNeeded: MASTER_MIN_XP}));\n    }\n\n    function getMinimumDeposit() external pure returns (uint256) {\n        return MIN_DEPOSIT;\n    }\n\n    function getBetValue() external pure returns (uint256) {\n        return BET_VALUE;\n    }\n\n    function create(string calldata _name) external {\n        require(balanceOf(msg.sender) == 0, \"Each user can have just one fyghter.\");\n        require(dai.allowance(msg.sender, address(this)) >= MIN_DEPOSIT, \"Dai allowance is less than the minimum.\");\n        require(dai.transferFrom(msg.sender, address(this), MIN_DEPOSIT), \"Error when depositing Dais.\");\n\n        uint256 _id = fyghters.length;\n        fyghters.push(Fyghter({id: _id, name: _name, skin: skins[0].skin, xp: 1, balance: MIN_DEPOSIT}));\n        _mint(msg.sender, _id);\n        emit FyghterCreated(msg.sender, _id, _name);\n    }\n\n    function rename(uint256 _fyghterId, string calldata _newName) external onlyOwnerOf(_fyghterId) {\n        fyghters[_fyghterId].name = _newName;\n        emit FyghterRenamed(_fyghterId, _newName);\n    }\n\n    function calculateGainAndLoss(uint256 _winProbability) public pure returns (uint256 gainIfWin, uint256 lossIfLose) {\n        gainIfWin = BET_VALUE.mul(ONE.sub(_winProbability)).div(ONE);\n        lossIfLose = BET_VALUE.mul(_winProbability).div(ONE);\n    }\n\n    function challenge(uint256 _challengerId, uint256 _targetId) external onlyOwnerOf(_challengerId) {\n        uint256 winProbability = calculateWinProbability(_challengerId, _targetId);\n        (uint256 gainIfWin, uint256 lossIfLose) = calculateGainAndLoss(winProbability);\n\n        require(fyghters[_challengerId].balance >= lossIfLose, \"Your fyghter doesn't have enough balance.\");\n        require(fyghters[_targetId].balance >= gainIfWin, \"The enemy doesn't have enough balance.\");\n\n        uint256 winnerId = (_random() <= winProbability) ? _challengerId : _targetId;\n\n        processChallengeResult(_challengerId, _targetId, winnerId, winProbability);\n    }\n\n    function processChallengeResult(\n        uint256 _challengerId,\n        uint256 _targetId,\n        uint256 _winnerId,\n        uint256 _winProbability\n    ) internal {\n        (uint256 gainIfWin, uint256 lossIfLose) = calculateGainAndLoss(_winProbability);\n\n        uint256 prize = (_challengerId == _winnerId) ? gainIfWin : lossIfLose;\n        uint256 loserId = _winnerId == _challengerId ? _targetId : _challengerId;\n\n        fyghters[_winnerId].xp++;\n        fyghters[_winnerId].balance = fyghters[_winnerId].balance.add(prize);\n        fyghters[loserId].balance = fyghters[loserId].balance.sub(prize);\n\n        _checkForSkinUpdate(_winnerId);\n\n        emit ChallengeOccurred(_challengerId, _targetId, _winnerId);\n    }\n\n    function changeSkin(uint256 _fyghterId, string calldata _newSkin) external onlyOwnerOf(_fyghterId) {\n        Fyghter storage fyghter = fyghters[_fyghterId];\n        require(fyghter.xp >= ALL_SKINS_MIN_XP, \"The fyghter hasn't enough XP to change skin.\");\n\n        require(_isSkinValid(_newSkin), \"Invalid skin.\");\n\n        if (keccak256(abi.encodePacked(_newSkin)) == keccak256(abi.encodePacked(MASTER_SKIN))) {\n            require(fyghter.xp >= MASTER_MIN_XP, \"The fyghter should be a master to use the master skin.\");\n        }\n\n        fyghters[_fyghterId].skin = _newSkin;\n\n        emit SkinChanged(_fyghterId, _newSkin);\n    }\n\n    function calculateWinProbability(uint256 _challengerId, uint256 _targetId)\n        public\n        view\n        returns (uint256 winProbability)\n    {\n        Fyghter memory challenger = fyghters[_challengerId];\n        Fyghter memory target = fyghters[_targetId];\n\n        winProbability = challenger.xp.mul(ONE).div(challenger.xp.add(target.xp));\n    }\n\n    function _checkForSkinUpdate(uint256 _fyghterId) internal view returns (string memory newSkin) {\n        for (uint256 i = skins.length - 1; i >= 0; i--) {\n            if (fyghters[_fyghterId].xp >= skins[i].xpNeeded) {\n                newSkin = skins[i].skin;\n                break;\n            }\n        }\n    }\n\n    /*\n    * Note: It isn't a safe way to generate random number.\n    * See more: https://github.com/marcelomorgado/fyght/issues/71\n    */\n    function _random() internal view returns (uint256) {\n        return ((uint256(keccak256(abi.encodePacked(block.timestamp, block.difficulty))) % 100) * ONE).div(100);\n    }\n\n    function _isSkinValid(string memory skin) private view returns (bool isSkinValid) {\n        isSkinValid = false;\n        for (uint256 i = 0; i < skins.length; i++) {\n            if (keccak256(abi.encodePacked(skin)) == keccak256(abi.encodePacked(skins[i].skin))) {\n                isSkinValid = true;\n                break;\n            }\n        }\n    }\n\n}\n",
  "sourcePath": "/home/cmarcelo/git/fyght/packages/contracts/contracts/Fyghters.sol",
  "compiler": {
    "name": "solc",
    "version": "0.6.2+commit.bacdbe57.Emscripten.clang"
  },
  "schemaVersion": "3.0.23",
  "updatedAt": "2020-03-22T14:08:22.349Z",
  "networkType": "ethereum",
  "devdoc": {
    "methods": {
      "approve(address,uint256)": {
        "details": "Approves another address to transfer the given token ID The zero address indicates there is no approved address. There can only be one approved address per token at a given time. Can only be called by the token owner or an approved operator.",
        "params": {
          "to": "address to be approved for the given token ID",
          "tokenId": "uint256 ID of the token to be approved"
        }
      },
      "balanceOf(address)": {
        "details": "Gets the balance of the specified address.",
        "params": {
          "owner": "address to query the balance of"
        },
        "returns": {
          "_0": "uint256 representing the amount owned by the passed address"
        }
      },
      "getApproved(uint256)": {
        "details": "Gets the approved address for a token ID, or zero if no address set Reverts if the token ID does not exist.",
        "params": {
          "tokenId": "uint256 ID of the token to query the approval of"
        },
        "returns": {
          "_0": "address currently approved for the given token ID"
        }
      },
      "isApprovedForAll(address,address)": {
        "details": "Tells whether an operator is approved by a given owner.",
        "params": {
          "operator": "operator address which you want to query the approval of",
          "owner": "owner address which you want to query the approval of"
        },
        "returns": {
          "_0": "bool whether the given operator is approved by the given owner"
        }
      },
      "ownerOf(uint256)": {
        "details": "Gets the owner of the specified token ID.",
        "params": {
          "tokenId": "uint256 ID of the token to query the owner of"
        },
        "returns": {
          "_0": "address currently marked as the owner of the given token ID"
        }
      },
      "safeTransferFrom(address,address,uint256)": {
        "details": "Safely transfers the ownership of a given token ID to another address If the target address is a contract, it must implement {IERC721Receiver-onERC721Received}, which is called upon a safe transfer, and return the magic value `bytes4(keccak256(\"onERC721Received(address,address,uint256,bytes)\"))`; otherwise, the transfer is reverted. Requires the msg.sender to be the owner, approved, or operator",
        "params": {
          "from": "current owner of the token",
          "to": "address to receive the ownership of the given token ID",
          "tokenId": "uint256 ID of the token to be transferred"
        }
      },
      "safeTransferFrom(address,address,uint256,bytes)": {
        "details": "Safely transfers the ownership of a given token ID to another address If the target address is a contract, it must implement {IERC721Receiver-onERC721Received}, which is called upon a safe transfer, and return the magic value `bytes4(keccak256(\"onERC721Received(address,address,uint256,bytes)\"))`; otherwise, the transfer is reverted. Requires the _msgSender() to be the owner, approved, or operator",
        "params": {
          "_data": "bytes data to send along with a safe transfer check",
          "from": "current owner of the token",
          "to": "address to receive the ownership of the given token ID",
          "tokenId": "uint256 ID of the token to be transferred"
        }
      },
      "setApprovalForAll(address,bool)": {
        "details": "Sets or unsets the approval of a given operator An operator is allowed to transfer all tokens of the sender on their behalf.",
        "params": {
          "approved": "representing the status of the approval to be set",
          "operator": "operator address to set the approval"
        }
      },
      "supportsInterface(bytes4)": {
        "details": "See {IERC165-supportsInterface}.     * Time complexity O(1), guaranteed to always use less than 30 000 gas."
      },
      "transferFrom(address,address,uint256)": {
        "details": "Transfers the ownership of a given token ID to another address. Usage of this method is discouraged, use {safeTransferFrom} whenever possible. Requires the msg.sender to be the owner, approved, or operator.",
        "params": {
          "from": "current owner of the token",
          "to": "address to receive the ownership of the given token ID",
          "tokenId": "uint256 ID of the token to be transferred"
        }
      }
    }
  },
  "userdoc": {
    "methods": {}
  }
}