{
  "contractName": "Fyghters",
  "abi": [
    {
      "inputs": [
        {
          "internalType": "contract Dai",
          "name": "_dai",
          "type": "address"
        }
      ],
      "stateMutability": "nonpayable",
      "type": "constructor"
    },
    {
      "anonymous": false,
      "inputs": [
        {
          "indexed": true,
          "internalType": "address",
          "name": "owner",
          "type": "address"
        },
        {
          "indexed": true,
          "internalType": "address",
          "name": "approved",
          "type": "address"
        },
        {
          "indexed": true,
          "internalType": "uint256",
          "name": "tokenId",
          "type": "uint256"
        }
      ],
      "name": "Approval",
      "type": "event"
    },
    {
      "anonymous": false,
      "inputs": [
        {
          "indexed": true,
          "internalType": "address",
          "name": "owner",
          "type": "address"
        },
        {
          "indexed": true,
          "internalType": "address",
          "name": "operator",
          "type": "address"
        },
        {
          "indexed": false,
          "internalType": "bool",
          "name": "approved",
          "type": "bool"
        }
      ],
      "name": "ApprovalForAll",
      "type": "event"
    },
    {
      "anonymous": false,
      "inputs": [
        {
          "indexed": true,
          "internalType": "uint256",
          "name": "challengerId",
          "type": "uint256"
        },
        {
          "indexed": false,
          "internalType": "uint256",
          "name": "targetId",
          "type": "uint256"
        },
        {
          "indexed": false,
          "internalType": "uint256",
          "name": "winnerId",
          "type": "uint256"
        }
      ],
      "name": "ChallengeOccurred",
      "type": "event"
    },
    {
      "anonymous": false,
      "inputs": [
        {
          "indexed": true,
          "internalType": "uint256",
          "name": "id",
          "type": "uint256"
        },
        {
          "indexed": false,
          "internalType": "uint256",
          "name": "amount",
          "type": "uint256"
        }
      ],
      "name": "Deposited",
      "type": "event"
    },
    {
      "anonymous": false,
      "inputs": [
        {
          "indexed": true,
          "internalType": "address",
          "name": "owner",
          "type": "address"
        },
        {
          "indexed": false,
          "internalType": "uint256",
          "name": "id",
          "type": "uint256"
        },
        {
          "indexed": false,
          "internalType": "string",
          "name": "name",
          "type": "string"
        }
      ],
      "name": "FyghterCreated",
      "type": "event"
    },
    {
      "anonymous": false,
      "inputs": [
        {
          "indexed": true,
          "internalType": "uint256",
          "name": "id",
          "type": "uint256"
        },
        {
          "indexed": false,
          "internalType": "string",
          "name": "newName",
          "type": "string"
        }
      ],
      "name": "FyghterRenamed",
      "type": "event"
    },
    {
      "anonymous": false,
      "inputs": [
        {
          "indexed": true,
          "internalType": "uint256",
          "name": "id",
          "type": "uint256"
        },
        {
          "indexed": false,
          "internalType": "string",
          "name": "newSkin",
          "type": "string"
        }
      ],
      "name": "SkinChanged",
      "type": "event"
    },
    {
      "anonymous": false,
      "inputs": [
        {
          "indexed": true,
          "internalType": "address",
          "name": "from",
          "type": "address"
        },
        {
          "indexed": true,
          "internalType": "address",
          "name": "to",
          "type": "address"
        },
        {
          "indexed": true,
          "internalType": "uint256",
          "name": "tokenId",
          "type": "uint256"
        }
      ],
      "name": "Transfer",
      "type": "event"
    },
    {
      "anonymous": false,
      "inputs": [
        {
          "indexed": true,
          "internalType": "uint256",
          "name": "id",
          "type": "uint256"
        },
        {
          "indexed": false,
          "internalType": "uint256",
          "name": "amount",
          "type": "uint256"
        }
      ],
      "name": "Withdrawn",
      "type": "event"
    },
    {
      "inputs": [
        {
          "internalType": "address",
          "name": "to",
          "type": "address"
        },
        {
          "internalType": "uint256",
          "name": "tokenId",
          "type": "uint256"
        }
      ],
      "name": "approve",
      "outputs": [],
      "stateMutability": "nonpayable",
      "type": "function"
    },
    {
      "inputs": [
        {
          "internalType": "address",
          "name": "owner",
          "type": "address"
        }
      ],
      "name": "balanceOf",
      "outputs": [
        {
          "internalType": "uint256",
          "name": "",
          "type": "uint256"
        }
      ],
      "stateMutability": "view",
      "type": "function",
      "constant": true
    },
    {
      "inputs": [
        {
          "internalType": "uint256",
          "name": "",
          "type": "uint256"
        }
      ],
      "name": "fyghters",
      "outputs": [
        {
          "internalType": "uint256",
          "name": "id",
          "type": "uint256"
        },
        {
          "internalType": "string",
          "name": "name",
          "type": "string"
        },
        {
          "internalType": "string",
          "name": "skin",
          "type": "string"
        },
        {
          "internalType": "uint256",
          "name": "xp",
          "type": "uint256"
        },
        {
          "internalType": "uint256",
          "name": "balance",
          "type": "uint256"
        }
      ],
      "stateMutability": "view",
      "type": "function",
      "constant": true
    },
    {
      "inputs": [
        {
          "internalType": "uint256",
          "name": "tokenId",
          "type": "uint256"
        }
      ],
      "name": "getApproved",
      "outputs": [
        {
          "internalType": "address",
          "name": "",
          "type": "address"
        }
      ],
      "stateMutability": "view",
      "type": "function",
      "constant": true
    },
    {
      "inputs": [
        {
          "internalType": "address",
          "name": "owner",
          "type": "address"
        },
        {
          "internalType": "address",
          "name": "operator",
          "type": "address"
        }
      ],
      "name": "isApprovedForAll",
      "outputs": [
        {
          "internalType": "bool",
          "name": "",
          "type": "bool"
        }
      ],
      "stateMutability": "view",
      "type": "function",
      "constant": true
    },
    {
      "inputs": [
        {
          "internalType": "uint256",
          "name": "tokenId",
          "type": "uint256"
        }
      ],
      "name": "ownerOf",
      "outputs": [
        {
          "internalType": "address",
          "name": "",
          "type": "address"
        }
      ],
      "stateMutability": "view",
      "type": "function",
      "constant": true
    },
    {
      "inputs": [
        {
          "internalType": "address",
          "name": "from",
          "type": "address"
        },
        {
          "internalType": "address",
          "name": "to",
          "type": "address"
        },
        {
          "internalType": "uint256",
          "name": "tokenId",
          "type": "uint256"
        }
      ],
      "name": "safeTransferFrom",
      "outputs": [],
      "stateMutability": "nonpayable",
      "type": "function"
    },
    {
      "inputs": [
        {
          "internalType": "address",
          "name": "from",
          "type": "address"
        },
        {
          "internalType": "address",
          "name": "to",
          "type": "address"
        },
        {
          "internalType": "uint256",
          "name": "tokenId",
          "type": "uint256"
        },
        {
          "internalType": "bytes",
          "name": "_data",
          "type": "bytes"
        }
      ],
      "name": "safeTransferFrom",
      "outputs": [],
      "stateMutability": "nonpayable",
      "type": "function"
    },
    {
      "inputs": [
        {
          "internalType": "address",
          "name": "operator",
          "type": "address"
        },
        {
          "internalType": "bool",
          "name": "approved",
          "type": "bool"
        }
      ],
      "name": "setApprovalForAll",
      "outputs": [],
      "stateMutability": "nonpayable",
      "type": "function"
    },
    {
      "inputs": [
        {
          "internalType": "uint256",
          "name": "",
          "type": "uint256"
        }
      ],
      "name": "skins",
      "outputs": [
        {
          "internalType": "string",
          "name": "skin",
          "type": "string"
        },
        {
          "internalType": "uint8",
          "name": "xpNeeded",
          "type": "uint8"
        }
      ],
      "stateMutability": "view",
      "type": "function",
      "constant": true
    },
    {
      "inputs": [
        {
          "internalType": "bytes4",
          "name": "interfaceId",
          "type": "bytes4"
        }
      ],
      "name": "supportsInterface",
      "outputs": [
        {
          "internalType": "bool",
          "name": "",
          "type": "bool"
        }
      ],
      "stateMutability": "view",
      "type": "function",
      "constant": true
    },
    {
      "inputs": [
        {
          "internalType": "address",
          "name": "from",
          "type": "address"
        },
        {
          "internalType": "address",
          "name": "to",
          "type": "address"
        },
        {
          "internalType": "uint256",
          "name": "tokenId",
          "type": "uint256"
        }
      ],
      "name": "transferFrom",
      "outputs": [],
      "stateMutability": "nonpayable",
      "type": "function"
    },
    {
      "inputs": [],
      "name": "getMinimumDeposit",
      "outputs": [
        {
          "internalType": "uint256",
          "name": "",
          "type": "uint256"
        }
      ],
      "stateMutability": "pure",
      "type": "function",
      "constant": true
    },
    {
      "inputs": [],
      "name": "getBetValue",
      "outputs": [
        {
          "internalType": "uint256",
          "name": "",
          "type": "uint256"
        }
      ],
      "stateMutability": "pure",
      "type": "function",
      "constant": true
    },
    {
      "inputs": [
        {
          "internalType": "string",
          "name": "_name",
          "type": "string"
        }
      ],
      "name": "create",
      "outputs": [],
      "stateMutability": "nonpayable",
      "type": "function"
    },
    {
      "inputs": [
        {
          "internalType": "uint256",
          "name": "_fyghterId",
          "type": "uint256"
        },
        {
          "internalType": "uint256",
          "name": "_amount",
          "type": "uint256"
        }
      ],
      "name": "deposit",
      "outputs": [],
      "stateMutability": "nonpayable",
      "type": "function"
    },
    {
      "inputs": [
        {
          "internalType": "uint256",
          "name": "_fyghterId",
          "type": "uint256"
        }
      ],
      "name": "withdrawAll",
      "outputs": [],
      "stateMutability": "nonpayable",
      "type": "function"
    },
    {
      "inputs": [
        {
          "internalType": "uint256",
          "name": "_fyghterId",
          "type": "uint256"
        },
        {
          "internalType": "string",
          "name": "_newName",
          "type": "string"
        }
      ],
      "name": "rename",
      "outputs": [],
      "stateMutability": "nonpayable",
      "type": "function"
    },
    {
      "inputs": [
        {
          "internalType": "uint256",
          "name": "_winProbability",
          "type": "uint256"
        }
      ],
      "name": "calculateGainAndLoss",
      "outputs": [
        {
          "internalType": "uint256",
          "name": "gainIfWin",
          "type": "uint256"
        },
        {
          "internalType": "uint256",
          "name": "lossIfLose",
          "type": "uint256"
        }
      ],
      "stateMutability": "pure",
      "type": "function",
      "constant": true
    },
    {
      "inputs": [
        {
          "internalType": "uint256",
          "name": "_challengerId",
          "type": "uint256"
        },
        {
          "internalType": "uint256",
          "name": "_targetId",
          "type": "uint256"
        }
      ],
      "name": "challenge",
      "outputs": [],
      "stateMutability": "nonpayable",
      "type": "function"
    },
    {
      "inputs": [
        {
          "internalType": "uint256",
          "name": "_fyghterId",
          "type": "uint256"
        },
        {
          "internalType": "string",
          "name": "_newSkin",
          "type": "string"
        }
      ],
      "name": "changeSkin",
      "outputs": [],
      "stateMutability": "nonpayable",
      "type": "function"
    },
    {
      "inputs": [
        {
          "internalType": "uint256",
          "name": "_challengerId",
          "type": "uint256"
        },
        {
          "internalType": "uint256",
          "name": "_targetId",
          "type": "uint256"
        }
      ],
      "name": "calculateWinProbability",
      "outputs": [
        {
          "internalType": "uint256",
          "name": "winProbability",
          "type": "uint256"
        }
      ],
      "stateMutability": "view",
      "type": "function",
      "constant": true
    }
  ],
  "bytecode": "0x60806040523480156200001157600080fd5b506040516200465138038062004651833981810160405260208110156200003757600080fd5b8101908080519060200190929190505050620000606301ffc9a760e01b6200075360201b60201c565b620000786380ac58cd60e01b6200075360201b60201c565b80600560006101000a81548173ffffffffffffffffffffffffffffffffffffffff021916908373ffffffffffffffffffffffffffffffffffffffff160217905550600760405180604001604052806040518060400160405280600581526020017f6e616b65640000000000000000000000000000000000000000000000000000008152508152602001600060ff1681525090806001815401808255809150506001900390600052602060002090600202016000909190919091506000820151816000019080519060200190620001509291906200085c565b5060208201518160010160006101000a81548160ff021916908360ff1602179055505050600760405180604001604052806040518060400160405280600a81526020017f6e6f726d616c5f677579000000000000000000000000000000000000000000008152508152602001600a60ff16815250908060018154018082558091505060019003906000526020600020906002020160009091909190915060008201518160000190805190602001906200020b9291906200085c565b5060208201518160010160006101000a81548160ff021916908360ff1602179055505050600760405180604001604052806040518060400160405280600a81526020017f6b61726174655f6b6964000000000000000000000000000000000000000000008152508152602001600f60ff1681525090806001815401808255809150506001900390600052602060002090600202016000909190919091506000820151816000019080519060200190620002c69291906200085c565b5060208201518160010160006101000a81548160ff021916908360ff1602179055505050600760405180604001604052806040518060400160405280600881526020017f6a61706f6e6573650000000000000000000000000000000000000000000000008152508152602001601960ff1681525090806001815401808255809150506001900390600052602060002090600202016000909190919091506000820151816000019080519060200190620003819291906200085c565b5060208201518160010160006101000a81548160ff021916908360ff1602179055505050600760405180604001604052806040518060400160405280600481526020017f6d6f6e6b000000000000000000000000000000000000000000000000000000008152508152602001602860ff16815250908060018154018082558091505060019003906000526020600020906002020160009091909190915060008201518160000190805190602001906200043c9291906200085c565b5060208201518160010160006101000a81548160ff021916908360ff1602179055505050600760405180604001604052806040518060400160405280600581526020017f6e696e6a610000000000000000000000000000000000000000000000000000008152508152602001603260ff1681525090806001815401808255809150506001900390600052602060002090600202016000909190919091506000820151816000019080519060200190620004f79291906200085c565b5060208201518160010160006101000a81548160ff021916908360ff1602179055505050600760405180604001604052806040518060400160405280600681526020017f6e6f5f6f6e6500000000000000000000000000000000000000000000000000008152508152602001605060ff1681525090806001815401808255809150506001900390600052602060002090600202016000909190919091506000820151816000019080519060200190620005b29291906200085c565b5060208201518160010160006101000a81548160ff021916908360ff1602179055505050600760405180604001604052806040518060400160405280600581526020017f64656d6f6e0000000000000000000000000000000000000000000000000000008152508152602001605060ff16815250908060018154018082558091505060019003906000526020600020906002020160009091909190915060008201518160000190805190602001906200066d9291906200085c565b5060208201518160010160006101000a81548160ff021916908360ff1602179055505050600760405180604001604052806040518060400160405280600681526020017f6d617374657200000000000000000000000000000000000000000000000000008152508152602001606460ff1681525090806001815401808255809150506001900390600052602060002090600202016000909190919091506000820151816000019080519060200190620007289291906200085c565b5060208201518160010160006101000a81548160ff021916908360ff1602179055505050506200090b565b63ffffffff60e01b817bffffffffffffffffffffffffffffffffffffffffffffffffffffffff19161415620007f0576040517f08c379a000000000000000000000000000000000000000000000000000000000815260040180806020018281038252601c8152602001807f4552433136353a20696e76616c696420696e746572666163652069640000000081525060200191505060405180910390fd5b6001600080837bffffffffffffffffffffffffffffffffffffffffffffffffffffffff19167bffffffffffffffffffffffffffffffffffffffffffffffffffffffff1916815260200190815260200160002060006101000a81548160ff02191690831515021790555050565b828054600181600116156101000203166002900490600052602060002090601f016020900481019282601f106200089f57805160ff1916838001178555620008d0565b82800160010185558215620008d0579182015b82811115620008cf578251825591602001919060010190620008b2565b5b509050620008df9190620008e3565b5090565b6200090891905b8082111562000904576000816000905550600101620008ea565b5090565b90565b613d36806200091b6000396000f3fe608060405234801561001057600080fd5b50600436106101425760003560e01c80636e8c9a14116100b8578063a91635361161007c578063a9163536146107a4578063b6a46b3b14610827578063b88d4fde146108a0578063b94c9406146109a5578063e2bbb158146109f1578063e985e9c514610a2957610142565b80636e8c9a141461066757806370a0823114610685578063958e2d31146106dd5780639abc61f51461070b578063a22cb4651461075457610142565b80632db2ede51161010a5780632db2ede5146102f45780632e414890146103a85780633ec2d836146103e057806342842e0e1461046357806349b640c5146104d15780636352211e146105f957610142565b806301ffc9a714610147578063035cf142146101ac578063081812fc146101ca578063095ea7b31461023857806323b872dd14610286575b600080fd5b6101926004803603602081101561015d57600080fd5b8101908080357bffffffffffffffffffffffffffffffffffffffffffffffffffffffff19169060200190929190505050610aa5565b604051808215151515815260200191505060405180910390f35b6101b4610b0c565b6040518082815260200191505060405180910390f35b6101f6600480360360208110156101e057600080fd5b8101908080359060200190929190505050610b1f565b604051808273ffffffffffffffffffffffffffffffffffffffff1673ffffffffffffffffffffffffffffffffffffffff16815260200191505060405180910390f35b6102846004803603604081101561024e57600080fd5b81019080803573ffffffffffffffffffffffffffffffffffffffff16906020019092919080359060200190929190505050610bba565b005b6102f26004803603606081101561029c57600080fd5b81019080803573ffffffffffffffffffffffffffffffffffffffff169060200190929190803573ffffffffffffffffffffffffffffffffffffffff16906020019092919080359060200190929190505050610cfe565b005b6103206004803603602081101561030a57600080fd5b8101908080359060200190929190505050610d74565b60405180806020018360ff1660ff168152602001828103825284818151815260200191508051906020019080838360005b8381101561036c578082015181840152602081019050610351565b50505050905090810190601f1680156103995780820380516001836020036101000a031916815260200191505b50935050505060405180910390f35b6103de600480360360408110156103be57600080fd5b810190808035906020019092919080359060200190929190505050610e4a565b005b610461600480360360408110156103f657600080fd5b81019080803590602001909291908035906020019064010000000081111561041d57600080fd5b82018360208201111561042f57600080fd5b8035906020019184600183028401116401000000008311171561045157600080fd5b9091929391929390505050610f13565b005b6104cf6004803603606081101561047957600080fd5b81019080803573ffffffffffffffffffffffffffffffffffffffff169060200190929190803573ffffffffffffffffffffffffffffffffffffffff16906020019092919080359060200190929190505050611038565b005b6104fd600480360360208110156104e757600080fd5b8101908080359060200190929190505050611058565b604051808681526020018060200180602001858152602001848152602001838103835287818151815260200191508051906020019080838360005b83811015610553578082015181840152602081019050610538565b50505050905090810190601f1680156105805780820380516001836020036101000a031916815260200191505b50838103825286818151815260200191508051906020019080838360005b838110156105b957808201518184015260208101905061059e565b50505050905090810190601f1680156105e65780820380516001836020036101000a031916815260200191505b5097505050505050505060405180910390f35b6106256004803603602081101561060f57600080fd5b81019080803590602001909291905050506111cb565b604051808273ffffffffffffffffffffffffffffffffffffffff1673ffffffffffffffffffffffffffffffffffffffff16815260200191505060405180910390f35b61066f611293565b6040518082815260200191505060405180910390f35b6106c76004803603602081101561069b57600080fd5b81019080803573ffffffffffffffffffffffffffffffffffffffff1690602001909291905050506112a6565b6040518082815260200191505060405180910390f35b610709600480360360208110156106f357600080fd5b810190808035906020019092919050505061137b565b005b6107376004803603602081101561072157600080fd5b81019080803590602001909291905050506115e2565b604051808381526020018281526020019250505060405180910390f35b6107a26004803603604081101561076a57600080fd5b81019080803573ffffffffffffffffffffffffffffffffffffffff169060200190929190803515159060200190929190505050611678565b005b610825600480360360408110156107ba57600080fd5b8101908080359060200190929190803590602001906401000000008111156107e157600080fd5b8201836020820111156107f357600080fd5b8035906020019184600183028401116401000000008311171561081557600080fd5b9091929391929390505050611830565b005b61089e6004803603602081101561083d57600080fd5b810190808035906020019064010000000081111561085a57600080fd5b82018360208201111561086c57600080fd5b8035906020019184600183028401116401000000008311171561088e57600080fd5b9091929391929390505050611bd4565b005b6109a3600480360360808110156108b657600080fd5b81019080803573ffffffffffffffffffffffffffffffffffffffff169060200190929190803573ffffffffffffffffffffffffffffffffffffffff169060200190929190803590602001909291908035906020019064010000000081111561091d57600080fd5b82018360208201111561092f57600080fd5b8035906020019184600183028401116401000000008311171561095157600080fd5b91908080601f016020809104026020016040519081016040528093929190818152602001838380828437600081840152601f19601f820116905080830192505050505050509192919290505050611e79565b005b6109db600480360360408110156109bb57600080fd5b810190808035906020019092919080359060200190929190505050611ef1565b6040518082815260200191505060405180910390f35b610a2760048036036040811015610a0757600080fd5b81019080803590602001909291908035906020019092919050505061226c565b005b610a8b60048036036040811015610a3f57600080fd5b81019080803573ffffffffffffffffffffffffffffffffffffffff169060200190929190803573ffffffffffffffffffffffffffffffffffffffff1690602001909291905050506124e9565b604051808215151515815260200191505060405180910390f35b6000806000837bffffffffffffffffffffffffffffffffffffffffffffffffffffffff19167bffffffffffffffffffffffffffffffffffffffffffffffffffffffff1916815260200190815260200160002060009054906101000a900460ff169050919050565b60006005670de0b6b3a764000002905090565b6000610b2a8261257d565b610b7f576040517f08c379a000000000000000000000000000000000000000000000000000000000815260040180806020018281038252602c815260200180613c0d602c913960400191505060405180910390fd5b6002600083815260200190815260200160002060009054906101000a900473ffffffffffffffffffffffffffffffffffffffff169050919050565b6000610bc5826111cb565b90508073ffffffffffffffffffffffffffffffffffffffff168373ffffffffffffffffffffffffffffffffffffffff161415610c4c576040517f08c379a0000000000000000000000000000000000000000000000000000000008152600401808060200182810382526021815260200180613c866021913960400191505060405180910390fd5b8073ffffffffffffffffffffffffffffffffffffffff16610c6b6125ef565b73ffffffffffffffffffffffffffffffffffffffff161480610c9a5750610c9981610c946125ef565b6124e9565b5b610cef576040517f08c379a0000000000000000000000000000000000000000000000000000000008152600401808060200182810382526038815260200180613b616038913960400191505060405180910390fd5b610cf983836125f7565b505050565b610d0f610d096125ef565b826126b0565b610d64576040517f08c379a0000000000000000000000000000000000000000000000000000000008152600401808060200182810382526031815260200180613cd06031913960400191505060405180910390fd5b610d6f8383836127a4565b505050565b60078181548110610d8157fe5b9060005260206000209060020201600091509050806000018054600181600116156101000203166002900480601f016020809104026020016040519081016040528092919081815260200182805460018160011615610100020316600290048015610e2d5780601f10610e0257610100808354040283529160200191610e2d565b820191906000526020600020905b815481529060010190602001808311610e1057829003601f168201915b5050505050908060010160009054906101000a900460ff16905082565b81610e54816111cb565b73ffffffffffffffffffffffffffffffffffffffff163373ffffffffffffffffffffffffffffffffffffffff1614610ed7576040517f08c379a000000000000000000000000000000000000000000000000000000000815260040180806020018281038252602e815260200180613b33602e913960400191505060405180910390fd5b6000610ee38484611ef1565b9050600081610ef0612a0c565b1115610efc5783610efe565b845b9050610f0c85858385612a6c565b5050505050565b82610f1d816111cb565b73ffffffffffffffffffffffffffffffffffffffff163373ffffffffffffffffffffffffffffffffffffffff1614610fa0576040517f08c379a000000000000000000000000000000000000000000000000000000000815260040180806020018281038252602e815260200180613b33602e913960400191505060405180910390fd5b828260068681548110610faf57fe5b90600052602060002090600502016001019190610fcd9291906138b0565b50837f553656c6feb05b3e720bd33ad52f9cc39bc80982fb434f80e81391abc4c9dda5848460405180806020018281038252848482818152602001925080828437600081840152601f19601f820116905080830192505050935050505060405180910390a250505050565b61105383838360405180602001604052806000815250611e79565b505050565b6006818154811061106557fe5b9060005260206000209060050201600091509050806000015490806001018054600181600116156101000203166002900480601f0160208091040260200160405190810160405280929190818152602001828054600181600116156101000203166002900480156111175780601f106110ec57610100808354040283529160200191611117565b820191906000526020600020905b8154815290600101906020018083116110fa57829003601f168201915b505050505090806002018054600181600116156101000203166002900480601f0160208091040260200160405190810160405280929190818152602001828054600181600116156101000203166002900480156111b55780601f1061118a576101008083540402835291602001916111b5565b820191906000526020600020905b81548152906001019060200180831161119857829003601f168201915b5050505050908060030154908060040154905085565b6000806001600084815260200190815260200160002060009054906101000a900473ffffffffffffffffffffffffffffffffffffffff169050600073ffffffffffffffffffffffffffffffffffffffff168173ffffffffffffffffffffffffffffffffffffffff16141561128a576040517f08c379a0000000000000000000000000000000000000000000000000000000008152600401808060200182810382526029815260200180613bc36029913960400191505060405180910390fd5b80915050919050565b60006005670de0b6b3a764000002905090565b60008073ffffffffffffffffffffffffffffffffffffffff168273ffffffffffffffffffffffffffffffffffffffff16141561132d576040517f08c379a000000000000000000000000000000000000000000000000000000000815260040180806020018281038252602a815260200180613b99602a913960400191505060405180910390fd5b611374600360008473ffffffffffffffffffffffffffffffffffffffff1673ffffffffffffffffffffffffffffffffffffffff168152602001908152602001600020612cb8565b9050919050565b80611385816111cb565b73ffffffffffffffffffffffffffffffffffffffff163373ffffffffffffffffffffffffffffffffffffffff1614611408576040517f08c379a000000000000000000000000000000000000000000000000000000000815260040180806020018281038252602e815260200180613b33602e913960400191505060405180910390fd5b60006006838154811061141757fe5b906000526020600020906005020160040154905060006006848154811061143a57fe5b906000526020600020906005020160040181905550600560009054906101000a900473ffffffffffffffffffffffffffffffffffffffff1673ffffffffffffffffffffffffffffffffffffffff1663a9059cbb33836040518363ffffffff1660e01b8152600401808373ffffffffffffffffffffffffffffffffffffffff1673ffffffffffffffffffffffffffffffffffffffff16815260200182815260200192505050602060405180830381600087803b1580156114f857600080fd5b505af115801561150c573d6000803e3d6000fd5b505050506040513d602081101561152257600080fd5b81019080805190602001909291905050506115a5576040517f08c379a000000000000000000000000000000000000000000000000000000000815260040180806020018281038252601d8152602001807f5769746864726177207472616e736665722077697468206572726f722e00000081525060200191505060405180910390fd5b827f0c875c8d391179c5cf7ad8303d268efd50b8beb78b671f85cd54bfb91eb8ef40826040518082815260200191505060405180910390a2505050565b600080611637670de0b6b3a764000061162961160f86670de0b6b3a7640000612cc690919063ffffffff16565b6005670de0b6b3a764000002612d1090919063ffffffff16565b612d9690919063ffffffff16565b9150611671670de0b6b3a7640000611663856005670de0b6b3a764000002612d1090919063ffffffff16565b612d9690919063ffffffff16565b9050915091565b6116806125ef565b73ffffffffffffffffffffffffffffffffffffffff168273ffffffffffffffffffffffffffffffffffffffff161415611721576040517f08c379a00000000000000000000000000000000000000000000000000000000081526004018080602001828103825260198152602001807f4552433732313a20617070726f766520746f2063616c6c65720000000000000081525060200191505060405180910390fd5b806004600061172e6125ef565b73ffffffffffffffffffffffffffffffffffffffff1673ffffffffffffffffffffffffffffffffffffffff16815260200190815260200160002060008473ffffffffffffffffffffffffffffffffffffffff1673ffffffffffffffffffffffffffffffffffffffff16815260200190815260200160002060006101000a81548160ff0219169083151502179055508173ffffffffffffffffffffffffffffffffffffffff166117db6125ef565b73ffffffffffffffffffffffffffffffffffffffff167f17307eab39ab6107e8899845ad3d59bd9653f200f220920489ca2b5937696c3183604051808215151515815260200191505060405180910390a35050565b8261183a816111cb565b73ffffffffffffffffffffffffffffffffffffffff163373ffffffffffffffffffffffffffffffffffffffff16146118bd576040517f08c379a000000000000000000000000000000000000000000000000000000000815260040180806020018281038252602e815260200180613b33602e913960400191505060405180910390fd5b6000600685815481106118cc57fe5b90600052602060002090600502019050605060ff168160030154101561193d576040517f08c379a000000000000000000000000000000000000000000000000000000000815260040180806020018281038252602c815260200180613a29602c913960400191505060405180910390fd5b61198a84848080601f016020809104026020016040519081016040528093929190818152602001838380828437600081840152601f19601f82011690508083019250505050505050612de0565b6119fc576040517f08c379a000000000000000000000000000000000000000000000000000000000815260040180806020018281038252600d8152602001807f496e76616c696420736b696e2e0000000000000000000000000000000000000081525060200191505060405180910390fd5b6040518060400160405280600681526020017f6d617374657200000000000000000000000000000000000000000000000000008152506040516020018082805190602001908083835b60208310611a685780518252602082019150602081019050602083039250611a45565b6001836020036101000a038019825116818451168082178552505050505050905001915050604051602081830303815290604052805190602001208484604051602001808383808284378083019250505092505050604051602081830303815290604052805190602001201415611b3b57606460ff1681600301541015611b3a576040517f08c379a0000000000000000000000000000000000000000000000000000000008152600401808060200182810382526036815260200180613aad6036913960400191505060405180910390fd5b5b838360068781548110611b4a57fe5b90600052602060002090600502016002019190611b689291906138b0565b50847f546aa5db2f34cd0c10c3bf80054ede7658175a11189cbeee6241bd45952c3a99858560405180806020018281038252848482818152602001925080828437600081840152601f19601f820116905080830192505050935050505060405180910390a25050505050565b6000611bdf336112a6565b14611c35576040517f08c379a0000000000000000000000000000000000000000000000000000000008152600401808060200182810382526024815260200180613c396024913960400191505060405180910390fd5b6000600680549050905060066040518060a0016040528083815260200185858080601f016020809104026020016040519081016040528093929190818152602001838380828437600081840152601f19601f8201169050808301925050505050505081526020016007600081548110611caa57fe5b90600052602060002090600202016000018054600181600116156101000203166002900480601f016020809104026020016040519081016040528092919081815260200182805460018160011615610100020316600290048015611d4f5780601f10611d2457610100808354040283529160200191611d4f565b820191906000526020600020905b815481529060010190602001808311611d3257829003601f168201915b505050505081526020016001815260200160008152509080600181540180825580915050600190039060005260206000209060050201600090919091909150600082015181600001556020820151816001019080519060200190611db4929190613930565b506040820151816002019080519060200190611dd1929190613930565b5060608201518160030155608082015181600401555050611df23382612f23565b3373ffffffffffffffffffffffffffffffffffffffff167f1243c32293ccfe8a2001f7de06e504e0ffb98f63144253faa43123a5cffe93dc82858560405180848152602001806020018281038252848482818152602001925080828437600081840152601f19601f82011690508083019250505094505050505060405180910390a2505050565b611e8a611e846125ef565b836126b0565b611edf576040517f08c379a0000000000000000000000000000000000000000000000000000000008152600401808060200182810382526031815260200180613cd06031913960400191505060405180910390fd5b611eeb84848484613147565b50505050565b6000611efb6139b0565b60068481548110611f0857fe5b90600052602060002090600502016040518060a001604052908160008201548152602001600182018054600181600116156101000203166002900480601f016020809104026020016040519081016040528092919081815260200182805460018160011615610100020316600290048015611fc45780601f10611f9957610100808354040283529160200191611fc4565b820191906000526020600020905b815481529060010190602001808311611fa757829003601f168201915b50505050508152602001600282018054600181600116156101000203166002900480601f0160208091040260200160405190810160405280929190818152602001828054600181600116156101000203166002900480156120665780601f1061203b57610100808354040283529160200191612066565b820191906000526020600020905b81548152906001019060200180831161204957829003601f168201915b5050505050815260200160038201548152602001600482015481525050905061208d6139b0565b6006848154811061209a57fe5b90600052602060002090600502016040518060a001604052908160008201548152602001600182018054600181600116156101000203166002900480601f0160208091040260200160405190810160405280929190818152602001828054600181600116156101000203166002900480156121565780601f1061212b57610100808354040283529160200191612156565b820191906000526020600020905b81548152906001019060200180831161213957829003601f168201915b50505050508152602001600282018054600181600116156101000203166002900480601f0160208091040260200160405190810160405280929190818152602001828054600181600116156101000203166002900480156121f85780601f106121cd576101008083540402835291602001916121f8565b820191906000526020600020905b8154815290600101906020018083116121db57829003601f168201915b50505050508152602001600382015481526020016004820154815250509050612262612235826060015184606001516131b990919063ffffffff16565b612254670de0b6b3a76400008560600151612d1090919063ffffffff16565b612d9690919063ffffffff16565b9250505092915050565b600560009054906101000a900473ffffffffffffffffffffffffffffffffffffffff1673ffffffffffffffffffffffffffffffffffffffff166323b872dd3330846040518463ffffffff1660e01b8152600401808473ffffffffffffffffffffffffffffffffffffffff1673ffffffffffffffffffffffffffffffffffffffff1681526020018373ffffffffffffffffffffffffffffffffffffffff1673ffffffffffffffffffffffffffffffffffffffff1681526020018281526020019350505050602060405180830381600087803b15801561234957600080fd5b505af115801561235d573d6000803e3d6000fd5b505050506040513d602081101561237357600080fd5b81019080805190602001909291905050506123f6576040517f08c379a000000000000000000000000000000000000000000000000000000000815260040180806020018281038252601c8152602001807f4465706f736974207472616e736665722077697468206572726f722e0000000081525060200191505060405180910390fd5b6005670de0b6b3a76400000281101561245a576040517f08c379a0000000000000000000000000000000000000000000000000000000008152600401808060200182810382526024815260200180613a056024913960400191505060405180910390fd5b61248b816006848154811061246b57fe5b9060005260206000209060050201600401546131b990919063ffffffff16565b6006838154811061249857fe5b906000526020600020906005020160040181905550817f06da3309189fa49284f335d2c2bcb4cb0b8ad2a59ad92a9bdebeeb8f1ceba511826040518082815260200191505060405180910390a25050565b6000600460008473ffffffffffffffffffffffffffffffffffffffff1673ffffffffffffffffffffffffffffffffffffffff16815260200190815260200160002060008373ffffffffffffffffffffffffffffffffffffffff1673ffffffffffffffffffffffffffffffffffffffff16815260200190815260200160002060009054906101000a900460ff16905092915050565b6000806001600084815260200190815260200160002060009054906101000a900473ffffffffffffffffffffffffffffffffffffffff169050600073ffffffffffffffffffffffffffffffffffffffff168173ffffffffffffffffffffffffffffffffffffffff161415915050919050565b600033905090565b816002600083815260200190815260200160002060006101000a81548173ffffffffffffffffffffffffffffffffffffffff021916908373ffffffffffffffffffffffffffffffffffffffff160217905550808273ffffffffffffffffffffffffffffffffffffffff1661266a836111cb565b73ffffffffffffffffffffffffffffffffffffffff167f8c5be1e5ebec7d5bd14f71427d1e84f3dd0314c0f7b2291e5b200ac8c7c3b92560405160405180910390a45050565b60006126bb8261257d565b612710576040517f08c379a000000000000000000000000000000000000000000000000000000000815260040180806020018281038252602c815260200180613b07602c913960400191505060405180910390fd5b600061271b836111cb565b90508073ffffffffffffffffffffffffffffffffffffffff168473ffffffffffffffffffffffffffffffffffffffff16148061278a57508373ffffffffffffffffffffffffffffffffffffffff1661277284610b1f565b73ffffffffffffffffffffffffffffffffffffffff16145b8061279b575061279a81856124e9565b5b91505092915050565b8273ffffffffffffffffffffffffffffffffffffffff166127c4826111cb565b73ffffffffffffffffffffffffffffffffffffffff1614612830576040517f08c379a0000000000000000000000000000000000000000000000000000000008152600401808060200182810382526029815260200180613c5d6029913960400191505060405180910390fd5b600073ffffffffffffffffffffffffffffffffffffffff168273ffffffffffffffffffffffffffffffffffffffff1614156128b6576040517f08c379a0000000000000000000000000000000000000000000000000000000008152600401808060200182810382526024815260200180613ae36024913960400191505060405180910390fd5b6128c1838383613241565b6128cc6000826125f7565b612913600360008573ffffffffffffffffffffffffffffffffffffffff1673ffffffffffffffffffffffffffffffffffffffff168152602001908152602001600020613246565b61295a600360008473ffffffffffffffffffffffffffffffffffffffff1673ffffffffffffffffffffffffffffffffffffffff168152602001908152602001600020613269565b816001600083815260200190815260200160002060006101000a81548173ffffffffffffffffffffffffffffffffffffffff021916908373ffffffffffffffffffffffffffffffffffffffff160217905550808273ffffffffffffffffffffffffffffffffffffffff168473ffffffffffffffffffffffffffffffffffffffff167fddf252ad1be2c89b69c2b068fc378daa952ba7f163c4a11628f55a4df523b3ef60405160405180910390a4505050565b6000612a676064670de0b6b3a76400006064424460405160200180838152602001828152602001925050506040516020818303038152906040528051906020012060001c81612a5757fe5b0602612d9690919063ffffffff16565b905090565b600080612a78836115e2565b915091508060068781548110612a8a57fe5b9060005260206000209060050201600401541015612af3576040517f08c379a0000000000000000000000000000000000000000000000000000000008152600401808060200182810382526029815260200180613ca76029913960400191505060405180910390fd5b8160068681548110612b0157fe5b9060005260206000209060050201600401541015612b6a576040517f08c379a0000000000000000000000000000000000000000000000000000000008152600401808060200182810382526026815260200180613a876026913960400191505060405180910390fd5b6000848714612b795781612b7b565b825b90506000878614612b8c5787612b8e565b865b905060068681548110612b9d57fe5b906000526020600020906005020160030160008154809291906001019190505550612bef8260068881548110612bcf57fe5b9060005260206000209060050201600401546131b990919063ffffffff16565b60068781548110612bfc57fe5b906000526020600020906005020160040181905550612c428260068381548110612c2257fe5b906000526020600020906005020160040154612cc690919063ffffffff16565b60068281548110612c4f57fe5b906000526020600020906005020160040181905550612c6d8661327f565b50877f9710e56297b5e8778d11e7e8579c9906ed103bf38376059777631205ff0c57788888604051808381526020018281526020019250505060405180910390a25050505050505050565b600081600001549050919050565b6000612d0883836040518060400160405280601e81526020017f536166654d6174683a207375627472616374696f6e206f766572666c6f7700008152506133bc565b905092915050565b600080831415612d235760009050612d90565b6000828402905082848281612d3457fe5b0414612d8b576040517f08c379a0000000000000000000000000000000000000000000000000000000008152600401808060200182810382526021815260200180613bec6021913960400191505060405180910390fd5b809150505b92915050565b6000612dd883836040518060400160405280601a81526020017f536166654d6174683a206469766973696f6e206279207a65726f00000000000081525061347c565b905092915050565b600080905060008090505b600780549050811015612f1d5760078181548110612e0557fe5b90600052602060002090600202016000016040516020018082805460018160011615610100020316600290048015612e745780601f10612e52576101008083540402835291820191612e74565b820191906000526020600020905b815481529060010190602001808311612e60575b505091505060405160208183030381529060405280519060200120836040516020018082805190602001908083835b60208310612ec65780518252602082019150602081019050602083039250612ea3565b6001836020036101000a038019825116818451168082178552505050505050905001915050604051602081830303815290604052805190602001201415612f105760019150612f1d565b8080600101915050612deb565b50919050565b600073ffffffffffffffffffffffffffffffffffffffff168273ffffffffffffffffffffffffffffffffffffffff161415612fc6576040517f08c379a00000000000000000000000000000000000000000000000000000000081526004018080602001828103825260208152602001807f4552433732313a206d696e7420746f20746865207a65726f206164647265737381525060200191505060405180910390fd5b612fcf8161257d565b15613042576040517f08c379a000000000000000000000000000000000000000000000000000000000815260040180806020018281038252601c8152602001807f4552433732313a20746f6b656e20616c7265616479206d696e7465640000000081525060200191505060405180910390fd5b61304e60008383613241565b816001600083815260200190815260200160002060006101000a81548173ffffffffffffffffffffffffffffffffffffffff021916908373ffffffffffffffffffffffffffffffffffffffff1602179055506130e7600360008473ffffffffffffffffffffffffffffffffffffffff1673ffffffffffffffffffffffffffffffffffffffff168152602001908152602001600020613269565b808273ffffffffffffffffffffffffffffffffffffffff16600073ffffffffffffffffffffffffffffffffffffffff167fddf252ad1be2c89b69c2b068fc378daa952ba7f163c4a11628f55a4df523b3ef60405160405180910390a45050565b6131528484846127a4565b61315e84848484613542565b6131b3576040517f08c379a0000000000000000000000000000000000000000000000000000000008152600401808060200182810382526032815260200180613a556032913960400191505060405180910390fd5b50505050565b600080828401905083811015613237576040517f08c379a000000000000000000000000000000000000000000000000000000000815260040180806020018281038252601b8152602001807f536166654d6174683a206164646974696f6e206f766572666c6f77000000000081525060200191505060405180910390fd5b8091505092915050565b505050565b61325e60018260000154612cc690919063ffffffff16565b816000018190555050565b6001816000016000828254019250508190555050565b6060600060016007805490500390505b600081106133b657600781815481106132a457fe5b906000526020600020906002020160010160009054906101000a900460ff1660ff16600684815481106132d357fe5b906000526020600020906005020160030154106133a857600781815481106132f757fe5b90600052602060002090600202016000018054600181600116156101000203166002900480601f01602080910402602001604051908101604052809291908181526020018280546001816001161561010002031660029004801561339c5780601f106133715761010080835404028352916020019161339c565b820191906000526020600020905b81548152906001019060200180831161337f57829003601f168201915b505050505091506133b6565b80806001900391505061328f565b50919050565b6000838311158290613469576040517f08c379a00000000000000000000000000000000000000000000000000000000081526004018080602001828103825283818151815260200191508051906020019080838360005b8381101561342e578082015181840152602081019050613413565b50505050905090810190601f16801561345b5780820380516001836020036101000a031916815260200191505b509250505060405180910390fd5b5060008385039050809150509392505050565b60008083118290613528576040517f08c379a00000000000000000000000000000000000000000000000000000000081526004018080602001828103825283818151815260200191508051906020019080838360005b838110156134ed5780820151818401526020810190506134d2565b50505050905090810190601f16801561351a5780820380516001836020036101000a031916815260200191505b509250505060405180910390fd5b50600083858161353457fe5b049050809150509392505050565b60006135638473ffffffffffffffffffffffffffffffffffffffff16613865565b613570576001905061385d565b600060608573ffffffffffffffffffffffffffffffffffffffff1663150b7a0260e01b61359b6125ef565b898888604051602401808573ffffffffffffffffffffffffffffffffffffffff1673ffffffffffffffffffffffffffffffffffffffff1681526020018473ffffffffffffffffffffffffffffffffffffffff1673ffffffffffffffffffffffffffffffffffffffff16815260200183815260200180602001828103825283818151815260200191508051906020019080838360005b8381101561364b578082015181840152602081019050613630565b50505050905090810190601f1680156136785780820380516001836020036101000a031916815260200191505b5095505050505050604051602081830303815290604052907bffffffffffffffffffffffffffffffffffffffffffffffffffffffff19166020820180517bffffffffffffffffffffffffffffffffffffffffffffffffffffffff83818316178352505050506040518082805190602001908083835b6020831061371057805182526020820191506020810190506020830392506136ed565b6001836020036101000a0380198251168184511680821785525050505050509050019150506000604051808303816000865af19150503d8060008114613772576040519150601f19603f3d011682016040523d82523d6000602084013e613777565b606091505b5091509150816137e5576000815111156137945780518082602001fd5b6040517f08c379a0000000000000000000000000000000000000000000000000000000008152600401808060200182810382526032815260200180613a556032913960400191505060405180910390fd5b60008180602001905160208110156137fc57600080fd5b8101908080519060200190929190505050905063150b7a0260e01b7bffffffffffffffffffffffffffffffffffffffffffffffffffffffff1916817bffffffffffffffffffffffffffffffffffffffffffffffffffffffff19161493505050505b949350505050565b60008060007fc5d2460186f7233c927e7db2dcc703c0e500b653ca82273b7bfad8045d85a47060001b9050833f91508082141580156138a757506000801b8214155b92505050919050565b828054600181600116156101000203166002900490600052602060002090601f016020900481019282601f106138f157803560ff191683800117855561391f565b8280016001018555821561391f579182015b8281111561391e578235825591602001919060010190613903565b5b50905061392c91906139df565b5090565b828054600181600116156101000203166002900490600052602060002090601f016020900481019282601f1061397157805160ff191683800117855561399f565b8280016001018555821561399f579182015b8281111561399e578251825591602001919060010190613983565b5b5090506139ac91906139df565b5090565b6040518060a0016040528060008152602001606081526020016060815260200160008152602001600081525090565b613a0191905b808211156139fd5760008160009055506001016139e5565b5090565b9056fe4465706f73697420616d6f756e74206c657373207468616e20746865206d696e696d756d5468652066796768746572206861736e277420656e6f75676820585020746f206368616e676520736b696e2e4552433732313a207472616e7366657220746f206e6f6e20455243373231526563656976657220696d706c656d656e74657254686520656e656d7920646f65736e2774206861766520656e6f7567682062616c616e63652e54686520667967687465722073686f756c642062652061206d617374657220746f2075736520746865206d617374657220736b696e2e4552433732313a207472616e7366657220746f20746865207a65726f20616464726573734552433732313a206f70657261746f7220717565727920666f72206e6f6e6578697374656e7420746f6b656e54686973206f706572616374696f6e206f6e6c792063616e20626520646f6e6520627920746865206f776e65722e4552433732313a20617070726f76652063616c6c6572206973206e6f74206f776e6572206e6f7220617070726f76656420666f7220616c6c4552433732313a2062616c616e636520717565727920666f7220746865207a65726f20616464726573734552433732313a206f776e657220717565727920666f72206e6f6e6578697374656e7420746f6b656e536166654d6174683a206d756c7469706c69636174696f6e206f766572666c6f774552433732313a20617070726f76656420717565727920666f72206e6f6e6578697374656e7420746f6b656e4561636820757365722063616e2068617665206a757374206f6e6520667967687465722e4552433732313a207472616e73666572206f6620746f6b656e2074686174206973206e6f74206f776e4552433732313a20617070726f76616c20746f2063757272656e74206f776e6572596f7572206679676874657220646f65736e2774206861766520656e6f7567682062616c616e63652e4552433732313a207472616e736665722063616c6c6572206973206e6f74206f776e6572206e6f7220617070726f766564a2646970667358221220f846a4d8de740fa61a8340cdaada54f3a0d8feeb66ea64de64bde90b4ac9996064736f6c63430006020033",
  "source": "pragma solidity 0.6.2;\n\nimport \"@openzeppelin/contracts/math/SafeMath.sol\";\nimport \"@openzeppelin/contracts/token/ERC721/ERC721.sol\";\nimport \"./Dai.sol\";\n\ncontract Fyghters is ERC721 {\n    using SafeMath for uint256;\n\n    uint8 constant ALL_SKINS_MIN_XP = 80;\n    uint8 constant MASTER_MIN_XP = 100;\n    string constant MASTER_SKIN = \"master\";\n    uint256 constant ONE = 1 * 10**18;\n    uint256 constant MIN_DEPOSIT = ONE * 5;\n    uint256 constant BET_VALUE = ONE * 5;\n\n    Dai private dai;\n\n    event FyghterCreated(address indexed owner, uint256 id, string name);\n    event ChallengeOccurred(uint256 indexed challengerId, uint256 targetId, uint256 winnerId);\n    event SkinChanged(uint256 indexed id, string newSkin);\n    event FyghterRenamed(uint256 indexed id, string newName);\n    event Deposited(uint256 indexed id, uint256 amount);\n    event Withdrawn(uint256 indexed id, uint256 amount);\n\n    struct Fyghter {\n        uint256 id;\n        string name;\n        string skin;\n        uint256 xp;\n        uint256 balance;\n    }\n\n    struct Skin {\n        string skin;\n        uint8 xpNeeded;\n    }\n\n    Fyghter[] public fyghters;\n    Skin[] public skins;\n\n    modifier onlyOwnerOf(uint256 _fyghterId) {\n        require(msg.sender == ownerOf(_fyghterId), \"This operaction only can be done by the owner.\");\n        _;\n    }\n\n    constructor(Dai _dai) public {\n        dai = _dai;\n\n        // Skins table\n        skins.push(Skin({skin: \"naked\", xpNeeded: 0}));\n        skins.push(Skin({skin: \"normal_guy\", xpNeeded: 10}));\n        skins.push(Skin({skin: \"karate_kid\", xpNeeded: 15}));\n        skins.push(Skin({skin: \"japonese\", xpNeeded: 25}));\n        skins.push(Skin({skin: \"monk\", xpNeeded: 40}));\n        skins.push(Skin({skin: \"ninja\", xpNeeded: 50}));\n        skins.push(Skin({skin: \"no_one\", xpNeeded: ALL_SKINS_MIN_XP}));\n        skins.push(Skin({skin: \"demon\", xpNeeded: 80}));\n        skins.push(Skin({skin: MASTER_SKIN, xpNeeded: MASTER_MIN_XP}));\n    }\n\n    function getMinimumDeposit() external pure returns (uint256) {\n        return MIN_DEPOSIT;\n    }\n\n    function getBetValue() external pure returns (uint256) {\n        return BET_VALUE;\n    }\n\n    function create(string calldata _name) external {\n        require(balanceOf(msg.sender) == 0, \"Each user can have just one fyghter.\");\n\n        uint256 _id = fyghters.length;\n        fyghters.push(Fyghter({id: _id, name: _name, skin: skins[0].skin, xp: 1, balance: 0}));\n        _mint(msg.sender, _id);\n        emit FyghterCreated(msg.sender, _id, _name);\n    }\n\n    function deposit(uint256 _fyghterId, uint256 _amount) external {\n        require(dai.transferFrom(msg.sender, address(this), _amount), \"Deposit transfer with error.\");\n        require(_amount >= MIN_DEPOSIT, \"Deposit amount less than the minimum\");\n        fyghters[_fyghterId].balance = fyghters[_fyghterId].balance.add(_amount);\n        emit Deposited(_fyghterId, _amount);\n    }\n\n    function withdrawAll(uint256 _fyghterId) external onlyOwnerOf(_fyghterId) {\n        uint256 balance = fyghters[_fyghterId].balance;\n        fyghters[_fyghterId].balance = 0;\n        require(dai.transfer(msg.sender, balance), \"Withdraw transfer with error.\");\n        emit Withdrawn(_fyghterId, balance);\n    }\n\n    function rename(uint256 _fyghterId, string calldata _newName) external onlyOwnerOf(_fyghterId) {\n        fyghters[_fyghterId].name = _newName;\n        emit FyghterRenamed(_fyghterId, _newName);\n    }\n\n    function calculateGainAndLoss(uint256 _winProbability) public pure returns (uint256 gainIfWin, uint256 lossIfLose) {\n        gainIfWin = BET_VALUE.mul(ONE.sub(_winProbability)).div(ONE);\n        lossIfLose = BET_VALUE.mul(_winProbability).div(ONE);\n    }\n\n    function challenge(uint256 _challengerId, uint256 _targetId) external onlyOwnerOf(_challengerId) {\n        uint256 winProbability = calculateWinProbability(_challengerId, _targetId);\n        uint256 winnerId = (_random() <= winProbability) ? _challengerId : _targetId;\n\n        processChallengeResult(_challengerId, _targetId, winnerId, winProbability);\n    }\n\n    function processChallengeResult(\n        uint256 _challengerId,\n        uint256 _targetId,\n        uint256 _winnerId,\n        uint256 _winProbability\n    ) internal {\n        (uint256 gainIfWin, uint256 lossIfLose) = calculateGainAndLoss(_winProbability);\n\n        require(fyghters[_challengerId].balance >= lossIfLose, \"Your fyghter doesn't have enough balance.\");\n        require(fyghters[_targetId].balance >= gainIfWin, \"The enemy doesn't have enough balance.\");\n\n        uint256 prize = (_challengerId == _winnerId) ? gainIfWin : lossIfLose;\n        uint256 loserId = _winnerId == _challengerId ? _targetId : _challengerId;\n\n        fyghters[_winnerId].xp++;\n        fyghters[_winnerId].balance = fyghters[_winnerId].balance.add(prize);\n        fyghters[loserId].balance = fyghters[loserId].balance.sub(prize);\n\n        _checkForSkinUpdate(_winnerId);\n\n        emit ChallengeOccurred(_challengerId, _targetId, _winnerId);\n    }\n\n    function changeSkin(uint256 _fyghterId, string calldata _newSkin) external onlyOwnerOf(_fyghterId) {\n        Fyghter storage fyghter = fyghters[_fyghterId];\n        require(fyghter.xp >= ALL_SKINS_MIN_XP, \"The fyghter hasn't enough XP to change skin.\");\n\n        require(_isSkinValid(_newSkin), \"Invalid skin.\");\n\n        if (keccak256(abi.encodePacked(_newSkin)) == keccak256(abi.encodePacked(MASTER_SKIN))) {\n            require(fyghter.xp >= MASTER_MIN_XP, \"The fyghter should be a master to use the master skin.\");\n        }\n\n        fyghters[_fyghterId].skin = _newSkin;\n\n        emit SkinChanged(_fyghterId, _newSkin);\n    }\n\n    function calculateWinProbability(uint256 _challengerId, uint256 _targetId)\n        public\n        view\n        returns (uint256 winProbability)\n    {\n        Fyghter memory challenger = fyghters[_challengerId];\n        Fyghter memory target = fyghters[_targetId];\n\n        winProbability = challenger.xp.mul(ONE).div(challenger.xp.add(target.xp));\n    }\n\n    function _checkForSkinUpdate(uint256 _fyghterId) internal view returns (string memory newSkin) {\n        for (uint256 i = skins.length - 1; i >= 0; i--) {\n            if (fyghters[_fyghterId].xp >= skins[i].xpNeeded) {\n                newSkin = skins[i].skin;\n                break;\n            }\n        }\n    }\n\n    /*\n    * Note: It isn't a safe way to generate random number.\n    * See more: https://github.com/marcelomorgado/fyght/issues/71\n    */\n    function _random() internal view returns (uint256) {\n        return ((uint256(keccak256(abi.encodePacked(block.timestamp, block.difficulty))) % 100) * ONE).div(100);\n    }\n\n    function _isSkinValid(string memory skin) private view returns (bool isSkinValid) {\n        isSkinValid = false;\n        for (uint256 i = 0; i < skins.length; i++) {\n            if (keccak256(abi.encodePacked(skin)) == keccak256(abi.encodePacked(skins[i].skin))) {\n                isSkinValid = true;\n                break;\n            }\n        }\n    }\n\n}\n",
  "sourcePath": "/home/cmarcelo/git/fyght/packages/contracts/contracts/Fyghters.sol",
  "compiler": {
    "name": "solc",
    "version": "0.6.2+commit.bacdbe57.Emscripten.clang"
  },
  "schemaVersion": "3.0.23",
  "updatedAt": "2020-03-23T19:14:44.650Z",
  "networkType": "ethereum",
  "devdoc": {
    "methods": {
      "approve(address,uint256)": {
        "details": "Approves another address to transfer the given token ID The zero address indicates there is no approved address. There can only be one approved address per token at a given time. Can only be called by the token owner or an approved operator.",
        "params": {
          "to": "address to be approved for the given token ID",
          "tokenId": "uint256 ID of the token to be approved"
        }
      },
      "balanceOf(address)": {
        "details": "Gets the balance of the specified address.",
        "params": {
          "owner": "address to query the balance of"
        },
        "returns": {
          "_0": "uint256 representing the amount owned by the passed address"
        }
      },
      "getApproved(uint256)": {
        "details": "Gets the approved address for a token ID, or zero if no address set Reverts if the token ID does not exist.",
        "params": {
          "tokenId": "uint256 ID of the token to query the approval of"
        },
        "returns": {
          "_0": "address currently approved for the given token ID"
        }
      },
      "isApprovedForAll(address,address)": {
        "details": "Tells whether an operator is approved by a given owner.",
        "params": {
          "operator": "operator address which you want to query the approval of",
          "owner": "owner address which you want to query the approval of"
        },
        "returns": {
          "_0": "bool whether the given operator is approved by the given owner"
        }
      },
      "ownerOf(uint256)": {
        "details": "Gets the owner of the specified token ID.",
        "params": {
          "tokenId": "uint256 ID of the token to query the owner of"
        },
        "returns": {
          "_0": "address currently marked as the owner of the given token ID"
        }
      },
      "safeTransferFrom(address,address,uint256)": {
        "details": "Safely transfers the ownership of a given token ID to another address If the target address is a contract, it must implement {IERC721Receiver-onERC721Received}, which is called upon a safe transfer, and return the magic value `bytes4(keccak256(\"onERC721Received(address,address,uint256,bytes)\"))`; otherwise, the transfer is reverted. Requires the msg.sender to be the owner, approved, or operator",
        "params": {
          "from": "current owner of the token",
          "to": "address to receive the ownership of the given token ID",
          "tokenId": "uint256 ID of the token to be transferred"
        }
      },
      "safeTransferFrom(address,address,uint256,bytes)": {
        "details": "Safely transfers the ownership of a given token ID to another address If the target address is a contract, it must implement {IERC721Receiver-onERC721Received}, which is called upon a safe transfer, and return the magic value `bytes4(keccak256(\"onERC721Received(address,address,uint256,bytes)\"))`; otherwise, the transfer is reverted. Requires the _msgSender() to be the owner, approved, or operator",
        "params": {
          "_data": "bytes data to send along with a safe transfer check",
          "from": "current owner of the token",
          "to": "address to receive the ownership of the given token ID",
          "tokenId": "uint256 ID of the token to be transferred"
        }
      },
      "setApprovalForAll(address,bool)": {
        "details": "Sets or unsets the approval of a given operator An operator is allowed to transfer all tokens of the sender on their behalf.",
        "params": {
          "approved": "representing the status of the approval to be set",
          "operator": "operator address to set the approval"
        }
      },
      "supportsInterface(bytes4)": {
        "details": "See {IERC165-supportsInterface}.     * Time complexity O(1), guaranteed to always use less than 30 000 gas."
      },
      "transferFrom(address,address,uint256)": {
        "details": "Transfers the ownership of a given token ID to another address. Usage of this method is discouraged, use {safeTransferFrom} whenever possible. Requires the msg.sender to be the owner, approved, or operator.",
        "params": {
          "from": "current owner of the token",
          "to": "address to receive the ownership of the given token ID",
          "tokenId": "uint256 ID of the token to be transferred"
        }
      }
    }
  },
  "userdoc": {
    "methods": {}
  }
}