{
  "contractName": "Fyghters",
  "abi": [
    {
      "inputs": [
        {
          "internalType": "contract Dai",
          "name": "_dai",
          "type": "address"
        }
      ],
      "stateMutability": "nonpayable",
      "type": "constructor"
    },
    {
      "anonymous": false,
      "inputs": [
        {
          "indexed": true,
          "internalType": "address",
          "name": "owner",
          "type": "address"
        },
        {
          "indexed": true,
          "internalType": "address",
          "name": "approved",
          "type": "address"
        },
        {
          "indexed": true,
          "internalType": "uint256",
          "name": "tokenId",
          "type": "uint256"
        }
      ],
      "name": "Approval",
      "type": "event"
    },
    {
      "anonymous": false,
      "inputs": [
        {
          "indexed": true,
          "internalType": "address",
          "name": "owner",
          "type": "address"
        },
        {
          "indexed": true,
          "internalType": "address",
          "name": "operator",
          "type": "address"
        },
        {
          "indexed": false,
          "internalType": "bool",
          "name": "approved",
          "type": "bool"
        }
      ],
      "name": "ApprovalForAll",
      "type": "event"
    },
    {
      "anonymous": false,
      "inputs": [
        {
          "indexed": true,
          "internalType": "uint256",
          "name": "challengerId",
          "type": "uint256"
        },
        {
          "indexed": false,
          "internalType": "uint256",
          "name": "targetId",
          "type": "uint256"
        },
        {
          "indexed": false,
          "internalType": "uint256",
          "name": "winnerId",
          "type": "uint256"
        }
      ],
      "name": "ChallengeOccurred",
      "type": "event"
    },
    {
      "anonymous": false,
      "inputs": [
        {
          "indexed": true,
          "internalType": "address",
          "name": "owner",
          "type": "address"
        },
        {
          "indexed": false,
          "internalType": "uint256",
          "name": "id",
          "type": "uint256"
        },
        {
          "indexed": false,
          "internalType": "string",
          "name": "name",
          "type": "string"
        }
      ],
      "name": "FyghterCreated",
      "type": "event"
    },
    {
      "anonymous": false,
      "inputs": [
        {
          "indexed": true,
          "internalType": "uint256",
          "name": "id",
          "type": "uint256"
        },
        {
          "indexed": false,
          "internalType": "string",
          "name": "newName",
          "type": "string"
        }
      ],
      "name": "FyghterRenamed",
      "type": "event"
    },
    {
      "anonymous": false,
      "inputs": [
        {
          "indexed": true,
          "internalType": "uint256",
          "name": "id",
          "type": "uint256"
        },
        {
          "indexed": false,
          "internalType": "string",
          "name": "newSkin",
          "type": "string"
        }
      ],
      "name": "SkinChanged",
      "type": "event"
    },
    {
      "anonymous": false,
      "inputs": [
        {
          "indexed": true,
          "internalType": "address",
          "name": "from",
          "type": "address"
        },
        {
          "indexed": true,
          "internalType": "address",
          "name": "to",
          "type": "address"
        },
        {
          "indexed": true,
          "internalType": "uint256",
          "name": "tokenId",
          "type": "uint256"
        }
      ],
      "name": "Transfer",
      "type": "event"
    },
    {
      "inputs": [
        {
          "internalType": "address",
          "name": "to",
          "type": "address"
        },
        {
          "internalType": "uint256",
          "name": "tokenId",
          "type": "uint256"
        }
      ],
      "name": "approve",
      "outputs": [],
      "stateMutability": "nonpayable",
      "type": "function"
    },
    {
      "inputs": [
        {
          "internalType": "address",
          "name": "owner",
          "type": "address"
        }
      ],
      "name": "balanceOf",
      "outputs": [
        {
          "internalType": "uint256",
          "name": "",
          "type": "uint256"
        }
      ],
      "stateMutability": "view",
      "type": "function",
      "constant": true
    },
    {
      "inputs": [
        {
          "internalType": "uint256",
          "name": "",
          "type": "uint256"
        }
      ],
      "name": "fyghters",
      "outputs": [
        {
          "internalType": "uint256",
          "name": "id",
          "type": "uint256"
        },
        {
          "internalType": "string",
          "name": "name",
          "type": "string"
        },
        {
          "internalType": "string",
          "name": "skin",
          "type": "string"
        },
        {
          "internalType": "uint256",
          "name": "xp",
          "type": "uint256"
        },
        {
          "internalType": "uint256",
          "name": "balance",
          "type": "uint256"
        }
      ],
      "stateMutability": "view",
      "type": "function",
      "constant": true
    },
    {
      "inputs": [
        {
          "internalType": "uint256",
          "name": "tokenId",
          "type": "uint256"
        }
      ],
      "name": "getApproved",
      "outputs": [
        {
          "internalType": "address",
          "name": "",
          "type": "address"
        }
      ],
      "stateMutability": "view",
      "type": "function",
      "constant": true
    },
    {
      "inputs": [
        {
          "internalType": "address",
          "name": "owner",
          "type": "address"
        },
        {
          "internalType": "address",
          "name": "operator",
          "type": "address"
        }
      ],
      "name": "isApprovedForAll",
      "outputs": [
        {
          "internalType": "bool",
          "name": "",
          "type": "bool"
        }
      ],
      "stateMutability": "view",
      "type": "function",
      "constant": true
    },
    {
      "inputs": [
        {
          "internalType": "uint256",
          "name": "tokenId",
          "type": "uint256"
        }
      ],
      "name": "ownerOf",
      "outputs": [
        {
          "internalType": "address",
          "name": "",
          "type": "address"
        }
      ],
      "stateMutability": "view",
      "type": "function",
      "constant": true
    },
    {
      "inputs": [
        {
          "internalType": "address",
          "name": "from",
          "type": "address"
        },
        {
          "internalType": "address",
          "name": "to",
          "type": "address"
        },
        {
          "internalType": "uint256",
          "name": "tokenId",
          "type": "uint256"
        }
      ],
      "name": "safeTransferFrom",
      "outputs": [],
      "stateMutability": "nonpayable",
      "type": "function"
    },
    {
      "inputs": [
        {
          "internalType": "address",
          "name": "from",
          "type": "address"
        },
        {
          "internalType": "address",
          "name": "to",
          "type": "address"
        },
        {
          "internalType": "uint256",
          "name": "tokenId",
          "type": "uint256"
        },
        {
          "internalType": "bytes",
          "name": "_data",
          "type": "bytes"
        }
      ],
      "name": "safeTransferFrom",
      "outputs": [],
      "stateMutability": "nonpayable",
      "type": "function"
    },
    {
      "inputs": [
        {
          "internalType": "address",
          "name": "operator",
          "type": "address"
        },
        {
          "internalType": "bool",
          "name": "approved",
          "type": "bool"
        }
      ],
      "name": "setApprovalForAll",
      "outputs": [],
      "stateMutability": "nonpayable",
      "type": "function"
    },
    {
      "inputs": [
        {
          "internalType": "uint256",
          "name": "",
          "type": "uint256"
        }
      ],
      "name": "skins",
      "outputs": [
        {
          "internalType": "string",
          "name": "skin",
          "type": "string"
        },
        {
          "internalType": "uint8",
          "name": "xpNeeded",
          "type": "uint8"
        }
      ],
      "stateMutability": "view",
      "type": "function",
      "constant": true
    },
    {
      "inputs": [
        {
          "internalType": "bytes4",
          "name": "interfaceId",
          "type": "bytes4"
        }
      ],
      "name": "supportsInterface",
      "outputs": [
        {
          "internalType": "bool",
          "name": "",
          "type": "bool"
        }
      ],
      "stateMutability": "view",
      "type": "function",
      "constant": true
    },
    {
      "inputs": [
        {
          "internalType": "address",
          "name": "from",
          "type": "address"
        },
        {
          "internalType": "address",
          "name": "to",
          "type": "address"
        },
        {
          "internalType": "uint256",
          "name": "tokenId",
          "type": "uint256"
        }
      ],
      "name": "transferFrom",
      "outputs": [],
      "stateMutability": "nonpayable",
      "type": "function"
    },
    {
      "inputs": [
        {
          "internalType": "string",
          "name": "_name",
          "type": "string"
        }
      ],
      "name": "create",
      "outputs": [],
      "stateMutability": "nonpayable",
      "type": "function"
    },
    {
      "inputs": [
        {
          "internalType": "uint256",
          "name": "_fyghterId",
          "type": "uint256"
        },
        {
          "internalType": "string",
          "name": "_newName",
          "type": "string"
        }
      ],
      "name": "rename",
      "outputs": [],
      "stateMutability": "nonpayable",
      "type": "function"
    },
    {
      "inputs": [
        {
          "internalType": "uint256",
          "name": "_challengerId",
          "type": "uint256"
        },
        {
          "internalType": "uint256",
          "name": "_targetId",
          "type": "uint256"
        }
      ],
      "name": "challenge",
      "outputs": [],
      "stateMutability": "nonpayable",
      "type": "function"
    },
    {
      "inputs": [
        {
          "internalType": "uint256",
          "name": "_fyghterId",
          "type": "uint256"
        },
        {
          "internalType": "string",
          "name": "_newSkin",
          "type": "string"
        }
      ],
      "name": "changeSkin",
      "outputs": [],
      "stateMutability": "nonpayable",
      "type": "function"
    },
    {
      "inputs": [
        {
          "internalType": "uint256",
          "name": "_challengerId",
          "type": "uint256"
        },
        {
          "internalType": "uint256",
          "name": "_targetId",
          "type": "uint256"
        }
      ],
      "name": "calculateChallengerProbability",
      "outputs": [
        {
          "internalType": "uint256",
          "name": "winProbability",
          "type": "uint256"
        }
      ],
      "stateMutability": "view",
      "type": "function",
      "constant": true
    }
  ],
  "bytecode": "0x60806040523480156200001157600080fd5b506040516200407338038062004073833981810160405260208110156200003757600080fd5b8101908080519060200190929190505050620000606301ffc9a760e01b6200075360201b60201c565b620000786380ac58cd60e01b6200075360201b60201c565b80600560006101000a81548173ffffffffffffffffffffffffffffffffffffffff021916908373ffffffffffffffffffffffffffffffffffffffff160217905550600760405180604001604052806040518060400160405280600581526020017f6e616b65640000000000000000000000000000000000000000000000000000008152508152602001600060ff1681525090806001815401808255809150506001900390600052602060002090600202016000909190919091506000820151816000019080519060200190620001509291906200085c565b5060208201518160010160006101000a81548160ff021916908360ff1602179055505050600760405180604001604052806040518060400160405280600a81526020017f6e6f726d616c5f677579000000000000000000000000000000000000000000008152508152602001600a60ff16815250908060018154018082558091505060019003906000526020600020906002020160009091909190915060008201518160000190805190602001906200020b9291906200085c565b5060208201518160010160006101000a81548160ff021916908360ff1602179055505050600760405180604001604052806040518060400160405280600a81526020017f6b61726174655f6b6964000000000000000000000000000000000000000000008152508152602001600f60ff1681525090806001815401808255809150506001900390600052602060002090600202016000909190919091506000820151816000019080519060200190620002c69291906200085c565b5060208201518160010160006101000a81548160ff021916908360ff1602179055505050600760405180604001604052806040518060400160405280600881526020017f6a61706f6e6573650000000000000000000000000000000000000000000000008152508152602001601960ff1681525090806001815401808255809150506001900390600052602060002090600202016000909190919091506000820151816000019080519060200190620003819291906200085c565b5060208201518160010160006101000a81548160ff021916908360ff1602179055505050600760405180604001604052806040518060400160405280600481526020017f6d6f6e6b000000000000000000000000000000000000000000000000000000008152508152602001602860ff16815250908060018154018082558091505060019003906000526020600020906002020160009091909190915060008201518160000190805190602001906200043c9291906200085c565b5060208201518160010160006101000a81548160ff021916908360ff1602179055505050600760405180604001604052806040518060400160405280600581526020017f6e696e6a610000000000000000000000000000000000000000000000000000008152508152602001603260ff1681525090806001815401808255809150506001900390600052602060002090600202016000909190919091506000820151816000019080519060200190620004f79291906200085c565b5060208201518160010160006101000a81548160ff021916908360ff1602179055505050600760405180604001604052806040518060400160405280600681526020017f6e6f5f6f6e6500000000000000000000000000000000000000000000000000008152508152602001605060ff1681525090806001815401808255809150506001900390600052602060002090600202016000909190919091506000820151816000019080519060200190620005b29291906200085c565b5060208201518160010160006101000a81548160ff021916908360ff1602179055505050600760405180604001604052806040518060400160405280600581526020017f64656d6f6e0000000000000000000000000000000000000000000000000000008152508152602001605060ff16815250908060018154018082558091505060019003906000526020600020906002020160009091909190915060008201518160000190805190602001906200066d9291906200085c565b5060208201518160010160006101000a81548160ff021916908360ff1602179055505050600760405180604001604052806040518060400160405280600681526020017f6d617374657200000000000000000000000000000000000000000000000000008152508152602001606460ff1681525090806001815401808255809150506001900390600052602060002090600202016000909190919091506000820151816000019080519060200190620007289291906200085c565b5060208201518160010160006101000a81548160ff021916908360ff1602179055505050506200090b565b63ffffffff60e01b817bffffffffffffffffffffffffffffffffffffffffffffffffffffffff19161415620007f0576040517f08c379a000000000000000000000000000000000000000000000000000000000815260040180806020018281038252601c8152602001807f4552433136353a20696e76616c696420696e746572666163652069640000000081525060200191505060405180910390fd5b6001600080837bffffffffffffffffffffffffffffffffffffffffffffffffffffffff19167bffffffffffffffffffffffffffffffffffffffffffffffffffffffff1916815260200190815260200160002060006101000a81548160ff02191690831515021790555050565b828054600181600116156101000203166002900490600052602060002090601f016020900481019282601f106200089f57805160ff1916838001178555620008d0565b82800160010185558215620008d0579182015b82811115620008cf578251825591602001919060010190620008b2565b5b509050620008df9190620008e3565b5090565b6200090891905b8082111562000904576000816000905550600101620008ea565b5090565b90565b613758806200091b6000396000f3fe608060405234801561001057600080fd5b506004361061010b5760003560e01c806342842e0e116100a2578063a22cb46511610071578063a22cb465146106b6578063a916353614610706578063b6a46b3b14610789578063b88d4fde14610802578063e985e9c5146109075761010b565b806342842e0e1461045a57806349b640c5146104c85780636352211e146105f057806370a082311461065e5761010b565b80632ca86c1e116100de5780632ca86c1e1461029f5780632db2ede5146102eb5780632e4148901461039f5780633ec2d836146103d75761010b565b806301ffc9a714610110578063081812fc14610175578063095ea7b3146101e357806323b872dd14610231575b600080fd5b61015b6004803603602081101561012657600080fd5b8101908080357bffffffffffffffffffffffffffffffffffffffffffffffffffffffff19169060200190929190505050610983565b604051808215151515815260200191505060405180910390f35b6101a16004803603602081101561018b57600080fd5b81019080803590602001909291905050506109ea565b604051808273ffffffffffffffffffffffffffffffffffffffff1673ffffffffffffffffffffffffffffffffffffffff16815260200191505060405180910390f35b61022f600480360360408110156101f957600080fd5b81019080803573ffffffffffffffffffffffffffffffffffffffff16906020019092919080359060200190929190505050610a85565b005b61029d6004803603606081101561024757600080fd5b81019080803573ffffffffffffffffffffffffffffffffffffffff169060200190929190803573ffffffffffffffffffffffffffffffffffffffff16906020019092919080359060200190929190505050610bc9565b005b6102d5600480360360408110156102b557600080fd5b810190808035906020019092919080359060200190929190505050610c3f565b6040518082815260200191505060405180910390f35b6103176004803603602081101561030157600080fd5b8101908080359060200190929190505050610fcd565b60405180806020018360ff1660ff168152602001828103825284818151815260200191508051906020019080838360005b83811015610363578082015181840152602081019050610348565b50505050905090810190601f1680156103905780820380516001836020036101000a031916815260200191505b50935050505060405180910390f35b6103d5600480360360408110156103b557600080fd5b8101908080359060200190929190803590602001909291905050506110a3565b005b610458600480360360408110156103ed57600080fd5b81019080803590602001909291908035906020019064010000000081111561041457600080fd5b82018360208201111561042657600080fd5b8035906020019184600183028401116401000000008311171561044857600080fd5b90919293919293905050506111d8565b005b6104c66004803603606081101561047057600080fd5b81019080803573ffffffffffffffffffffffffffffffffffffffff169060200190929190803573ffffffffffffffffffffffffffffffffffffffff169060200190929190803590602001909291905050506112fd565b005b6104f4600480360360208110156104de57600080fd5b810190808035906020019092919050505061131d565b604051808681526020018060200180602001858152602001848152602001838103835287818151815260200191508051906020019080838360005b8381101561054a57808201518184015260208101905061052f565b50505050905090810190601f1680156105775780820380516001836020036101000a031916815260200191505b50838103825286818151815260200191508051906020019080838360005b838110156105b0578082015181840152602081019050610595565b50505050905090810190601f1680156105dd5780820380516001836020036101000a031916815260200191505b5097505050505050505060405180910390f35b61061c6004803603602081101561060657600080fd5b8101908080359060200190929190505050611490565b604051808273ffffffffffffffffffffffffffffffffffffffff1673ffffffffffffffffffffffffffffffffffffffff16815260200191505060405180910390f35b6106a06004803603602081101561067457600080fd5b81019080803573ffffffffffffffffffffffffffffffffffffffff169060200190929190505050611558565b6040518082815260200191505060405180910390f35b610704600480360360408110156106cc57600080fd5b81019080803573ffffffffffffffffffffffffffffffffffffffff16906020019092919080351515906020019092919050505061162d565b005b6107876004803603604081101561071c57600080fd5b81019080803590602001909291908035906020019064010000000081111561074357600080fd5b82018360208201111561075557600080fd5b8035906020019184600183028401116401000000008311171561077757600080fd5b90919293919293905050506117e5565b005b6108006004803603602081101561079f57600080fd5b81019080803590602001906401000000008111156107bc57600080fd5b8201836020820111156107ce57600080fd5b803590602001918460018302840111640100000000831117156107f057600080fd5b9091929391929390505050611b89565b005b6109056004803603608081101561081857600080fd5b81019080803573ffffffffffffffffffffffffffffffffffffffff169060200190929190803573ffffffffffffffffffffffffffffffffffffffff169060200190929190803590602001909291908035906020019064010000000081111561087f57600080fd5b82018360208201111561089157600080fd5b803590602001918460018302840111640100000000831117156108b357600080fd5b91908080601f016020809104026020016040519081016040528093929190818152602001838380828437600081840152601f19601f82011690508083019250505050505050919291929050505061213e565b005b6109696004803603604081101561091d57600080fd5b81019080803573ffffffffffffffffffffffffffffffffffffffff169060200190929190803573ffffffffffffffffffffffffffffffffffffffff1690602001909291905050506121b6565b604051808215151515815260200191505060405180910390f35b6000806000837bffffffffffffffffffffffffffffffffffffffffffffffffffffffff19167bffffffffffffffffffffffffffffffffffffffffffffffffffffffff1916815260200190815260200160002060009054906101000a900460ff169050919050565b60006109f58261224a565b610a4a576040517f08c379a000000000000000000000000000000000000000000000000000000000815260040180806020018281038252602c81526020018061362c602c913960400191505060405180910390fd5b6002600083815260200190815260200160002060009054906101000a900473ffffffffffffffffffffffffffffffffffffffff169050919050565b6000610a9082611490565b90508073ffffffffffffffffffffffffffffffffffffffff168373ffffffffffffffffffffffffffffffffffffffff161415610b17576040517f08c379a00000000000000000000000000000000000000000000000000000000081526004018080602001828103825260218152602001806136a56021913960400191505060405180910390fd5b8073ffffffffffffffffffffffffffffffffffffffff16610b366122bc565b73ffffffffffffffffffffffffffffffffffffffff161480610b655750610b6481610b5f6122bc565b6121b6565b5b610bba576040517f08c379a00000000000000000000000000000000000000000000000000000000081526004018080602001828103825260388152602001806135806038913960400191505060405180910390fd5b610bc483836122c4565b505050565b610bda610bd46122bc565b8261237d565b610c2f576040517f08c379a00000000000000000000000000000000000000000000000000000000081526004018080602001828103825260318152602001806136c66031913960400191505060405180910390fd5b610c3a838383612471565b505050565b6000610c4961331e565b60068481548110610c5657fe5b90600052602060002090600502016040518060a001604052908160008201548152602001600182018054600181600116156101000203166002900480601f016020809104026020016040519081016040528092919081815260200182805460018160011615610100020316600290048015610d125780601f10610ce757610100808354040283529160200191610d12565b820191906000526020600020905b815481529060010190602001808311610cf557829003601f168201915b50505050508152602001600282018054600181600116156101000203166002900480601f016020809104026020016040519081016040528092919081815260200182805460018160011615610100020316600290048015610db45780601f10610d8957610100808354040283529160200191610db4565b820191906000526020600020905b815481529060010190602001808311610d9757829003601f168201915b50505050508152602001600382015481526020016004820154815250509050610ddb61331e565b60068481548110610de857fe5b90600052602060002090600502016040518060a001604052908160008201548152602001600182018054600181600116156101000203166002900480601f016020809104026020016040519081016040528092919081815260200182805460018160011615610100020316600290048015610ea45780601f10610e7957610100808354040283529160200191610ea4565b820191906000526020600020905b815481529060010190602001808311610e8757829003601f168201915b50505050508152602001600282018054600181600116156101000203166002900480601f016020809104026020016040519081016040528092919081815260200182805460018160011615610100020316600290048015610f465780601f10610f1b57610100808354040283529160200191610f46565b820191906000526020600020905b815481529060010190602001808311610f2957829003601f168201915b50505050508152602001600382015481526020016004820154815250509050610fc36064610fb5610f88846060015186606001516126d990919063ffffffff16565b610fa7670de0b6b3a7640000876060015161276190919063ffffffff16565b6127e790919063ffffffff16565b61276190919063ffffffff16565b9250505092915050565b60078181548110610fda57fe5b9060005260206000209060020201600091509050806000018054600181600116156101000203166002900480601f0160208091040260200160405190810160405280929190818152602001828054600181600116156101000203166002900480156110865780601f1061105b57610100808354040283529160200191611086565b820191906000526020600020905b81548152906001019060200180831161106957829003601f168201915b5050505050908060010160009054906101000a900460ff16905082565b816110ad81611490565b73ffffffffffffffffffffffffffffffffffffffff163373ffffffffffffffffffffffffffffffffffffffff1614611130576040517f08c379a000000000000000000000000000000000000000000000000000000000815260040180806020018281038252602e81526020018061352b602e913960400191505060405180910390fd5b600061113c8484610c3f565b9050600081611149612831565b11156111555783611157565b845b90506006818154811061116657fe5b9060005260206000209060050201600301600081548092919060010191905055506111908161287e565b50847f9710e56297b5e8778d11e7e8579c9906ed103bf38376059777631205ff0c57788583604051808381526020018281526020019250505060405180910390a25050505050565b826111e281611490565b73ffffffffffffffffffffffffffffffffffffffff163373ffffffffffffffffffffffffffffffffffffffff1614611265576040517f08c379a000000000000000000000000000000000000000000000000000000000815260040180806020018281038252602e81526020018061352b602e913960400191505060405180910390fd5b82826006868154811061127457fe5b9060005260206000209060050201600101919061129292919061334d565b50837f553656c6feb05b3e720bd33ad52f9cc39bc80982fb434f80e81391abc4c9dda5848460405180806020018281038252848482818152602001925080828437600081840152601f19601f820116905080830192505050935050505060405180910390a250505050565b6113188383836040518060200160405280600081525061213e565b505050565b6006818154811061132a57fe5b9060005260206000209060050201600091509050806000015490806001018054600181600116156101000203166002900480601f0160208091040260200160405190810160405280929190818152602001828054600181600116156101000203166002900480156113dc5780601f106113b1576101008083540402835291602001916113dc565b820191906000526020600020905b8154815290600101906020018083116113bf57829003601f168201915b505050505090806002018054600181600116156101000203166002900480601f01602080910402602001604051908101604052809291908181526020018280546001816001161561010002031660029004801561147a5780601f1061144f5761010080835404028352916020019161147a565b820191906000526020600020905b81548152906001019060200180831161145d57829003601f168201915b5050505050908060030154908060040154905085565b6000806001600084815260200190815260200160002060009054906101000a900473ffffffffffffffffffffffffffffffffffffffff169050600073ffffffffffffffffffffffffffffffffffffffff168173ffffffffffffffffffffffffffffffffffffffff16141561154f576040517f08c379a00000000000000000000000000000000000000000000000000000000081526004018080602001828103825260298152602001806135e26029913960400191505060405180910390fd5b80915050919050565b60008073ffffffffffffffffffffffffffffffffffffffff168273ffffffffffffffffffffffffffffffffffffffff1614156115df576040517f08c379a000000000000000000000000000000000000000000000000000000000815260040180806020018281038252602a8152602001806135b8602a913960400191505060405180910390fd5b611626600360008473ffffffffffffffffffffffffffffffffffffffff1673ffffffffffffffffffffffffffffffffffffffff1681526020019081526020016000206129bb565b9050919050565b6116356122bc565b73ffffffffffffffffffffffffffffffffffffffff168273ffffffffffffffffffffffffffffffffffffffff1614156116d6576040517f08c379a00000000000000000000000000000000000000000000000000000000081526004018080602001828103825260198152602001807f4552433732313a20617070726f766520746f2063616c6c65720000000000000081525060200191505060405180910390fd5b80600460006116e36122bc565b73ffffffffffffffffffffffffffffffffffffffff1673ffffffffffffffffffffffffffffffffffffffff16815260200190815260200160002060008473ffffffffffffffffffffffffffffffffffffffff1673ffffffffffffffffffffffffffffffffffffffff16815260200190815260200160002060006101000a81548160ff0219169083151502179055508173ffffffffffffffffffffffffffffffffffffffff166117906122bc565b73ffffffffffffffffffffffffffffffffffffffff167f17307eab39ab6107e8899845ad3d59bd9653f200f220920489ca2b5937696c3183604051808215151515815260200191505060405180910390a35050565b826117ef81611490565b73ffffffffffffffffffffffffffffffffffffffff163373ffffffffffffffffffffffffffffffffffffffff1614611872576040517f08c379a000000000000000000000000000000000000000000000000000000000815260040180806020018281038252602e81526020018061352b602e913960400191505060405180910390fd5b60006006858154811061188157fe5b90600052602060002090600502019050605060ff16816003015410156118f2576040517f08c379a000000000000000000000000000000000000000000000000000000000815260040180806020018281038252602c8152602001806136f7602c913960400191505060405180910390fd5b61193f84848080601f016020809104026020016040519081016040528093929190818152602001838380828437600081840152601f19601f820116905080830192505050505050506129c9565b6119b1576040517f08c379a000000000000000000000000000000000000000000000000000000000815260040180806020018281038252600d8152602001807f496e76616c696420736b696e2e0000000000000000000000000000000000000081525060200191505060405180910390fd5b6040518060400160405280600681526020017f6d617374657200000000000000000000000000000000000000000000000000008152506040516020018082805190602001908083835b60208310611a1d57805182526020820191506020810190506020830392506119fa565b6001836020036101000a038019825116818451168082178552505050505050905001915050604051602081830303815290604052805190602001208484604051602001808383808284378083019250505092505050604051602081830303815290604052805190602001201415611af057606460ff1681600301541015611aef576040517f08c379a00000000000000000000000000000000000000000000000000000000081526004018080602001828103825260368152602001806134a56036913960400191505060405180910390fd5b5b838360068781548110611aff57fe5b90600052602060002090600502016002019190611b1d92919061334d565b50847f546aa5db2f34cd0c10c3bf80054ede7658175a11189cbeee6241bd45952c3a99858560405180806020018281038252848482818152602001925080828437600081840152601f19601f820116905080830192505050935050505060405180910390a25050505050565b6000611b9433611558565b14611bea576040517f08c379a00000000000000000000000000000000000000000000000000000000081526004018080602001828103825260248152602001806136586024913960400191505060405180910390fd5b6005670de0b6b3a764000002600560009054906101000a900473ffffffffffffffffffffffffffffffffffffffff1673ffffffffffffffffffffffffffffffffffffffff1663dd62ed3e33306040518363ffffffff1660e01b8152600401808373ffffffffffffffffffffffffffffffffffffffff1673ffffffffffffffffffffffffffffffffffffffff1681526020018273ffffffffffffffffffffffffffffffffffffffff1673ffffffffffffffffffffffffffffffffffffffff1681526020019250505060206040518083038186803b158015611cc957600080fd5b505afa158015611cdd573d6000803e3d6000fd5b505050506040513d6020811015611cf357600080fd5b81019080805190602001909291905050501015611d5b576040517f08c379a00000000000000000000000000000000000000000000000000000000081526004018080602001828103825260278152602001806135596027913960400191505060405180910390fd5b600560009054906101000a900473ffffffffffffffffffffffffffffffffffffffff1673ffffffffffffffffffffffffffffffffffffffff166323b872dd33306005670de0b6b3a7640000026040518463ffffffff1660e01b8152600401808473ffffffffffffffffffffffffffffffffffffffff1673ffffffffffffffffffffffffffffffffffffffff1681526020018373ffffffffffffffffffffffffffffffffffffffff1673ffffffffffffffffffffffffffffffffffffffff1681526020018281526020019350505050602060405180830381600087803b158015611e4357600080fd5b505af1158015611e57573d6000803e3d6000fd5b505050506040513d6020811015611e6d57600080fd5b8101908080519060200190929190505050611ef0576040517f08c379a000000000000000000000000000000000000000000000000000000000815260040180806020018281038252601a8152602001807f4572726f72207768656e206465706f736974696e67204461697300000000000081525060200191505060405180910390fd5b6000600680549050905060066040518060a0016040528083815260200185858080601f016020809104026020016040519081016040528093929190818152602001838380828437600081840152601f19601f8201169050808301925050505050505081526020016007600081548110611f6557fe5b90600052602060002090600202016000018054600181600116156101000203166002900480601f01602080910402602001604051908101604052809291908181526020018280546001816001161561010002031660029004801561200a5780601f10611fdf5761010080835404028352916020019161200a565b820191906000526020600020905b815481529060010190602001808311611fed57829003601f168201915b50505050508152602001600181526020016005670de0b6b3a76400000281525090806001815401808255809150506001900390600052602060002090600502016000909190919091506000820151816000015560208201518160010190805190602001906120799291906133cd565b5060408201518160020190805190602001906120969291906133cd565b50606082015181600301556080820151816004015550506120b73382612b0c565b3373ffffffffffffffffffffffffffffffffffffffff167f1243c32293ccfe8a2001f7de06e504e0ffb98f63144253faa43123a5cffe93dc82858560405180848152602001806020018281038252848482818152602001925080828437600081840152601f19601f82011690508083019250505094505050505060405180910390a2505050565b61214f6121496122bc565b8361237d565b6121a4576040517f08c379a00000000000000000000000000000000000000000000000000000000081526004018080602001828103825260318152602001806136c66031913960400191505060405180910390fd5b6121b084848484612d30565b50505050565b6000600460008473ffffffffffffffffffffffffffffffffffffffff1673ffffffffffffffffffffffffffffffffffffffff16815260200190815260200160002060008373ffffffffffffffffffffffffffffffffffffffff1673ffffffffffffffffffffffffffffffffffffffff16815260200190815260200160002060009054906101000a900460ff16905092915050565b6000806001600084815260200190815260200160002060009054906101000a900473ffffffffffffffffffffffffffffffffffffffff169050600073ffffffffffffffffffffffffffffffffffffffff168173ffffffffffffffffffffffffffffffffffffffff161415915050919050565b600033905090565b816002600083815260200190815260200160002060006101000a81548173ffffffffffffffffffffffffffffffffffffffff021916908373ffffffffffffffffffffffffffffffffffffffff160217905550808273ffffffffffffffffffffffffffffffffffffffff1661233783611490565b73ffffffffffffffffffffffffffffffffffffffff167f8c5be1e5ebec7d5bd14f71427d1e84f3dd0314c0f7b2291e5b200ac8c7c3b92560405160405180910390a45050565b60006123888261224a565b6123dd576040517f08c379a000000000000000000000000000000000000000000000000000000000815260040180806020018281038252602c8152602001806134ff602c913960400191505060405180910390fd5b60006123e883611490565b90508073ffffffffffffffffffffffffffffffffffffffff168473ffffffffffffffffffffffffffffffffffffffff16148061245757508373ffffffffffffffffffffffffffffffffffffffff1661243f846109ea565b73ffffffffffffffffffffffffffffffffffffffff16145b80612468575061246781856121b6565b5b91505092915050565b8273ffffffffffffffffffffffffffffffffffffffff1661249182611490565b73ffffffffffffffffffffffffffffffffffffffff16146124fd576040517f08c379a000000000000000000000000000000000000000000000000000000000815260040180806020018281038252602981526020018061367c6029913960400191505060405180910390fd5b600073ffffffffffffffffffffffffffffffffffffffff168273ffffffffffffffffffffffffffffffffffffffff161415612583576040517f08c379a00000000000000000000000000000000000000000000000000000000081526004018080602001828103825260248152602001806134db6024913960400191505060405180910390fd5b61258e838383612da2565b6125996000826122c4565b6125e0600360008573ffffffffffffffffffffffffffffffffffffffff1673ffffffffffffffffffffffffffffffffffffffff168152602001908152602001600020612da7565b612627600360008473ffffffffffffffffffffffffffffffffffffffff1673ffffffffffffffffffffffffffffffffffffffff168152602001908152602001600020612dca565b816001600083815260200190815260200160002060006101000a81548173ffffffffffffffffffffffffffffffffffffffff021916908373ffffffffffffffffffffffffffffffffffffffff160217905550808273ffffffffffffffffffffffffffffffffffffffff168473ffffffffffffffffffffffffffffffffffffffff167fddf252ad1be2c89b69c2b068fc378daa952ba7f163c4a11628f55a4df523b3ef60405160405180910390a4505050565b600080828401905083811015612757576040517f08c379a000000000000000000000000000000000000000000000000000000000815260040180806020018281038252601b8152602001807f536166654d6174683a206164646974696f6e206f766572666c6f77000000000081525060200191505060405180910390fd5b8091505092915050565b60008083141561277457600090506127e1565b600082840290508284828161278557fe5b04146127dc576040517f08c379a000000000000000000000000000000000000000000000000000000000815260040180806020018281038252602181526020018061360b6021913960400191505060405180910390fd5b809150505b92915050565b600061282983836040518060400160405280601a81526020017f536166654d6174683a206469766973696f6e206279207a65726f000000000000815250612de0565b905092915050565b6000670de0b6b3a76400006064424460405160200180838152602001828152602001925050506040516020818303038152906040528051906020012060001c8161287757fe5b0602905090565b6060600060016007805490500390505b600081106129b557600781815481106128a357fe5b906000526020600020906002020160010160009054906101000a900460ff1660ff16600684815481106128d257fe5b906000526020600020906005020160030154106129a757600781815481106128f657fe5b90600052602060002090600202016000018054600181600116156101000203166002900480601f01602080910402602001604051908101604052809291908181526020018280546001816001161561010002031660029004801561299b5780601f106129705761010080835404028352916020019161299b565b820191906000526020600020905b81548152906001019060200180831161297e57829003601f168201915b505050505091506129b5565b80806001900391505061288e565b50919050565b600081600001549050919050565b600080905060008090505b600780549050811015612b0657600781815481106129ee57fe5b90600052602060002090600202016000016040516020018082805460018160011615610100020316600290048015612a5d5780601f10612a3b576101008083540402835291820191612a5d565b820191906000526020600020905b815481529060010190602001808311612a49575b505091505060405160208183030381529060405280519060200120836040516020018082805190602001908083835b60208310612aaf5780518252602082019150602081019050602083039250612a8c565b6001836020036101000a038019825116818451168082178552505050505050905001915050604051602081830303815290604052805190602001201415612af95760019150612b06565b80806001019150506129d4565b50919050565b600073ffffffffffffffffffffffffffffffffffffffff168273ffffffffffffffffffffffffffffffffffffffff161415612baf576040517f08c379a00000000000000000000000000000000000000000000000000000000081526004018080602001828103825260208152602001807f4552433732313a206d696e7420746f20746865207a65726f206164647265737381525060200191505060405180910390fd5b612bb88161224a565b15612c2b576040517f08c379a000000000000000000000000000000000000000000000000000000000815260040180806020018281038252601c8152602001807f4552433732313a20746f6b656e20616c7265616479206d696e7465640000000081525060200191505060405180910390fd5b612c3760008383612da2565b816001600083815260200190815260200160002060006101000a81548173ffffffffffffffffffffffffffffffffffffffff021916908373ffffffffffffffffffffffffffffffffffffffff160217905550612cd0600360008473ffffffffffffffffffffffffffffffffffffffff1673ffffffffffffffffffffffffffffffffffffffff168152602001908152602001600020612dca565b808273ffffffffffffffffffffffffffffffffffffffff16600073ffffffffffffffffffffffffffffffffffffffff167fddf252ad1be2c89b69c2b068fc378daa952ba7f163c4a11628f55a4df523b3ef60405160405180910390a45050565b612d3b848484612471565b612d4784848484612ea6565b612d9c576040517f08c379a00000000000000000000000000000000000000000000000000000000081526004018080602001828103825260328152602001806134736032913960400191505060405180910390fd5b50505050565b505050565b612dbf600182600001546131c990919063ffffffff16565b816000018190555050565b6001816000016000828254019250508190555050565b60008083118290612e8c576040517f08c379a00000000000000000000000000000000000000000000000000000000081526004018080602001828103825283818151815260200191508051906020019080838360005b83811015612e51578082015181840152602081019050612e36565b50505050905090810190601f168015612e7e5780820380516001836020036101000a031916815260200191505b509250505060405180910390fd5b506000838581612e9857fe5b049050809150509392505050565b6000612ec78473ffffffffffffffffffffffffffffffffffffffff16613213565b612ed457600190506131c1565b600060608573ffffffffffffffffffffffffffffffffffffffff1663150b7a0260e01b612eff6122bc565b898888604051602401808573ffffffffffffffffffffffffffffffffffffffff1673ffffffffffffffffffffffffffffffffffffffff1681526020018473ffffffffffffffffffffffffffffffffffffffff1673ffffffffffffffffffffffffffffffffffffffff16815260200183815260200180602001828103825283818151815260200191508051906020019080838360005b83811015612faf578082015181840152602081019050612f94565b50505050905090810190601f168015612fdc5780820380516001836020036101000a031916815260200191505b5095505050505050604051602081830303815290604052907bffffffffffffffffffffffffffffffffffffffffffffffffffffffff19166020820180517bffffffffffffffffffffffffffffffffffffffffffffffffffffffff83818316178352505050506040518082805190602001908083835b602083106130745780518252602082019150602081019050602083039250613051565b6001836020036101000a0380198251168184511680821785525050505050509050019150506000604051808303816000865af19150503d80600081146130d6576040519150601f19603f3d011682016040523d82523d6000602084013e6130db565b606091505b509150915081613149576000815111156130f85780518082602001fd5b6040517f08c379a00000000000000000000000000000000000000000000000000000000081526004018080602001828103825260328152602001806134736032913960400191505060405180910390fd5b600081806020019051602081101561316057600080fd5b8101908080519060200190929190505050905063150b7a0260e01b7bffffffffffffffffffffffffffffffffffffffffffffffffffffffff1916817bffffffffffffffffffffffffffffffffffffffffffffffffffffffff19161493505050505b949350505050565b600061320b83836040518060400160405280601e81526020017f536166654d6174683a207375627472616374696f6e206f766572666c6f77000081525061325e565b905092915050565b60008060007fc5d2460186f7233c927e7db2dcc703c0e500b653ca82273b7bfad8045d85a47060001b9050833f915080821415801561325557506000801b8214155b92505050919050565b600083831115829061330b576040517f08c379a00000000000000000000000000000000000000000000000000000000081526004018080602001828103825283818151815260200191508051906020019080838360005b838110156132d05780820151818401526020810190506132b5565b50505050905090810190601f1680156132fd5780820380516001836020036101000a031916815260200191505b509250505060405180910390fd5b5060008385039050809150509392505050565b6040518060a0016040528060008152602001606081526020016060815260200160008152602001600081525090565b828054600181600116156101000203166002900490600052602060002090601f016020900481019282601f1061338e57803560ff19168380011785556133bc565b828001600101855582156133bc579182015b828111156133bb5782358255916020019190600101906133a0565b5b5090506133c9919061344d565b5090565b828054600181600116156101000203166002900490600052602060002090601f016020900481019282601f1061340e57805160ff191683800117855561343c565b8280016001018555821561343c579182015b8281111561343b578251825591602001919060010190613420565b5b509050613449919061344d565b5090565b61346f91905b8082111561346b576000816000905550600101613453565b5090565b9056fe4552433732313a207472616e7366657220746f206e6f6e20455243373231526563656976657220696d706c656d656e74657254686520667967687465722073686f756c642062652061206d617374657220746f2075736520746865206d617374657220736b696e2e4552433732313a207472616e7366657220746f20746865207a65726f20616464726573734552433732313a206f70657261746f7220717565727920666f72206e6f6e6578697374656e7420746f6b656e54686973206f706572616374696f6e206f6e6c792063616e20626520646f6e6520627920746865206f776e65722e44616920616c6c6f77616e6365206973206c657373207468616e20746865206d696e696d756d2e4552433732313a20617070726f76652063616c6c6572206973206e6f74206f776e6572206e6f7220617070726f76656420666f7220616c6c4552433732313a2062616c616e636520717565727920666f7220746865207a65726f20616464726573734552433732313a206f776e657220717565727920666f72206e6f6e6578697374656e7420746f6b656e536166654d6174683a206d756c7469706c69636174696f6e206f766572666c6f774552433732313a20617070726f76656420717565727920666f72206e6f6e6578697374656e7420746f6b656e4561636820757365722063616e2068617665206a757374206f6e6520667967687465722e4552433732313a207472616e73666572206f6620746f6b656e2074686174206973206e6f74206f776e4552433732313a20617070726f76616c20746f2063757272656e74206f776e65724552433732313a207472616e736665722063616c6c6572206973206e6f74206f776e6572206e6f7220617070726f766564546865206679676874657220686173206e6f20656e6f75676820585020746f206368616e676520736b696e2ea2646970667358221220366ec90d730078f7fe9ed1061203329e1bdeddb15c23a719d0d163becd0600ed64736f6c63430006020033",
  "source": "pragma solidity 0.6.2;\n\nimport \"@openzeppelin/contracts/math/SafeMath.sol\";\nimport \"@openzeppelin/contracts/token/ERC721/ERC721.sol\";\nimport \"./Dai.sol\";\n\ncontract Fyghters is ERC721 {\n    using SafeMath for uint256;\n\n    uint8 constant ALL_SKINS_MIN_XP = 80;\n    uint8 constant MASTER_MIN_XP = 100;\n    string constant MASTER_SKIN = \"master\";\n    uint256 constant ONE = 1 * 10**18;\n    // TODO: Move to .env file\n    uint256 constant MIN_DEPOSIT = ONE * 5;\n    uint256 constant BET_VALUE = ONE * 5;\n\n    Dai private dai;\n\n    event FyghterCreated(address indexed owner, uint256 id, string name);\n    event ChallengeOccurred(uint256 indexed challengerId, uint256 targetId, uint256 winnerId);\n    event SkinChanged(uint256 indexed id, string newSkin);\n    event FyghterRenamed(uint256 indexed id, string newName);\n\n    struct Fyghter {\n        uint256 id;\n        string name;\n        string skin;\n        uint256 xp;\n        uint256 balance;\n    }\n\n    struct Skin {\n        string skin;\n        uint8 xpNeeded;\n    }\n\n    Fyghter[] public fyghters;\n    Skin[] public skins;\n\n    modifier onlyOwnerOf(uint256 _fyghterId) {\n        require(msg.sender == ownerOf(_fyghterId), \"This operaction only can be done by the owner.\");\n        _;\n    }\n\n    constructor(Dai _dai) public {\n        dai = _dai;\n\n        // Skins table\n        skins.push(Skin({skin: \"naked\", xpNeeded: 0}));\n        skins.push(Skin({skin: \"normal_guy\", xpNeeded: 10}));\n        skins.push(Skin({skin: \"karate_kid\", xpNeeded: 15}));\n        skins.push(Skin({skin: \"japonese\", xpNeeded: 25}));\n        skins.push(Skin({skin: \"monk\", xpNeeded: 40}));\n        skins.push(Skin({skin: \"ninja\", xpNeeded: 50}));\n        skins.push(Skin({skin: \"no_one\", xpNeeded: ALL_SKINS_MIN_XP}));\n        skins.push(Skin({skin: \"demon\", xpNeeded: 80}));\n        skins.push(Skin({skin: MASTER_SKIN, xpNeeded: MASTER_MIN_XP}));\n    }\n\n    function create(string calldata _name) external {\n        require(balanceOf(msg.sender) == 0, \"Each user can have just one fyghter.\");\n        require(dai.allowance(msg.sender, address(this)) >= MIN_DEPOSIT, \"Dai allowance is less than the minimum.\");\n        require(dai.transferFrom(msg.sender, address(this), MIN_DEPOSIT), \"Error when depositing Dais\");\n\n        uint256 _id = fyghters.length;\n        fyghters.push(Fyghter({id: _id, name: _name, skin: skins[0].skin, xp: 1, balance: MIN_DEPOSIT}));\n        _mint(msg.sender, _id);\n        emit FyghterCreated(msg.sender, _id, _name);\n    }\n\n    function rename(uint256 _fyghterId, string calldata _newName) external onlyOwnerOf(_fyghterId) {\n        fyghters[_fyghterId].name = _newName;\n        emit FyghterRenamed(_fyghterId, _newName);\n    }\n\n    function challenge(uint256 _challengerId, uint256 _targetId) external onlyOwnerOf(_challengerId) {\n        uint256 challengerVictoryProbability = calculateChallengerProbability(_challengerId, _targetId);\n\n        uint256 winnerId = (_random() <= challengerVictoryProbability) ? _challengerId : _targetId;\n\n        fyghters[winnerId].xp++;\n        _checkForSkinUpdate(winnerId);\n        emit ChallengeOccurred(_challengerId, _targetId, winnerId);\n    }\n\n    function changeSkin(uint256 _fyghterId, string calldata _newSkin) external onlyOwnerOf(_fyghterId) {\n        Fyghter storage fyghter = fyghters[_fyghterId];\n        require(fyghter.xp >= ALL_SKINS_MIN_XP, \"The fyghter has no enough XP to change skin.\");\n\n        require(_isSkinValid(_newSkin), \"Invalid skin.\");\n\n        if (keccak256(abi.encodePacked(_newSkin)) == keccak256(abi.encodePacked(MASTER_SKIN))) {\n            require(fyghter.xp >= MASTER_MIN_XP, \"The fyghter should be a master to use the master skin.\");\n        }\n\n        fyghters[_fyghterId].skin = _newSkin;\n\n        emit SkinChanged(_fyghterId, _newSkin);\n    }\n\n    function calculateChallengerProbability(uint256 _challengerId, uint256 _targetId)\n        public\n        view\n        returns (uint256 winProbability)\n    {\n        Fyghter memory challenger = fyghters[_challengerId];\n        Fyghter memory target = fyghters[_targetId];\n\n        winProbability = challenger.xp.mul(ONE).div(challenger.xp.add(target.xp)).mul(100);\n    }\n\n    function _checkForSkinUpdate(uint256 _fyghterId) internal view returns (string memory newSkin) {\n        for (uint256 i = skins.length - 1; i >= 0; i--) {\n            if (fyghters[_fyghterId].xp >= skins[i].xpNeeded) {\n                newSkin = skins[i].skin;\n                break;\n            }\n        }\n    }\n\n    /*\n    * Note: It isn't a safe way to generate random number.\n    * See more: https://github.com/marcelomorgado/fyght/issues/71\n    */\n    function _random() internal view returns (uint256) {\n        return (uint256(keccak256(abi.encodePacked(block.timestamp, block.difficulty))) % 100) * ONE;\n    }\n\n    function _isSkinValid(string memory skin) private view returns (bool isSkinValid) {\n        isSkinValid = false;\n        for (uint256 i = 0; i < skins.length; i++) {\n            if (keccak256(abi.encodePacked(skin)) == keccak256(abi.encodePacked(skins[i].skin))) {\n                isSkinValid = true;\n                break;\n            }\n        }\n    }\n\n}\n",
  "sourcePath": "/home/cmarcelo/git/fyght/packages/contracts/contracts/Fyghters.sol",
  "compiler": {
    "name": "solc",
    "version": "0.6.2+commit.bacdbe57.Emscripten.clang"
  },
  "schemaVersion": "3.0.23",
  "updatedAt": "2020-03-18T20:57:55.534Z",
  "networkType": "ethereum",
  "devdoc": {
    "methods": {
      "approve(address,uint256)": {
        "details": "Approves another address to transfer the given token ID The zero address indicates there is no approved address. There can only be one approved address per token at a given time. Can only be called by the token owner or an approved operator.",
        "params": {
          "to": "address to be approved for the given token ID",
          "tokenId": "uint256 ID of the token to be approved"
        }
      },
      "balanceOf(address)": {
        "details": "Gets the balance of the specified address.",
        "params": {
          "owner": "address to query the balance of"
        },
        "returns": {
          "_0": "uint256 representing the amount owned by the passed address"
        }
      },
      "getApproved(uint256)": {
        "details": "Gets the approved address for a token ID, or zero if no address set Reverts if the token ID does not exist.",
        "params": {
          "tokenId": "uint256 ID of the token to query the approval of"
        },
        "returns": {
          "_0": "address currently approved for the given token ID"
        }
      },
      "isApprovedForAll(address,address)": {
        "details": "Tells whether an operator is approved by a given owner.",
        "params": {
          "operator": "operator address which you want to query the approval of",
          "owner": "owner address which you want to query the approval of"
        },
        "returns": {
          "_0": "bool whether the given operator is approved by the given owner"
        }
      },
      "ownerOf(uint256)": {
        "details": "Gets the owner of the specified token ID.",
        "params": {
          "tokenId": "uint256 ID of the token to query the owner of"
        },
        "returns": {
          "_0": "address currently marked as the owner of the given token ID"
        }
      },
      "safeTransferFrom(address,address,uint256)": {
        "details": "Safely transfers the ownership of a given token ID to another address If the target address is a contract, it must implement {IERC721Receiver-onERC721Received}, which is called upon a safe transfer, and return the magic value `bytes4(keccak256(\"onERC721Received(address,address,uint256,bytes)\"))`; otherwise, the transfer is reverted. Requires the msg.sender to be the owner, approved, or operator",
        "params": {
          "from": "current owner of the token",
          "to": "address to receive the ownership of the given token ID",
          "tokenId": "uint256 ID of the token to be transferred"
        }
      },
      "safeTransferFrom(address,address,uint256,bytes)": {
        "details": "Safely transfers the ownership of a given token ID to another address If the target address is a contract, it must implement {IERC721Receiver-onERC721Received}, which is called upon a safe transfer, and return the magic value `bytes4(keccak256(\"onERC721Received(address,address,uint256,bytes)\"))`; otherwise, the transfer is reverted. Requires the _msgSender() to be the owner, approved, or operator",
        "params": {
          "_data": "bytes data to send along with a safe transfer check",
          "from": "current owner of the token",
          "to": "address to receive the ownership of the given token ID",
          "tokenId": "uint256 ID of the token to be transferred"
        }
      },
      "setApprovalForAll(address,bool)": {
        "details": "Sets or unsets the approval of a given operator An operator is allowed to transfer all tokens of the sender on their behalf.",
        "params": {
          "approved": "representing the status of the approval to be set",
          "operator": "operator address to set the approval"
        }
      },
      "supportsInterface(bytes4)": {
        "details": "See {IERC165-supportsInterface}.     * Time complexity O(1), guaranteed to always use less than 30 000 gas."
      },
      "transferFrom(address,address,uint256)": {
        "details": "Transfers the ownership of a given token ID to another address. Usage of this method is discouraged, use {safeTransferFrom} whenever possible. Requires the msg.sender to be the owner, approved, or operator.",
        "params": {
          "from": "current owner of the token",
          "to": "address to receive the ownership of the given token ID",
          "tokenId": "uint256 ID of the token to be transferred"
        }
      }
    }
  },
  "userdoc": {
    "methods": {}
  }
}