{
  "contractName": "Fyghters",
  "abi": [
    {
      "inputs": [],
      "stateMutability": "nonpayable",
      "type": "constructor"
    },
    {
      "anonymous": false,
      "inputs": [
        {
          "indexed": true,
          "internalType": "address",
          "name": "owner",
          "type": "address"
        },
        {
          "indexed": true,
          "internalType": "address",
          "name": "approved",
          "type": "address"
        },
        {
          "indexed": true,
          "internalType": "uint256",
          "name": "tokenId",
          "type": "uint256"
        }
      ],
      "name": "Approval",
      "type": "event"
    },
    {
      "anonymous": false,
      "inputs": [
        {
          "indexed": true,
          "internalType": "address",
          "name": "owner",
          "type": "address"
        },
        {
          "indexed": true,
          "internalType": "address",
          "name": "operator",
          "type": "address"
        },
        {
          "indexed": false,
          "internalType": "bool",
          "name": "approved",
          "type": "bool"
        }
      ],
      "name": "ApprovalForAll",
      "type": "event"
    },
    {
      "anonymous": false,
      "inputs": [
        {
          "indexed": false,
          "internalType": "uint256",
          "name": "attackerId",
          "type": "uint256"
        },
        {
          "indexed": false,
          "internalType": "uint256",
          "name": "targetId",
          "type": "uint256"
        },
        {
          "indexed": false,
          "internalType": "uint256",
          "name": "winnerId",
          "type": "uint256"
        }
      ],
      "name": "Attack",
      "type": "event"
    },
    {
      "anonymous": false,
      "inputs": [
        {
          "indexed": false,
          "internalType": "uint256",
          "name": "id",
          "type": "uint256"
        },
        {
          "indexed": false,
          "internalType": "string",
          "name": "newName",
          "type": "string"
        }
      ],
      "name": "FyghterRenamed",
      "type": "event"
    },
    {
      "anonymous": false,
      "inputs": [
        {
          "indexed": true,
          "internalType": "address",
          "name": "owner",
          "type": "address"
        },
        {
          "indexed": false,
          "internalType": "uint256",
          "name": "id",
          "type": "uint256"
        },
        {
          "indexed": false,
          "internalType": "string",
          "name": "name",
          "type": "string"
        }
      ],
      "name": "NewFyghter",
      "type": "event"
    },
    {
      "anonymous": false,
      "inputs": [
        {
          "indexed": false,
          "internalType": "uint256",
          "name": "id",
          "type": "uint256"
        },
        {
          "indexed": false,
          "internalType": "string",
          "name": "newSkin",
          "type": "string"
        }
      ],
      "name": "SkinChanged",
      "type": "event"
    },
    {
      "anonymous": false,
      "inputs": [
        {
          "indexed": true,
          "internalType": "address",
          "name": "from",
          "type": "address"
        },
        {
          "indexed": true,
          "internalType": "address",
          "name": "to",
          "type": "address"
        },
        {
          "indexed": true,
          "internalType": "uint256",
          "name": "tokenId",
          "type": "uint256"
        }
      ],
      "name": "Transfer",
      "type": "event"
    },
    {
      "inputs": [
        {
          "internalType": "address",
          "name": "to",
          "type": "address"
        },
        {
          "internalType": "uint256",
          "name": "tokenId",
          "type": "uint256"
        }
      ],
      "name": "approve",
      "outputs": [],
      "stateMutability": "nonpayable",
      "type": "function"
    },
    {
      "inputs": [
        {
          "internalType": "address",
          "name": "owner",
          "type": "address"
        }
      ],
      "name": "balanceOf",
      "outputs": [
        {
          "internalType": "uint256",
          "name": "",
          "type": "uint256"
        }
      ],
      "stateMutability": "view",
      "type": "function"
    },
    {
      "inputs": [
        {
          "internalType": "uint256",
          "name": "",
          "type": "uint256"
        }
      ],
      "name": "fyghters",
      "outputs": [
        {
          "internalType": "uint256",
          "name": "id",
          "type": "uint256"
        },
        {
          "internalType": "string",
          "name": "name",
          "type": "string"
        },
        {
          "internalType": "string",
          "name": "skin",
          "type": "string"
        },
        {
          "internalType": "uint256",
          "name": "xp",
          "type": "uint256"
        }
      ],
      "stateMutability": "view",
      "type": "function"
    },
    {
      "inputs": [
        {
          "internalType": "uint256",
          "name": "tokenId",
          "type": "uint256"
        }
      ],
      "name": "getApproved",
      "outputs": [
        {
          "internalType": "address",
          "name": "",
          "type": "address"
        }
      ],
      "stateMutability": "view",
      "type": "function"
    },
    {
      "inputs": [
        {
          "internalType": "address",
          "name": "owner",
          "type": "address"
        },
        {
          "internalType": "address",
          "name": "operator",
          "type": "address"
        }
      ],
      "name": "isApprovedForAll",
      "outputs": [
        {
          "internalType": "bool",
          "name": "",
          "type": "bool"
        }
      ],
      "stateMutability": "view",
      "type": "function"
    },
    {
      "inputs": [
        {
          "internalType": "uint256",
          "name": "tokenId",
          "type": "uint256"
        }
      ],
      "name": "ownerOf",
      "outputs": [
        {
          "internalType": "address",
          "name": "",
          "type": "address"
        }
      ],
      "stateMutability": "view",
      "type": "function"
    },
    {
      "inputs": [
        {
          "internalType": "address",
          "name": "from",
          "type": "address"
        },
        {
          "internalType": "address",
          "name": "to",
          "type": "address"
        },
        {
          "internalType": "uint256",
          "name": "tokenId",
          "type": "uint256"
        }
      ],
      "name": "safeTransferFrom",
      "outputs": [],
      "stateMutability": "nonpayable",
      "type": "function"
    },
    {
      "inputs": [
        {
          "internalType": "address",
          "name": "from",
          "type": "address"
        },
        {
          "internalType": "address",
          "name": "to",
          "type": "address"
        },
        {
          "internalType": "uint256",
          "name": "tokenId",
          "type": "uint256"
        },
        {
          "internalType": "bytes",
          "name": "_data",
          "type": "bytes"
        }
      ],
      "name": "safeTransferFrom",
      "outputs": [],
      "stateMutability": "nonpayable",
      "type": "function"
    },
    {
      "inputs": [
        {
          "internalType": "address",
          "name": "operator",
          "type": "address"
        },
        {
          "internalType": "bool",
          "name": "approved",
          "type": "bool"
        }
      ],
      "name": "setApprovalForAll",
      "outputs": [],
      "stateMutability": "nonpayable",
      "type": "function"
    },
    {
      "inputs": [
        {
          "internalType": "uint256",
          "name": "",
          "type": "uint256"
        }
      ],
      "name": "skins",
      "outputs": [
        {
          "internalType": "string",
          "name": "skin",
          "type": "string"
        },
        {
          "internalType": "uint8",
          "name": "xpNeeded",
          "type": "uint8"
        }
      ],
      "stateMutability": "view",
      "type": "function"
    },
    {
      "inputs": [
        {
          "internalType": "bytes4",
          "name": "interfaceId",
          "type": "bytes4"
        }
      ],
      "name": "supportsInterface",
      "outputs": [
        {
          "internalType": "bool",
          "name": "",
          "type": "bool"
        }
      ],
      "stateMutability": "view",
      "type": "function"
    },
    {
      "inputs": [
        {
          "internalType": "address",
          "name": "from",
          "type": "address"
        },
        {
          "internalType": "address",
          "name": "to",
          "type": "address"
        },
        {
          "internalType": "uint256",
          "name": "tokenId",
          "type": "uint256"
        }
      ],
      "name": "transferFrom",
      "outputs": [],
      "stateMutability": "nonpayable",
      "type": "function"
    },
    {
      "inputs": [
        {
          "internalType": "string",
          "name": "_name",
          "type": "string"
        }
      ],
      "name": "create",
      "outputs": [],
      "stateMutability": "nonpayable",
      "type": "function"
    },
    {
      "inputs": [
        {
          "internalType": "uint256",
          "name": "_fyghterId",
          "type": "uint256"
        },
        {
          "internalType": "string",
          "name": "_newName",
          "type": "string"
        }
      ],
      "name": "rename",
      "outputs": [],
      "stateMutability": "nonpayable",
      "type": "function"
    },
    {
      "inputs": [
        {
          "internalType": "uint256",
          "name": "_attackerId",
          "type": "uint256"
        },
        {
          "internalType": "uint256",
          "name": "_targetId",
          "type": "uint256"
        }
      ],
      "name": "attack",
      "outputs": [],
      "stateMutability": "nonpayable",
      "type": "function"
    },
    {
      "inputs": [
        {
          "internalType": "uint256",
          "name": "_fyghterId",
          "type": "uint256"
        },
        {
          "internalType": "string",
          "name": "_newSkin",
          "type": "string"
        }
      ],
      "name": "changeSkin",
      "outputs": [],
      "stateMutability": "nonpayable",
      "type": "function"
    },
    {
      "inputs": [
        {
          "internalType": "uint256",
          "name": "_attackerId",
          "type": "uint256"
        },
        {
          "internalType": "uint256",
          "name": "_targetId",
          "type": "uint256"
        }
      ],
      "name": "calculateAttackerProbability",
      "outputs": [
        {
          "internalType": "uint256",
          "name": "winProbability",
          "type": "uint256"
        }
      ],
      "stateMutability": "view",
      "type": "function"
    }
  ],
  "bytecode": "0x60806040523480156200001157600080fd5b506200002a6301ffc9a760e01b620006db60201b60201c565b620000426380ac58cd60e01b620006db60201b60201c565b600660405180604001604052806040518060400160405280600581526020017f6e616b65640000000000000000000000000000000000000000000000000000008152508152602001600060ff1681525090806001815401808255809150506001900390600052602060002090600202016000909190919091506000820151816000019080519060200190620000d9929190620007e4565b5060208201518160010160006101000a81548160ff021916908360ff1602179055505050600660405180604001604052806040518060400160405280600a81526020017f6e6f726d616c5f677579000000000000000000000000000000000000000000008152508152602001600a60ff168152509080600181540180825580915050600190039060005260206000209060020201600090919091909150600082015181600001908051906020019062000194929190620007e4565b5060208201518160010160006101000a81548160ff021916908360ff1602179055505050600660405180604001604052806040518060400160405280600a81526020017f6b61726174655f6b6964000000000000000000000000000000000000000000008152508152602001600f60ff16815250908060018154018082558091505060019003906000526020600020906002020160009091909190915060008201518160000190805190602001906200024f929190620007e4565b5060208201518160010160006101000a81548160ff021916908360ff1602179055505050600660405180604001604052806040518060400160405280600881526020017f6a61706f6e6573650000000000000000000000000000000000000000000000008152508152602001601960ff16815250908060018154018082558091505060019003906000526020600020906002020160009091909190915060008201518160000190805190602001906200030a929190620007e4565b5060208201518160010160006101000a81548160ff021916908360ff1602179055505050600660405180604001604052806040518060400160405280600481526020017f6d6f6e6b000000000000000000000000000000000000000000000000000000008152508152602001602860ff1681525090806001815401808255809150506001900390600052602060002090600202016000909190919091506000820151816000019080519060200190620003c5929190620007e4565b5060208201518160010160006101000a81548160ff021916908360ff1602179055505050600660405180604001604052806040518060400160405280600581526020017f6e696e6a610000000000000000000000000000000000000000000000000000008152508152602001603260ff168152509080600181540180825580915050600190039060005260206000209060020201600090919091909150600082015181600001908051906020019062000480929190620007e4565b5060208201518160010160006101000a81548160ff021916908360ff1602179055505050600660405180604001604052806040518060400160405280600681526020017f6e6f5f6f6e6500000000000000000000000000000000000000000000000000008152508152602001605060ff16815250908060018154018082558091505060019003906000526020600020906002020160009091909190915060008201518160000190805190602001906200053b929190620007e4565b5060208201518160010160006101000a81548160ff021916908360ff1602179055505050600660405180604001604052806040518060400160405280600681526020017f6461656d6f6e00000000000000000000000000000000000000000000000000008152508152602001605060ff1681525090806001815401808255809150506001900390600052602060002090600202016000909190919091506000820151816000019080519060200190620005f6929190620007e4565b5060208201518160010160006101000a81548160ff021916908360ff1602179055505050600660405180604001604052806040518060400160405280600681526020017f6d617374657200000000000000000000000000000000000000000000000000008152508152602001606460ff1681525090806001815401808255809150506001900390600052602060002090600202016000909190919091506000820151816000019080519060200190620006b1929190620007e4565b5060208201518160010160006101000a81548160ff021916908360ff160217905550505062000893565b63ffffffff60e01b817bffffffffffffffffffffffffffffffffffffffffffffffffffffffff1916141562000778576040517f08c379a000000000000000000000000000000000000000000000000000000000815260040180806020018281038252601c8152602001807f4552433136353a20696e76616c696420696e746572666163652069640000000081525060200191505060405180910390fd5b6001600080837bffffffffffffffffffffffffffffffffffffffffffffffffffffffff19167bffffffffffffffffffffffffffffffffffffffffffffffffffffffff1916815260200190815260200160002060006101000a81548160ff02191690831515021790555050565b828054600181600116156101000203166002900490600052602060002090601f016020900481019282601f106200082757805160ff191683800117855562000858565b8280016001018555821562000858579182015b82811115620008575782518255916020019190600101906200083a565b5b5090506200086791906200086b565b5090565b6200089091905b808211156200088c57600081600090555060010162000872565b5090565b90565b61341680620008a36000396000f3fe608060405234801561001057600080fd5b506004361061010b5760003560e01c80636352211e116100a2578063b6a46b3b11610071578063b6a46b3b146106fe578063b88d4fde14610777578063e1fa76381461087c578063e985e9c5146108b4578063f98df925146109305761010b565b80636352211e1461056557806370a08231146105d3578063a22cb4651461062b578063a91635361461067b5761010b565b80632db2ede5116100de5780632db2ede51461029f5780633ec2d8361461035357806342842e0e146103d657806349b640c5146104445761010b565b806301ffc9a714610110578063081812fc14610175578063095ea7b3146101e357806323b872dd14610231575b600080fd5b61015b6004803603602081101561012657600080fd5b8101908080357bffffffffffffffffffffffffffffffffffffffffffffffffffffffff1916906020019092919050505061097c565b604051808215151515815260200191505060405180910390f35b6101a16004803603602081101561018b57600080fd5b81019080803590602001909291905050506109e3565b604051808273ffffffffffffffffffffffffffffffffffffffff1673ffffffffffffffffffffffffffffffffffffffff16815260200191505060405180910390f35b61022f600480360360408110156101f957600080fd5b81019080803573ffffffffffffffffffffffffffffffffffffffff16906020019092919080359060200190929190505050610a7e565b005b61029d6004803603606081101561024757600080fd5b81019080803573ffffffffffffffffffffffffffffffffffffffff169060200190929190803573ffffffffffffffffffffffffffffffffffffffff16906020019092919080359060200190929190505050610bc2565b005b6102cb600480360360208110156102b557600080fd5b8101908080359060200190929190505050610c38565b60405180806020018360ff1660ff168152602001828103825284818151815260200191508051906020019080838360005b838110156103175780820151818401526020810190506102fc565b50505050905090810190601f1680156103445780820380516001836020036101000a031916815260200191505b50935050505060405180910390f35b6103d46004803603604081101561036957600080fd5b81019080803590602001909291908035906020019064010000000081111561039057600080fd5b8201836020820111156103a257600080fd5b803590602001918460018302840111640100000000831117156103c457600080fd5b9091929391929390505050610d0e565b005b610442600480360360608110156103ec57600080fd5b81019080803573ffffffffffffffffffffffffffffffffffffffff169060200190929190803573ffffffffffffffffffffffffffffffffffffffff16906020019092919080359060200190929190505050610e3a565b005b6104706004803603602081101561045a57600080fd5b8101908080359060200190929190505050610e5a565b604051808581526020018060200180602001848152602001838103835286818151815260200191508051906020019080838360005b838110156104c05780820151818401526020810190506104a5565b50505050905090810190601f1680156104ed5780820380516001836020036101000a031916815260200191505b50838103825285818151815260200191508051906020019080838360005b8381101561052657808201518184015260208101905061050b565b50505050905090810190601f1680156105535780820380516001836020036101000a031916815260200191505b50965050505050505060405180910390f35b6105916004803603602081101561057b57600080fd5b8101908080359060200190929190505050610fc7565b604051808273ffffffffffffffffffffffffffffffffffffffff1673ffffffffffffffffffffffffffffffffffffffff16815260200191505060405180910390f35b610615600480360360208110156105e957600080fd5b81019080803573ffffffffffffffffffffffffffffffffffffffff16906020019092919050505061108f565b6040518082815260200191505060405180910390f35b6106796004803603604081101561064157600080fd5b81019080803573ffffffffffffffffffffffffffffffffffffffff169060200190929190803515159060200190929190505050611164565b005b6106fc6004803603604081101561069157600080fd5b8101908080359060200190929190803590602001906401000000008111156106b857600080fd5b8201836020820111156106ca57600080fd5b803590602001918460018302840111640100000000831117156106ec57600080fd5b909192939192939050505061131c565b005b6107756004803603602081101561071457600080fd5b810190808035906020019064010000000081111561073157600080fd5b82018360208201111561074357600080fd5b8035906020019184600183028401116401000000008311171561076557600080fd5b90919293919293905050506116c7565b005b61087a6004803603608081101561078d57600080fd5b81019080803573ffffffffffffffffffffffffffffffffffffffff169060200190929190803573ffffffffffffffffffffffffffffffffffffffff16906020019092919080359060200190929190803590602001906401000000008111156107f457600080fd5b82018360208201111561080657600080fd5b8035906020019184600183028401116401000000008311171561082857600080fd5b91908080601f016020809104026020016040519081016040528093929190818152602001838380828437600081840152601f19601f82011690508083019250505050505050919291929050505061195b565b005b6108b26004803603604081101561089257600080fd5b8101908080359060200190929190803590602001909291905050506119d3565b005b610916600480360360408110156108ca57600080fd5b81019080803573ffffffffffffffffffffffffffffffffffffffff169060200190929190803573ffffffffffffffffffffffffffffffffffffffff169060200190929190505050611b0f565b604051808215151515815260200191505060405180910390f35b6109666004803603604081101561094657600080fd5b810190808035906020019092919080359060200190929190505050611ba3565b6040518082815260200191505060405180910390f35b6000806000837bffffffffffffffffffffffffffffffffffffffffffffffffffffffff19167bffffffffffffffffffffffffffffffffffffffffffffffffffffffff1916815260200190815260200160002060009054906101000a900460ff169050919050565b60006109ee82611f1d565b610a43576040517f08c379a000000000000000000000000000000000000000000000000000000000815260040180806020018281038252602c8152602001806132ea602c913960400191505060405180910390fd5b6002600083815260200190815260200160002060009054906101000a900473ffffffffffffffffffffffffffffffffffffffff169050919050565b6000610a8982610fc7565b90508073ffffffffffffffffffffffffffffffffffffffff168373ffffffffffffffffffffffffffffffffffffffff161415610b10576040517f08c379a00000000000000000000000000000000000000000000000000000000081526004018080602001828103825260218152602001806133636021913960400191505060405180910390fd5b8073ffffffffffffffffffffffffffffffffffffffff16610b2f611f8f565b73ffffffffffffffffffffffffffffffffffffffff161480610b5e5750610b5d81610b58611f8f565b611b0f565b5b610bb3576040517f08c379a000000000000000000000000000000000000000000000000000000000815260040180806020018281038252603881526020018061323e6038913960400191505060405180910390fd5b610bbd8383611f97565b505050565b610bd3610bcd611f8f565b82612050565b610c28576040517f08c379a00000000000000000000000000000000000000000000000000000000081526004018080602001828103825260318152602001806133846031913960400191505060405180910390fd5b610c33838383612144565b505050565b60068181548110610c4557fe5b9060005260206000209060020201600091509050806000018054600181600116156101000203166002900480601f016020809104026020016040519081016040528092919081815260200182805460018160011615610100020316600290048015610cf15780601f10610cc657610100808354040283529160200191610cf1565b820191906000526020600020905b815481529060010190602001808311610cd457829003601f168201915b5050505050908060010160009054906101000a900460ff16905082565b82610d1881610fc7565b73ffffffffffffffffffffffffffffffffffffffff163373ffffffffffffffffffffffffffffffffffffffff1614610d9b576040517f08c379a000000000000000000000000000000000000000000000000000000000815260040180806020018281038252602e815260200180613210602e913960400191505060405180910390fd5b828260058681548110610daa57fe5b90600052602060002090600402016001019190610dc892919061300a565b507f553656c6feb05b3e720bd33ad52f9cc39bc80982fb434f80e81391abc4c9dda584848460405180848152602001806020018281038252848482818152602001925080828437600081840152601f19601f82011690508083019250505094505050505060405180910390a150505050565b610e558383836040518060200160405280600081525061195b565b505050565b60058181548110610e6757fe5b9060005260206000209060040201600091509050806000015490806001018054600181600116156101000203166002900480601f016020809104026020016040519081016040528092919081815260200182805460018160011615610100020316600290048015610f195780601f10610eee57610100808354040283529160200191610f19565b820191906000526020600020905b815481529060010190602001808311610efc57829003601f168201915b505050505090806002018054600181600116156101000203166002900480601f016020809104026020016040519081016040528092919081815260200182805460018160011615610100020316600290048015610fb75780601f10610f8c57610100808354040283529160200191610fb7565b820191906000526020600020905b815481529060010190602001808311610f9a57829003601f168201915b5050505050908060030154905084565b6000806001600084815260200190815260200160002060009054906101000a900473ffffffffffffffffffffffffffffffffffffffff169050600073ffffffffffffffffffffffffffffffffffffffff168173ffffffffffffffffffffffffffffffffffffffff161415611086576040517f08c379a00000000000000000000000000000000000000000000000000000000081526004018080602001828103825260298152602001806132a06029913960400191505060405180910390fd5b80915050919050565b60008073ffffffffffffffffffffffffffffffffffffffff168273ffffffffffffffffffffffffffffffffffffffff161415611116576040517f08c379a000000000000000000000000000000000000000000000000000000000815260040180806020018281038252602a815260200180613276602a913960400191505060405180910390fd5b61115d600360008473ffffffffffffffffffffffffffffffffffffffff1673ffffffffffffffffffffffffffffffffffffffff1681526020019081526020016000206123ac565b9050919050565b61116c611f8f565b73ffffffffffffffffffffffffffffffffffffffff168273ffffffffffffffffffffffffffffffffffffffff16141561120d576040517f08c379a00000000000000000000000000000000000000000000000000000000081526004018080602001828103825260198152602001807f4552433732313a20617070726f766520746f2063616c6c65720000000000000081525060200191505060405180910390fd5b806004600061121a611f8f565b73ffffffffffffffffffffffffffffffffffffffff1673ffffffffffffffffffffffffffffffffffffffff16815260200190815260200160002060008473ffffffffffffffffffffffffffffffffffffffff1673ffffffffffffffffffffffffffffffffffffffff16815260200190815260200160002060006101000a81548160ff0219169083151502179055508173ffffffffffffffffffffffffffffffffffffffff166112c7611f8f565b73ffffffffffffffffffffffffffffffffffffffff167f17307eab39ab6107e8899845ad3d59bd9653f200f220920489ca2b5937696c3183604051808215151515815260200191505060405180910390a35050565b8261132681610fc7565b73ffffffffffffffffffffffffffffffffffffffff163373ffffffffffffffffffffffffffffffffffffffff16146113a9576040517f08c379a000000000000000000000000000000000000000000000000000000000815260040180806020018281038252602e815260200180613210602e913960400191505060405180910390fd5b6000600585815481106113b857fe5b90600052602060002090600402019050605060ff1681600301541015611429576040517f08c379a000000000000000000000000000000000000000000000000000000000815260040180806020018281038252602c8152602001806133b5602c913960400191505060405180910390fd5b61147684848080601f016020809104026020016040519081016040528093929190818152602001838380828437600081840152601f19601f820116905080830192505050505050506123ba565b6114e8576040517f08c379a000000000000000000000000000000000000000000000000000000000815260040180806020018281038252600d8152602001807f496e76616c696420736b696e2e0000000000000000000000000000000000000081525060200191505060405180910390fd5b6040518060400160405280600681526020017f6d617374657200000000000000000000000000000000000000000000000000008152506040516020018082805190602001908083835b602083106115545780518252602082019150602081019050602083039250611531565b6001836020036101000a03801982511681845116808217855250505050505090500191505060405160208183030381529060405280519060200120848460405160200180838380828437808301925050509250505060405160208183030381529060405280519060200120141561162757606460ff1681600301541015611626576040517f08c379a000000000000000000000000000000000000000000000000000000000815260040180806020018281038252603681526020018061318a6036913960400191505060405180910390fd5b5b83836005878154811061163657fe5b9060005260206000209060040201600201919061165492919061300a565b507f546aa5db2f34cd0c10c3bf80054ede7658175a11189cbeee6241bd45952c3a9985858560405180848152602001806020018281038252848482818152602001925080828437600081840152601f19601f82011690508083019250505094505050505060405180910390a15050505050565b60006116d23361108f565b14611728576040517f08c379a00000000000000000000000000000000000000000000000000000000081526004018080602001828103825260248152602001806133166024913960400191505060405180910390fd5b600060058054905090506005604051806080016040528083815260200185858080601f016020809104026020016040519081016040528093929190818152602001838380828437600081840152601f19601f820116905080830192505050505050508152602001600660008154811061179d57fe5b90600052602060002090600202016000018054600181600116156101000203166002900480601f0160208091040260200160405190810160405280929190818152602001828054600181600116156101000203166002900480156118425780601f1061181757610100808354040283529160200191611842565b820191906000526020600020905b81548152906001019060200180831161182557829003601f168201915b50505050508152602001600181525090806001815401808255809150506001900390600052602060002090600402016000909190919091506000820151816000015560208201518160010190805190602001906118a092919061308a565b5060408201518160020190805190602001906118bd92919061308a565b506060820151816003015550506118d433826124fd565b3373ffffffffffffffffffffffffffffffffffffffff167ff1dfb1d26058308b5bc4d646c4c3fa82ee3a38d1bc1019b1b9bea6a5f0afb63882858560405180848152602001806020018281038252848482818152602001925080828437600081840152601f19601f82011690508083019250505094505050505060405180910390a2505050565b61196c611966611f8f565b83612050565b6119c1576040517f08c379a00000000000000000000000000000000000000000000000000000000081526004018080602001828103825260318152602001806133846031913960400191505060405180910390fd5b6119cd84848484612721565b50505050565b816119dd81610fc7565b73ffffffffffffffffffffffffffffffffffffffff163373ffffffffffffffffffffffffffffffffffffffff1614611a60576040517f08c379a000000000000000000000000000000000000000000000000000000000815260040180806020018281038252602e815260200180613210602e913960400191505060405180910390fd5b6000611a6c8484611ba3565b9050600081611a79612793565b1115611a855783611a87565b845b905060058181548110611a9657fe5b906000526020600020906004020160030160008154809291906001019190505550611ac0816127e0565b507f25c61ce5cfbf5b210a370cac456043df6044948ee7d9e9e772ce22d14d2cdf4985858360405180848152602001838152602001828152602001935050505060405180910390a15050505050565b6000600460008473ffffffffffffffffffffffffffffffffffffffff1673ffffffffffffffffffffffffffffffffffffffff16815260200190815260200160002060008373ffffffffffffffffffffffffffffffffffffffff1673ffffffffffffffffffffffffffffffffffffffff16815260200190815260200160002060009054906101000a900460ff16905092915050565b6000611bad61310a565b60058481548110611bba57fe5b906000526020600020906004020160405180608001604052908160008201548152602001600182018054600181600116156101000203166002900480601f016020809104026020016040519081016040528092919081815260200182805460018160011615610100020316600290048015611c765780601f10611c4b57610100808354040283529160200191611c76565b820191906000526020600020905b815481529060010190602001808311611c5957829003601f168201915b50505050508152602001600282018054600181600116156101000203166002900480601f016020809104026020016040519081016040528092919081815260200182805460018160011615610100020316600290048015611d185780601f10611ced57610100808354040283529160200191611d18565b820191906000526020600020905b815481529060010190602001808311611cfb57829003601f168201915b505050505081526020016003820154815250509050611d3561310a565b60058481548110611d4257fe5b906000526020600020906004020160405180608001604052908160008201548152602001600182018054600181600116156101000203166002900480601f016020809104026020016040519081016040528092919081815260200182805460018160011615610100020316600290048015611dfe5780601f10611dd357610100808354040283529160200191611dfe565b820191906000526020600020905b815481529060010190602001808311611de157829003601f168201915b50505050508152602001600282018054600181600116156101000203166002900480601f016020809104026020016040519081016040528092919081815260200182805460018160011615610100020316600290048015611ea05780601f10611e7557610100808354040283529160200191611ea0565b820191906000526020600020905b815481529060010190602001808311611e8357829003601f168201915b505050505081526020016003820154815250509050611f136064611f05611ed88460600151866060015161291d90919063ffffffff16565b611ef7670de0b6b3a764000087606001516129a590919063ffffffff16565b612a2b90919063ffffffff16565b6129a590919063ffffffff16565b9250505092915050565b6000806001600084815260200190815260200160002060009054906101000a900473ffffffffffffffffffffffffffffffffffffffff169050600073ffffffffffffffffffffffffffffffffffffffff168173ffffffffffffffffffffffffffffffffffffffff161415915050919050565b600033905090565b816002600083815260200190815260200160002060006101000a81548173ffffffffffffffffffffffffffffffffffffffff021916908373ffffffffffffffffffffffffffffffffffffffff160217905550808273ffffffffffffffffffffffffffffffffffffffff1661200a83610fc7565b73ffffffffffffffffffffffffffffffffffffffff167f8c5be1e5ebec7d5bd14f71427d1e84f3dd0314c0f7b2291e5b200ac8c7c3b92560405160405180910390a45050565b600061205b82611f1d565b6120b0576040517f08c379a000000000000000000000000000000000000000000000000000000000815260040180806020018281038252602c8152602001806131e4602c913960400191505060405180910390fd5b60006120bb83610fc7565b90508073ffffffffffffffffffffffffffffffffffffffff168473ffffffffffffffffffffffffffffffffffffffff16148061212a57508373ffffffffffffffffffffffffffffffffffffffff16612112846109e3565b73ffffffffffffffffffffffffffffffffffffffff16145b8061213b575061213a8185611b0f565b5b91505092915050565b8273ffffffffffffffffffffffffffffffffffffffff1661216482610fc7565b73ffffffffffffffffffffffffffffffffffffffff16146121d0576040517f08c379a000000000000000000000000000000000000000000000000000000000815260040180806020018281038252602981526020018061333a6029913960400191505060405180910390fd5b600073ffffffffffffffffffffffffffffffffffffffff168273ffffffffffffffffffffffffffffffffffffffff161415612256576040517f08c379a00000000000000000000000000000000000000000000000000000000081526004018080602001828103825260248152602001806131c06024913960400191505060405180910390fd5b612261838383612a75565b61226c600082611f97565b6122b3600360008573ffffffffffffffffffffffffffffffffffffffff1673ffffffffffffffffffffffffffffffffffffffff168152602001908152602001600020612a7a565b6122fa600360008473ffffffffffffffffffffffffffffffffffffffff1673ffffffffffffffffffffffffffffffffffffffff168152602001908152602001600020612a9d565b816001600083815260200190815260200160002060006101000a81548173ffffffffffffffffffffffffffffffffffffffff021916908373ffffffffffffffffffffffffffffffffffffffff160217905550808273ffffffffffffffffffffffffffffffffffffffff168473ffffffffffffffffffffffffffffffffffffffff167fddf252ad1be2c89b69c2b068fc378daa952ba7f163c4a11628f55a4df523b3ef60405160405180910390a4505050565b600081600001549050919050565b600080905060008090505b6006805490508110156124f757600681815481106123df57fe5b9060005260206000209060020201600001604051602001808280546001816001161561010002031660029004801561244e5780601f1061242c57610100808354040283529182019161244e565b820191906000526020600020905b81548152906001019060200180831161243a575b505091505060405160208183030381529060405280519060200120836040516020018082805190602001908083835b602083106124a0578051825260208201915060208101905060208303925061247d565b6001836020036101000a0380198251168184511680821785525050505050509050019150506040516020818303038152906040528051906020012014156124ea57600191506124f7565b80806001019150506123c5565b50919050565b600073ffffffffffffffffffffffffffffffffffffffff168273ffffffffffffffffffffffffffffffffffffffff1614156125a0576040517f08c379a00000000000000000000000000000000000000000000000000000000081526004018080602001828103825260208152602001807f4552433732313a206d696e7420746f20746865207a65726f206164647265737381525060200191505060405180910390fd5b6125a981611f1d565b1561261c576040517f08c379a000000000000000000000000000000000000000000000000000000000815260040180806020018281038252601c8152602001807f4552433732313a20746f6b656e20616c7265616479206d696e7465640000000081525060200191505060405180910390fd5b61262860008383612a75565b816001600083815260200190815260200160002060006101000a81548173ffffffffffffffffffffffffffffffffffffffff021916908373ffffffffffffffffffffffffffffffffffffffff1602179055506126c1600360008473ffffffffffffffffffffffffffffffffffffffff1673ffffffffffffffffffffffffffffffffffffffff168152602001908152602001600020612a9d565b808273ffffffffffffffffffffffffffffffffffffffff16600073ffffffffffffffffffffffffffffffffffffffff167fddf252ad1be2c89b69c2b068fc378daa952ba7f163c4a11628f55a4df523b3ef60405160405180910390a45050565b61272c848484612144565b61273884848484612ab3565b61278d576040517f08c379a00000000000000000000000000000000000000000000000000000000081526004018080602001828103825260328152602001806131586032913960400191505060405180910390fd5b50505050565b6000670de0b6b3a76400006064424460405160200180838152602001828152602001925050506040516020818303038152906040528051906020012060001c816127d957fe5b0602905090565b6060600060016006805490500390505b60008110612917576006818154811061280557fe5b906000526020600020906002020160010160009054906101000a900460ff1660ff166005848154811061283457fe5b90600052602060002090600402016003015410612909576006818154811061285857fe5b90600052602060002090600202016000018054600181600116156101000203166002900480601f0160208091040260200160405190810160405280929190818152602001828054600181600116156101000203166002900480156128fd5780601f106128d2576101008083540402835291602001916128fd565b820191906000526020600020905b8154815290600101906020018083116128e057829003601f168201915b50505050509150612917565b8080600190039150506127f0565b50919050565b60008082840190508381101561299b576040517f08c379a000000000000000000000000000000000000000000000000000000000815260040180806020018281038252601b8152602001807f536166654d6174683a206164646974696f6e206f766572666c6f77000000000081525060200191505060405180910390fd5b8091505092915050565b6000808314156129b85760009050612a25565b60008284029050828482816129c957fe5b0414612a20576040517f08c379a00000000000000000000000000000000000000000000000000000000081526004018080602001828103825260218152602001806132c96021913960400191505060405180910390fd5b809150505b92915050565b6000612a6d83836040518060400160405280601a81526020017f536166654d6174683a206469766973696f6e206279207a65726f000000000000815250612def565b905092915050565b505050565b612a9260018260000154612eb590919063ffffffff16565b816000018190555050565b6001816000016000828254019250508190555050565b6000612ad48473ffffffffffffffffffffffffffffffffffffffff16612eff565b612ae15760019050612de7565b600060608573ffffffffffffffffffffffffffffffffffffffff168673ffffffffffffffffffffffffffffffffffffffff1663150b7a02905060e01b612b25611f8f565b898888604051602401808573ffffffffffffffffffffffffffffffffffffffff1673ffffffffffffffffffffffffffffffffffffffff1681526020018473ffffffffffffffffffffffffffffffffffffffff1673ffffffffffffffffffffffffffffffffffffffff16815260200183815260200180602001828103825283818151815260200191508051906020019080838360005b83811015612bd5578082015181840152602081019050612bba565b50505050905090810190601f168015612c025780820380516001836020036101000a031916815260200191505b5095505050505050604051602081830303815290604052907bffffffffffffffffffffffffffffffffffffffffffffffffffffffff19166020820180517bffffffffffffffffffffffffffffffffffffffffffffffffffffffff83818316178352505050506040518082805190602001908083835b60208310612c9a5780518252602082019150602081019050602083039250612c77565b6001836020036101000a0380198251168184511680821785525050505050509050019150506000604051808303816000865af19150503d8060008114612cfc576040519150601f19603f3d011682016040523d82523d6000602084013e612d01565b606091505b509150915081612d6f57600081511115612d1e5780518082602001fd5b6040517f08c379a00000000000000000000000000000000000000000000000000000000081526004018080602001828103825260328152602001806131586032913960400191505060405180910390fd5b6000818060200190516020811015612d8657600080fd5b8101908080519060200190929190505050905063150b7a0260e01b7bffffffffffffffffffffffffffffffffffffffffffffffffffffffff1916817bffffffffffffffffffffffffffffffffffffffffffffffffffffffff19161493505050505b949350505050565b60008083118290612e9b576040517f08c379a00000000000000000000000000000000000000000000000000000000081526004018080602001828103825283818151815260200191508051906020019080838360005b83811015612e60578082015181840152602081019050612e45565b50505050905090810190601f168015612e8d5780820380516001836020036101000a031916815260200191505b509250505060405180910390fd5b506000838581612ea757fe5b049050809150509392505050565b6000612ef783836040518060400160405280601e81526020017f536166654d6174683a207375627472616374696f6e206f766572666c6f770000815250612f4a565b905092915050565b60008060007fc5d2460186f7233c927e7db2dcc703c0e500b653ca82273b7bfad8045d85a47060001b9050833f9150808214158015612f4157506000801b8214155b92505050919050565b6000838311158290612ff7576040517f08c379a00000000000000000000000000000000000000000000000000000000081526004018080602001828103825283818151815260200191508051906020019080838360005b83811015612fbc578082015181840152602081019050612fa1565b50505050905090810190601f168015612fe95780820380516001836020036101000a031916815260200191505b509250505060405180910390fd5b5060008385039050809150509392505050565b828054600181600116156101000203166002900490600052602060002090601f016020900481019282601f1061304b57803560ff1916838001178555613079565b82800160010185558215613079579182015b8281111561307857823582559160200191906001019061305d565b5b5090506130869190613132565b5090565b828054600181600116156101000203166002900490600052602060002090601f016020900481019282601f106130cb57805160ff19168380011785556130f9565b828001600101855582156130f9579182015b828111156130f85782518255916020019190600101906130dd565b5b5090506131069190613132565b5090565b6040518060800160405280600081526020016060815260200160608152602001600081525090565b61315491905b80821115613150576000816000905550600101613138565b5090565b9056fe4552433732313a207472616e7366657220746f206e6f6e20455243373231526563656976657220696d706c656d656e74657254686520667967687465722073686f756c642062652061206d617374657220746f2075736520746865206d617374657220736b696e2e4552433732313a207472616e7366657220746f20746865207a65726f20616464726573734552433732313a206f70657261746f7220717565727920666f72206e6f6e6578697374656e7420746f6b656e54686973206f706572616374696f6e206f6e6c792063616e20626520646f6e6520627920746865206f776e65722e4552433732313a20617070726f76652063616c6c6572206973206e6f74206f776e6572206e6f7220617070726f76656420666f7220616c6c4552433732313a2062616c616e636520717565727920666f7220746865207a65726f20616464726573734552433732313a206f776e657220717565727920666f72206e6f6e6578697374656e7420746f6b656e536166654d6174683a206d756c7469706c69636174696f6e206f766572666c6f774552433732313a20617070726f76656420717565727920666f72206e6f6e6578697374656e7420746f6b656e4561636820757365722063616e2068617665206a757374206f6e6520667967687465722e4552433732313a207472616e73666572206f6620746f6b656e2074686174206973206e6f74206f776e4552433732313a20617070726f76616c20746f2063757272656e74206f776e65724552433732313a207472616e736665722063616c6c6572206973206e6f74206f776e6572206e6f7220617070726f766564546865206679676874657220686173206e6f20656e6f75676820585020746f206368616e676520736b696e2ea26469706673582212200b1da186fe6ec49f686553907a8608582f3b5c41b8fcdd24e277aed9bad4c4b564736f6c63430006010033",
  "source": "pragma solidity 0.6.1;\n\nimport \"@openzeppelin/contracts/math/SafeMath.sol\";\nimport \"@openzeppelin/contracts/token/ERC721/ERC721.sol\";\n\ncontract Fyghters is ERC721 {\n    using SafeMath for uint256;\n\n    uint8 constant ALL_SKINS_MIN_XP = 80;\n    uint8 constant MASTER_MIN_XP = 100;\n    string constant MASTER_SKIN = \"master\";\n    uint256 constant ONE = 1 * 10**18;\n\n    event NewFyghter(address indexed owner, uint256 id, string name);\n    event Attack(uint256 attackerId, uint256 targetId, uint256 winnerId);\n    event SkinChanged(uint256 id, string newSkin);\n    event FyghterRenamed(uint256 id, string newName);\n\n    struct Fyghter {\n        uint256 id;\n        string name;\n        string skin;\n        uint256 xp;\n    }\n\n    struct Skin {\n        string skin;\n        uint8 xpNeeded;\n    }\n\n    Fyghter[] public fyghters;\n    Skin[] public skins;\n\n    modifier onlyOwnerOf(uint256 _fyghterId) {\n        require(msg.sender == ownerOf(_fyghterId), \"This operaction only can be done by the owner.\");\n        _;\n    }\n\n    constructor() public {\n        skins.push(Skin({skin: \"naked\", xpNeeded: 0}));\n        skins.push(Skin({skin: \"normal_guy\", xpNeeded: 10}));\n        skins.push(Skin({skin: \"karate_kid\", xpNeeded: 15}));\n        skins.push(Skin({skin: \"japonese\", xpNeeded: 25}));\n        skins.push(Skin({skin: \"monk\", xpNeeded: 40}));\n        skins.push(Skin({skin: \"ninja\", xpNeeded: 50}));\n        skins.push(Skin({skin: \"no_one\", xpNeeded: ALL_SKINS_MIN_XP}));\n        skins.push(Skin({skin: \"daemon\", xpNeeded: 80}));\n        skins.push(Skin({skin: MASTER_SKIN, xpNeeded: MASTER_MIN_XP}));\n    }\n\n    function create(string calldata _name) external {\n        require(balanceOf(msg.sender) == 0, \"Each user can have just one fyghter.\");\n        uint256 _id = fyghters.length;\n        fyghters.push(Fyghter({id: _id, name: _name, skin: skins[0].skin, xp: 1}));\n        _mint(msg.sender, _id);\n        emit NewFyghter(msg.sender, _id, _name);\n    }\n\n    function rename(uint256 _fyghterId, string calldata _newName) external onlyOwnerOf(_fyghterId) {\n        fyghters[_fyghterId].name = _newName;\n        emit FyghterRenamed(_fyghterId, _newName);\n    }\n\n    function attack(uint256 _attackerId, uint256 _targetId) external onlyOwnerOf(_attackerId) {\n        uint256 attackVictoryProbability = calculateAttackerProbability(_attackerId, _targetId);\n\n        uint256 winnerId = (_random() <= attackVictoryProbability) ? _attackerId : _targetId;\n\n        fyghters[winnerId].xp++;\n        _checkForSkinUpdate(winnerId);\n        emit Attack(_attackerId, _targetId, winnerId);\n    }\n\n    function changeSkin(uint256 _fyghterId, string calldata _newSkin) external onlyOwnerOf(_fyghterId) {\n        Fyghter storage fyghter = fyghters[_fyghterId];\n        require(fyghter.xp >= ALL_SKINS_MIN_XP, \"The fyghter has no enough XP to change skin.\");\n\n        require(_isSkinValid(_newSkin), \"Invalid skin.\");\n\n        if (keccak256(abi.encodePacked(_newSkin)) == keccak256(abi.encodePacked(MASTER_SKIN))) {\n            require(fyghter.xp >= MASTER_MIN_XP, \"The fyghter should be a master to use the master skin.\");\n        }\n\n        fyghters[_fyghterId].skin = _newSkin;\n\n        emit SkinChanged(_fyghterId, _newSkin);\n    }\n\n    function calculateAttackerProbability(uint256 _attackerId, uint256 _targetId)\n        public\n        view\n        returns (uint256 winProbability)\n    {\n        Fyghter memory attacker = fyghters[_attackerId];\n        Fyghter memory target = fyghters[_targetId];\n\n        winProbability = attacker.xp.mul(ONE).div(attacker.xp.add(target.xp)).mul(100);\n    }\n\n    function _checkForSkinUpdate(uint256 _fyghterId) internal view returns (string memory newSkin) {\n        for (uint256 i = skins.length - 1; i >= 0; i--) {\n            if (fyghters[_fyghterId].xp >= skins[i].xpNeeded) {\n                newSkin = skins[i].skin;\n                break;\n            }\n        }\n    }\n\n    /*\n    * Note: It isn't a safe way to generate random number.\n    * See more: https://github.com/marcelomorgado/fyght/issues/71\n    */\n    function _random() internal view returns (uint256) {\n        return (uint256(keccak256(abi.encodePacked(block.timestamp, block.difficulty))) % 100) * ONE;\n    }\n\n    function _isSkinValid(string memory skin) private view returns (bool isSkinValid) {\n        isSkinValid = false;\n        for (uint256 i = 0; i < skins.length; i++) {\n            if (keccak256(abi.encodePacked(skin)) == keccak256(abi.encodePacked(skins[i].skin))) {\n                isSkinValid = true;\n                break;\n            }\n        }\n    }\n\n}\n",
  "sourcePath": "/home/cmarcelo/git/fyght/packages/contracts/contracts/Fyghters.sol",
  "compiler": {
    "name": "solc",
    "version": "0.6.1+commit.e6f7d5a4.Emscripten.clang"
  },
  "schemaVersion": "3.0.23",
  "updatedAt": "2020-03-14T19:53:09.084Z",
  "devdoc": {
    "methods": {
      "approve(address,uint256)": {
        "details": "Approves another address to transfer the given token ID The zero address indicates there is no approved address. There can only be one approved address per token at a given time. Can only be called by the token owner or an approved operator.",
        "params": {
          "to": "address to be approved for the given token ID",
          "tokenId": "uint256 ID of the token to be approved"
        }
      },
      "balanceOf(address)": {
        "details": "Gets the balance of the specified address.",
        "params": {
          "owner": "address to query the balance of"
        },
        "returns": {
          "_0": "uint256 representing the amount owned by the passed address"
        }
      },
      "getApproved(uint256)": {
        "details": "Gets the approved address for a token ID, or zero if no address set Reverts if the token ID does not exist.",
        "params": {
          "tokenId": "uint256 ID of the token to query the approval of"
        },
        "returns": {
          "_0": "address currently approved for the given token ID"
        }
      },
      "isApprovedForAll(address,address)": {
        "details": "Tells whether an operator is approved by a given owner.",
        "params": {
          "operator": "operator address which you want to query the approval of",
          "owner": "owner address which you want to query the approval of"
        },
        "returns": {
          "_0": "bool whether the given operator is approved by the given owner"
        }
      },
      "ownerOf(uint256)": {
        "details": "Gets the owner of the specified token ID.",
        "params": {
          "tokenId": "uint256 ID of the token to query the owner of"
        },
        "returns": {
          "_0": "address currently marked as the owner of the given token ID"
        }
      },
      "safeTransferFrom(address,address,uint256)": {
        "details": "Safely transfers the ownership of a given token ID to another address If the target address is a contract, it must implement {IERC721Receiver-onERC721Received}, which is called upon a safe transfer, and return the magic value `bytes4(keccak256(\"onERC721Received(address,address,uint256,bytes)\"))`; otherwise, the transfer is reverted. Requires the msg.sender to be the owner, approved, or operator",
        "params": {
          "from": "current owner of the token",
          "to": "address to receive the ownership of the given token ID",
          "tokenId": "uint256 ID of the token to be transferred"
        }
      },
      "safeTransferFrom(address,address,uint256,bytes)": {
        "details": "Safely transfers the ownership of a given token ID to another address If the target address is a contract, it must implement {IERC721Receiver-onERC721Received}, which is called upon a safe transfer, and return the magic value `bytes4(keccak256(\"onERC721Received(address,address,uint256,bytes)\"))`; otherwise, the transfer is reverted. Requires the _msgSender() to be the owner, approved, or operator",
        "params": {
          "_data": "bytes data to send along with a safe transfer check",
          "from": "current owner of the token",
          "to": "address to receive the ownership of the given token ID",
          "tokenId": "uint256 ID of the token to be transferred"
        }
      },
      "setApprovalForAll(address,bool)": {
        "details": "Sets or unsets the approval of a given operator An operator is allowed to transfer all tokens of the sender on their behalf.",
        "params": {
          "approved": "representing the status of the approval to be set",
          "operator": "operator address to set the approval"
        }
      },
      "supportsInterface(bytes4)": {
        "details": "See {IERC165-supportsInterface}.     * Time complexity O(1), guaranteed to always use less than 30 000 gas."
      },
      "transferFrom(address,address,uint256)": {
        "details": "Transfers the ownership of a given token ID to another address. Usage of this method is discouraged, use {safeTransferFrom} whenever possible. Requires the msg.sender to be the owner, approved, or operator.",
        "params": {
          "from": "current owner of the token",
          "to": "address to receive the ownership of the given token ID",
          "tokenId": "uint256 ID of the token to be transferred"
        }
      }
    }
  },
  "userdoc": {
    "methods": {}
  }
}