{
  "contractName": "FyghtersMock",
  "abi": [
    {
      "inputs": [
        {
          "internalType": "contract LoomDai",
          "name": "_dai",
          "type": "address"
        }
      ],
      "stateMutability": "nonpayable",
      "type": "constructor"
    },
    {
      "anonymous": false,
      "inputs": [
        {
          "indexed": true,
          "internalType": "address",
          "name": "owner",
          "type": "address"
        },
        {
          "indexed": true,
          "internalType": "address",
          "name": "approved",
          "type": "address"
        },
        {
          "indexed": true,
          "internalType": "uint256",
          "name": "tokenId",
          "type": "uint256"
        }
      ],
      "name": "Approval",
      "type": "event"
    },
    {
      "anonymous": false,
      "inputs": [
        {
          "indexed": true,
          "internalType": "address",
          "name": "owner",
          "type": "address"
        },
        {
          "indexed": true,
          "internalType": "address",
          "name": "operator",
          "type": "address"
        },
        {
          "indexed": false,
          "internalType": "bool",
          "name": "approved",
          "type": "bool"
        }
      ],
      "name": "ApprovalForAll",
      "type": "event"
    },
    {
      "anonymous": false,
      "inputs": [
        {
          "indexed": true,
          "internalType": "uint256",
          "name": "challengerId",
          "type": "uint256"
        },
        {
          "indexed": false,
          "internalType": "uint256",
          "name": "targetId",
          "type": "uint256"
        },
        {
          "indexed": false,
          "internalType": "uint256",
          "name": "winnerId",
          "type": "uint256"
        }
      ],
      "name": "ChallengeOccurred",
      "type": "event"
    },
    {
      "anonymous": false,
      "inputs": [
        {
          "indexed": true,
          "internalType": "uint256",
          "name": "id",
          "type": "uint256"
        },
        {
          "indexed": false,
          "internalType": "uint256",
          "name": "amount",
          "type": "uint256"
        }
      ],
      "name": "Deposited",
      "type": "event"
    },
    {
      "anonymous": false,
      "inputs": [
        {
          "indexed": true,
          "internalType": "address",
          "name": "owner",
          "type": "address"
        },
        {
          "indexed": false,
          "internalType": "uint256",
          "name": "id",
          "type": "uint256"
        },
        {
          "indexed": false,
          "internalType": "string",
          "name": "name",
          "type": "string"
        }
      ],
      "name": "FyghterCreated",
      "type": "event"
    },
    {
      "anonymous": false,
      "inputs": [
        {
          "indexed": true,
          "internalType": "uint256",
          "name": "id",
          "type": "uint256"
        },
        {
          "indexed": false,
          "internalType": "string",
          "name": "newName",
          "type": "string"
        }
      ],
      "name": "FyghterRenamed",
      "type": "event"
    },
    {
      "anonymous": false,
      "inputs": [
        {
          "indexed": true,
          "internalType": "uint256",
          "name": "id",
          "type": "uint256"
        },
        {
          "indexed": false,
          "internalType": "string",
          "name": "newSkin",
          "type": "string"
        }
      ],
      "name": "SkinChanged",
      "type": "event"
    },
    {
      "anonymous": false,
      "inputs": [
        {
          "indexed": true,
          "internalType": "address",
          "name": "from",
          "type": "address"
        },
        {
          "indexed": true,
          "internalType": "address",
          "name": "to",
          "type": "address"
        },
        {
          "indexed": true,
          "internalType": "uint256",
          "name": "tokenId",
          "type": "uint256"
        }
      ],
      "name": "Transfer",
      "type": "event"
    },
    {
      "anonymous": false,
      "inputs": [
        {
          "indexed": true,
          "internalType": "uint256",
          "name": "id",
          "type": "uint256"
        },
        {
          "indexed": false,
          "internalType": "uint256",
          "name": "amount",
          "type": "uint256"
        }
      ],
      "name": "Withdrawn",
      "type": "event"
    },
    {
      "inputs": [
        {
          "internalType": "address",
          "name": "to",
          "type": "address"
        },
        {
          "internalType": "uint256",
          "name": "tokenId",
          "type": "uint256"
        }
      ],
      "name": "approve",
      "outputs": [],
      "stateMutability": "nonpayable",
      "type": "function"
    },
    {
      "inputs": [
        {
          "internalType": "address",
          "name": "owner",
          "type": "address"
        }
      ],
      "name": "balanceOf",
      "outputs": [
        {
          "internalType": "uint256",
          "name": "",
          "type": "uint256"
        }
      ],
      "stateMutability": "view",
      "type": "function"
    },
    {
      "inputs": [
        {
          "internalType": "uint256",
          "name": "_winProbability",
          "type": "uint256"
        }
      ],
      "name": "calculateGainAndLoss",
      "outputs": [
        {
          "internalType": "uint256",
          "name": "gainIfWin",
          "type": "uint256"
        },
        {
          "internalType": "uint256",
          "name": "lossIfLose",
          "type": "uint256"
        }
      ],
      "stateMutability": "pure",
      "type": "function"
    },
    {
      "inputs": [
        {
          "internalType": "uint256",
          "name": "_challengerId",
          "type": "uint256"
        },
        {
          "internalType": "uint256",
          "name": "_targetId",
          "type": "uint256"
        }
      ],
      "name": "calculateWinProbability",
      "outputs": [
        {
          "internalType": "uint256",
          "name": "winProbability",
          "type": "uint256"
        }
      ],
      "stateMutability": "view",
      "type": "function"
    },
    {
      "inputs": [
        {
          "internalType": "uint256",
          "name": "_challengerId",
          "type": "uint256"
        },
        {
          "internalType": "uint256",
          "name": "_targetId",
          "type": "uint256"
        }
      ],
      "name": "challenge",
      "outputs": [],
      "stateMutability": "nonpayable",
      "type": "function"
    },
    {
      "inputs": [
        {
          "internalType": "uint256",
          "name": "_fyghterId",
          "type": "uint256"
        },
        {
          "internalType": "string",
          "name": "_newSkin",
          "type": "string"
        }
      ],
      "name": "changeSkin",
      "outputs": [],
      "stateMutability": "nonpayable",
      "type": "function"
    },
    {
      "inputs": [
        {
          "internalType": "string",
          "name": "_name",
          "type": "string"
        }
      ],
      "name": "create",
      "outputs": [],
      "stateMutability": "nonpayable",
      "type": "function"
    },
    {
      "inputs": [
        {
          "internalType": "uint256",
          "name": "_fyghterId",
          "type": "uint256"
        },
        {
          "internalType": "uint256",
          "name": "_amount",
          "type": "uint256"
        }
      ],
      "name": "deposit",
      "outputs": [],
      "stateMutability": "nonpayable",
      "type": "function"
    },
    {
      "inputs": [
        {
          "internalType": "uint256",
          "name": "",
          "type": "uint256"
        }
      ],
      "name": "fyghters",
      "outputs": [
        {
          "internalType": "uint256",
          "name": "id",
          "type": "uint256"
        },
        {
          "internalType": "string",
          "name": "name",
          "type": "string"
        },
        {
          "internalType": "string",
          "name": "skin",
          "type": "string"
        },
        {
          "internalType": "uint256",
          "name": "xp",
          "type": "uint256"
        },
        {
          "internalType": "uint256",
          "name": "balance",
          "type": "uint256"
        }
      ],
      "stateMutability": "view",
      "type": "function"
    },
    {
      "inputs": [
        {
          "internalType": "uint256",
          "name": "tokenId",
          "type": "uint256"
        }
      ],
      "name": "getApproved",
      "outputs": [
        {
          "internalType": "address",
          "name": "",
          "type": "address"
        }
      ],
      "stateMutability": "view",
      "type": "function"
    },
    {
      "inputs": [],
      "name": "getBetValue",
      "outputs": [
        {
          "internalType": "uint256",
          "name": "",
          "type": "uint256"
        }
      ],
      "stateMutability": "pure",
      "type": "function"
    },
    {
      "inputs": [],
      "name": "getMinimumDeposit",
      "outputs": [
        {
          "internalType": "uint256",
          "name": "",
          "type": "uint256"
        }
      ],
      "stateMutability": "pure",
      "type": "function"
    },
    {
      "inputs": [
        {
          "internalType": "address",
          "name": "owner",
          "type": "address"
        },
        {
          "internalType": "address",
          "name": "operator",
          "type": "address"
        }
      ],
      "name": "isApprovedForAll",
      "outputs": [
        {
          "internalType": "bool",
          "name": "",
          "type": "bool"
        }
      ],
      "stateMutability": "view",
      "type": "function"
    },
    {
      "inputs": [
        {
          "internalType": "uint256",
          "name": "tokenId",
          "type": "uint256"
        }
      ],
      "name": "ownerOf",
      "outputs": [
        {
          "internalType": "address",
          "name": "",
          "type": "address"
        }
      ],
      "stateMutability": "view",
      "type": "function"
    },
    {
      "inputs": [
        {
          "internalType": "uint256",
          "name": "_fyghterId",
          "type": "uint256"
        },
        {
          "internalType": "string",
          "name": "_newName",
          "type": "string"
        }
      ],
      "name": "rename",
      "outputs": [],
      "stateMutability": "nonpayable",
      "type": "function"
    },
    {
      "inputs": [
        {
          "internalType": "address",
          "name": "from",
          "type": "address"
        },
        {
          "internalType": "address",
          "name": "to",
          "type": "address"
        },
        {
          "internalType": "uint256",
          "name": "tokenId",
          "type": "uint256"
        }
      ],
      "name": "safeTransferFrom",
      "outputs": [],
      "stateMutability": "nonpayable",
      "type": "function"
    },
    {
      "inputs": [
        {
          "internalType": "address",
          "name": "from",
          "type": "address"
        },
        {
          "internalType": "address",
          "name": "to",
          "type": "address"
        },
        {
          "internalType": "uint256",
          "name": "tokenId",
          "type": "uint256"
        },
        {
          "internalType": "bytes",
          "name": "_data",
          "type": "bytes"
        }
      ],
      "name": "safeTransferFrom",
      "outputs": [],
      "stateMutability": "nonpayable",
      "type": "function"
    },
    {
      "inputs": [
        {
          "internalType": "address",
          "name": "operator",
          "type": "address"
        },
        {
          "internalType": "bool",
          "name": "approved",
          "type": "bool"
        }
      ],
      "name": "setApprovalForAll",
      "outputs": [],
      "stateMutability": "nonpayable",
      "type": "function"
    },
    {
      "inputs": [
        {
          "internalType": "uint256",
          "name": "",
          "type": "uint256"
        }
      ],
      "name": "skins",
      "outputs": [
        {
          "internalType": "string",
          "name": "skin",
          "type": "string"
        },
        {
          "internalType": "uint8",
          "name": "xpNeeded",
          "type": "uint8"
        }
      ],
      "stateMutability": "view",
      "type": "function"
    },
    {
      "inputs": [
        {
          "internalType": "bytes4",
          "name": "interfaceId",
          "type": "bytes4"
        }
      ],
      "name": "supportsInterface",
      "outputs": [
        {
          "internalType": "bool",
          "name": "",
          "type": "bool"
        }
      ],
      "stateMutability": "view",
      "type": "function"
    },
    {
      "inputs": [
        {
          "internalType": "address",
          "name": "from",
          "type": "address"
        },
        {
          "internalType": "address",
          "name": "to",
          "type": "address"
        },
        {
          "internalType": "uint256",
          "name": "tokenId",
          "type": "uint256"
        }
      ],
      "name": "transferFrom",
      "outputs": [],
      "stateMutability": "nonpayable",
      "type": "function"
    },
    {
      "inputs": [
        {
          "internalType": "uint256",
          "name": "_fyghterId",
          "type": "uint256"
        }
      ],
      "name": "withdrawAll",
      "outputs": [],
      "stateMutability": "nonpayable",
      "type": "function"
    },
    {
      "inputs": [
        {
          "internalType": "uint256",
          "name": "_myFyghterId",
          "type": "uint256"
        },
        {
          "internalType": "uint256",
          "name": "_enemyId",
          "type": "uint256"
        },
        {
          "internalType": "uint256",
          "name": "_winnerId",
          "type": "uint256"
        },
        {
          "internalType": "uint256",
          "name": "_winProbability",
          "type": "uint256"
        }
      ],
      "name": "deterministicChallenge",
      "outputs": [],
      "stateMutability": "nonpayable",
      "type": "function"
    },
    {
      "inputs": [
        {
          "internalType": "uint256",
          "name": "_fyghterId",
          "type": "uint256"
        },
        {
          "internalType": "uint256",
          "name": "_xp",
          "type": "uint256"
        }
      ],
      "name": "updateXp",
      "outputs": [],
      "stateMutability": "nonpayable",
      "type": "function"
    },
    {
      "inputs": [
        {
          "internalType": "uint256",
          "name": "_fyghterId",
          "type": "uint256"
        },
        {
          "internalType": "uint256",
          "name": "_balance",
          "type": "uint256"
        }
      ],
      "name": "updateBalance",
      "outputs": [],
      "stateMutability": "nonpayable",
      "type": "function"
    }
  ],
  "bytecode": "0x60806040523480156200001157600080fd5b506040516200466538038062004665833981810160405260208110156200003757600080fd5b810190808051906020019092919050505080620000616301ffc9a760e01b6200083d60201b60201c565b620000796380ac58cd60e01b6200083d60201b60201c565b80600560006101000a81548173ffffffffffffffffffffffffffffffffffffffff021916908373ffffffffffffffffffffffffffffffffffffffff160217905550600760405180604001604052806040518060400160405280600581526020017f6e616b65640000000000000000000000000000000000000000000000000000008152508152602001600160ff16815250908060018154018082558091505060019003906000526020600020906002020160009091909190915060008201518160000190805190602001906200015192919062000946565b5060208201518160010160006101000a81548160ff021916908360ff1602179055505050600760405180604001604052806040518060400160405280600a81526020017f6e6f726d616c5f677579000000000000000000000000000000000000000000008152508152602001600a60ff16815250908060018154018082558091505060019003906000526020600020906002020160009091909190915060008201518160000190805190602001906200020c92919062000946565b5060208201518160010160006101000a81548160ff021916908360ff1602179055505050600760405180604001604052806040518060400160405280600a81526020017f6b61726174655f6b6964000000000000000000000000000000000000000000008152508152602001600f60ff1681525090806001815401808255809150506001900390600052602060002090600202016000909190919091506000820151816000019080519060200190620002c792919062000946565b5060208201518160010160006101000a81548160ff021916908360ff1602179055505050600760405180604001604052806040518060400160405280600881526020017f6a61706f6e6573650000000000000000000000000000000000000000000000008152508152602001601960ff16815250908060018154018082558091505060019003906000526020600020906002020160009091909190915060008201518160000190805190602001906200038292919062000946565b5060208201518160010160006101000a81548160ff021916908360ff1602179055505050600760405180604001604052806040518060400160405280600481526020017f6d6f6e6b000000000000000000000000000000000000000000000000000000008152508152602001602860ff16815250908060018154018082558091505060019003906000526020600020906002020160009091909190915060008201518160000190805190602001906200043d92919062000946565b5060208201518160010160006101000a81548160ff021916908360ff1602179055505050600760405180604001604052806040518060400160405280600581526020017f6e696e6a610000000000000000000000000000000000000000000000000000008152508152602001603260ff1681525090806001815401808255809150506001900390600052602060002090600202016000909190919091506000820151816000019080519060200190620004f892919062000946565b5060208201518160010160006101000a81548160ff021916908360ff1602179055505050600760405180604001604052806040518060400160405280600681526020017f6e6f5f6f6e6500000000000000000000000000000000000000000000000000008152508152602001605060ff1681525090806001815401808255809150506001900390600052602060002090600202016000909190919091506000820151816000019080519060200190620005b392919062000946565b5060208201518160010160006101000a81548160ff021916908360ff1602179055505050600760405180604001604052806040518060400160405280600581526020017f64656d6f6e0000000000000000000000000000000000000000000000000000008152508152602001605060ff16815250908060018154018082558091505060019003906000526020600020906002020160009091909190915060008201518160000190805190602001906200066e92919062000946565b5060208201518160010160006101000a81548160ff021916908360ff1602179055505050600760405180604001604052806040518060400160405280600681526020017f6d617374657200000000000000000000000000000000000000000000000000008152508152602001606460ff16815250908060018154018082558091505060019003906000526020600020906002020160009091909190915060008201518160000190805190602001906200072992919062000946565b5060208201518160010160006101000a81548160ff021916908360ff160217905550505060008090505b6007805490508110156200083457600781815481106200076f57fe5b906000526020600020906002020160010160009054906101000a900460ff1660ff16600860078381548110620007a157fe5b90600052602060002090600202016000016040518082805460018160011615610100020316600290048015620008115780601f10620007ee57610100808354040283529182019162000811565b820191906000526020600020905b815481529060010190602001808311620007fc575b505091505090815260200160405180910390208190555080600101905062000753565b505050620009f5565b63ffffffff60e01b817bffffffffffffffffffffffffffffffffffffffffffffffffffffffff19161415620008da576040517f08c379a000000000000000000000000000000000000000000000000000000000815260040180806020018281038252601c8152602001807f4552433136353a20696e76616c696420696e746572666163652069640000000081525060200191505060405180910390fd5b6001600080837bffffffffffffffffffffffffffffffffffffffffffffffffffffffff19167bffffffffffffffffffffffffffffffffffffffffffffffffffffffff1916815260200190815260200160002060006101000a81548160ff02191690831515021790555050565b828054600181600116156101000203166002900490600052602060002090601f016020900481019282601f106200098957805160ff1916838001178555620009ba565b82800160010185558215620009ba579182015b82811115620009b95782518255916020019190600101906200099c565b5b509050620009c99190620009cd565b5090565b620009f291905b80821115620009ee576000816000905550600101620009d4565b5090565b90565b613c608062000a056000396000f3fe608060405234801561001057600080fd5b50600436106101735760003560e01c80636e8c9a14116100de578063b6a46b3b11610097578063c287e49311610071578063c287e49314610a5a578063d35bf1d914610a92578063e2bbb15814610ade578063e985e9c514610b1657610173565b8063b6a46b3b14610890578063b88d4fde14610909578063b94c940614610a0e57610173565b80636e8c9a14146106d057806370a08231146106ee578063958e2d31146107465780639abc61f514610774578063a22cb465146107bd578063a91635361461080d57610173565b80632e414890116101305780632e414890146103d95780633ec2d8361461041157806342842e0e1461049457806349b640c51461050257806358453fef1461062a5780636352211e1461066257610173565b806301ffc9a714610178578063035cf142146101dd578063081812fc146101fb578063095ea7b31461026957806323b872dd146102b75780632db2ede514610325575b600080fd5b6101c36004803603602081101561018e57600080fd5b8101908080357bffffffffffffffffffffffffffffffffffffffffffffffffffffffff19169060200190929190505050610b92565b604051808215151515815260200191505060405180910390f35b6101e5610bf9565b6040518082815260200191505060405180910390f35b6102276004803603602081101561021157600080fd5b8101908080359060200190929190505050610c0c565b604051808273ffffffffffffffffffffffffffffffffffffffff1673ffffffffffffffffffffffffffffffffffffffff16815260200191505060405180910390f35b6102b56004803603604081101561027f57600080fd5b81019080803573ffffffffffffffffffffffffffffffffffffffff16906020019092919080359060200190929190505050610ca7565b005b610323600480360360608110156102cd57600080fd5b81019080803573ffffffffffffffffffffffffffffffffffffffff169060200190929190803573ffffffffffffffffffffffffffffffffffffffff16906020019092919080359060200190929190505050610deb565b005b6103516004803603602081101561033b57600080fd5b8101908080359060200190929190505050610e61565b60405180806020018360ff1660ff168152602001828103825284818151815260200191508051906020019080838360005b8381101561039d578082015181840152602081019050610382565b50505050905090810190601f1680156103ca5780820380516001836020036101000a031916815260200191505b50935050505060405180910390f35b61040f600480360360408110156103ef57600080fd5b810190808035906020019092919080359060200190929190505050610f37565b005b6104926004803603604081101561042757600080fd5b81019080803590602001909291908035906020019064010000000081111561044e57600080fd5b82018360208201111561046057600080fd5b8035906020019184600183028401116401000000008311171561048257600080fd5b9091929391929390505050611000565b005b610500600480360360608110156104aa57600080fd5b81019080803573ffffffffffffffffffffffffffffffffffffffff169060200190929190803573ffffffffffffffffffffffffffffffffffffffff16906020019092919080359060200190929190505050611125565b005b61052e6004803603602081101561051857600080fd5b8101908080359060200190929190505050611145565b604051808681526020018060200180602001858152602001848152602001838103835287818151815260200191508051906020019080838360005b83811015610584578082015181840152602081019050610569565b50505050905090810190601f1680156105b15780820380516001836020036101000a031916815260200191505b50838103825286818151815260200191508051906020019080838360005b838110156105ea5780820151818401526020810190506105cf565b50505050905090810190601f1680156106175780820380516001836020036101000a031916815260200191505b5097505050505050505060405180910390f35b6106606004803603604081101561064057600080fd5b8101908080359060200190929190803590602001909291905050506112b8565b005b61068e6004803603602081101561067857600080fd5b81019080803590602001909291905050506112df565b604051808273ffffffffffffffffffffffffffffffffffffffff1673ffffffffffffffffffffffffffffffffffffffff16815260200191505060405180910390f35b6106d86113a7565b6040518082815260200191505060405180910390f35b6107306004803603602081101561070457600080fd5b81019080803573ffffffffffffffffffffffffffffffffffffffff1690602001909291905050506113ba565b6040518082815260200191505060405180910390f35b6107726004803603602081101561075c57600080fd5b810190808035906020019092919050505061148f565b005b6107a06004803603602081101561078a57600080fd5b81019080803590602001909291905050506116f6565b604051808381526020018281526020019250505060405180910390f35b61080b600480360360408110156107d357600080fd5b81019080803573ffffffffffffffffffffffffffffffffffffffff16906020019092919080351515906020019092919050505061178c565b005b61088e6004803603604081101561082357600080fd5b81019080803590602001909291908035906020019064010000000081111561084a57600080fd5b82018360208201111561085c57600080fd5b8035906020019184600183028401116401000000008311171561087e57600080fd5b9091929391929390505050611944565b005b610907600480360360208110156108a657600080fd5b81019080803590602001906401000000008111156108c357600080fd5b8201836020820111156108d557600080fd5b803590602001918460018302840111640100000000831117156108f757600080fd5b9091929391929390505050611bd2565b005b610a0c6004803603608081101561091f57600080fd5b81019080803573ffffffffffffffffffffffffffffffffffffffff169060200190929190803573ffffffffffffffffffffffffffffffffffffffff169060200190929190803590602001909291908035906020019064010000000081111561098657600080fd5b82018360208201111561099857600080fd5b803590602001918460018302840111640100000000831117156109ba57600080fd5b91908080601f016020809104026020016040519081016040528093929190818152602001838380828437600081840152601f19601f820116905080830192505050505050509192919290505050611e77565b005b610a4460048036036040811015610a2457600080fd5b810190808035906020019092919080359060200190929190505050611eef565b6040518082815260200191505060405180910390f35b610a9060048036036040811015610a7057600080fd5b81019080803590602001909291908035906020019092919050505061226a565b005b610adc60048036036080811015610aa857600080fd5b8101908080359060200190929190803590602001909291908035906020019092919080359060200190929190505050612291565b005b610b1460048036036040811015610af457600080fd5b8101908080359060200190929190803590602001909291905050506122a3565b005b610b7860048036036040811015610b2c57600080fd5b81019080803573ffffffffffffffffffffffffffffffffffffffff169060200190929190803573ffffffffffffffffffffffffffffffffffffffff169060200190929190505050612520565b604051808215151515815260200191505060405180910390f35b6000806000837bffffffffffffffffffffffffffffffffffffffffffffffffffffffff19167bffffffffffffffffffffffffffffffffffffffffffffffffffffffff1916815260200190815260200160002060009054906101000a900460ff169050919050565b60006005670de0b6b3a764000002905090565b6000610c17826125b4565b610c6c576040517f08c379a000000000000000000000000000000000000000000000000000000000815260040180806020018281038252602c815260200180613ae6602c913960400191505060405180910390fd5b6002600083815260200190815260200160002060009054906101000a900473ffffffffffffffffffffffffffffffffffffffff169050919050565b6000610cb2826112df565b90508073ffffffffffffffffffffffffffffffffffffffff168373ffffffffffffffffffffffffffffffffffffffff161415610d39576040517f08c379a0000000000000000000000000000000000000000000000000000000008152600401808060200182810382526021815260200180613b836021913960400191505060405180910390fd5b8073ffffffffffffffffffffffffffffffffffffffff16610d58612626565b73ffffffffffffffffffffffffffffffffffffffff161480610d875750610d8681610d81612626565b612520565b5b610ddc576040517f08c379a0000000000000000000000000000000000000000000000000000000008152600401808060200182810382526038815260200180613a3a6038913960400191505060405180910390fd5b610de6838361262e565b505050565b610dfc610df6612626565b826126e7565b610e51576040517f08c379a0000000000000000000000000000000000000000000000000000000008152600401808060200182810382526031815260200180613bcd6031913960400191505060405180910390fd5b610e5c8383836127db565b505050565b60078181548110610e6e57fe5b9060005260206000209060020201600091509050806000018054600181600116156101000203166002900480601f016020809104026020016040519081016040528092919081815260200182805460018160011615610100020316600290048015610f1a5780601f10610eef57610100808354040283529160200191610f1a565b820191906000526020600020905b815481529060010190602001808311610efd57829003601f168201915b5050505050908060010160009054906101000a900460ff16905082565b81610f41816112df565b73ffffffffffffffffffffffffffffffffffffffff163373ffffffffffffffffffffffffffffffffffffffff1614610fc4576040517f08c379a000000000000000000000000000000000000000000000000000000000815260040180806020018281038252602d815260200180613bfe602d913960400191505060405180910390fd5b6000610fd08484611eef565b9050600081610fdd612a43565b1115610fe95783610feb565b845b9050610ff985858385612aa3565b5050505050565b8261100a816112df565b73ffffffffffffffffffffffffffffffffffffffff163373ffffffffffffffffffffffffffffffffffffffff161461108d576040517f08c379a000000000000000000000000000000000000000000000000000000000815260040180806020018281038252602d815260200180613bfe602d913960400191505060405180910390fd5b82826006868154811061109c57fe5b906000526020600020906005020160010191906110ba929190613819565b50837f553656c6feb05b3e720bd33ad52f9cc39bc80982fb434f80e81391abc4c9dda5848460405180806020018281038252848482818152602001925080828437600081840152601f19601f820116905080830192505050935050505060405180910390a250505050565b61114083838360405180602001604052806000815250611e77565b505050565b6006818154811061115257fe5b9060005260206000209060050201600091509050806000015490806001018054600181600116156101000203166002900480601f0160208091040260200160405190810160405280929190818152602001828054600181600116156101000203166002900480156112045780601f106111d957610100808354040283529160200191611204565b820191906000526020600020905b8154815290600101906020018083116111e757829003601f168201915b505050505090806002018054600181600116156101000203166002900480601f0160208091040260200160405190810160405280929190818152602001828054600181600116156101000203166002900480156112a25780601f10611277576101008083540402835291602001916112a2565b820191906000526020600020905b81548152906001019060200180831161128557829003601f168201915b5050505050908060030154908060040154905085565b80600683815481106112c657fe5b9060005260206000209060050201600401819055505050565b6000806001600084815260200190815260200160002060009054906101000a900473ffffffffffffffffffffffffffffffffffffffff169050600073ffffffffffffffffffffffffffffffffffffffff168173ffffffffffffffffffffffffffffffffffffffff16141561139e576040517f08c379a0000000000000000000000000000000000000000000000000000000008152600401808060200182810382526029815260200180613a9c6029913960400191505060405180910390fd5b80915050919050565b60006005670de0b6b3a764000002905090565b60008073ffffffffffffffffffffffffffffffffffffffff168273ffffffffffffffffffffffffffffffffffffffff161415611441576040517f08c379a000000000000000000000000000000000000000000000000000000000815260040180806020018281038252602a815260200180613a72602a913960400191505060405180910390fd5b611488600360008473ffffffffffffffffffffffffffffffffffffffff1673ffffffffffffffffffffffffffffffffffffffff168152602001908152602001600020612cef565b9050919050565b80611499816112df565b73ffffffffffffffffffffffffffffffffffffffff163373ffffffffffffffffffffffffffffffffffffffff161461151c576040517f08c379a000000000000000000000000000000000000000000000000000000000815260040180806020018281038252602d815260200180613bfe602d913960400191505060405180910390fd5b60006006838154811061152b57fe5b906000526020600020906005020160040154905060006006848154811061154e57fe5b906000526020600020906005020160040181905550600560009054906101000a900473ffffffffffffffffffffffffffffffffffffffff1673ffffffffffffffffffffffffffffffffffffffff1663a9059cbb33836040518363ffffffff1660e01b8152600401808373ffffffffffffffffffffffffffffffffffffffff1673ffffffffffffffffffffffffffffffffffffffff16815260200182815260200192505050602060405180830381600087803b15801561160c57600080fd5b505af1158015611620573d6000803e3d6000fd5b505050506040513d602081101561163657600080fd5b81019080805190602001909291905050506116b9576040517f08c379a000000000000000000000000000000000000000000000000000000000815260040180806020018281038252601d8152602001807f5769746864726177207472616e736665722077697468206572726f722e00000081525060200191505060405180910390fd5b827f0c875c8d391179c5cf7ad8303d268efd50b8beb78b671f85cd54bfb91eb8ef40826040518082815260200191505060405180910390a2505050565b60008061174b670de0b6b3a764000061173d61172386670de0b6b3a7640000612cfd90919063ffffffff16565b6005670de0b6b3a764000002612d4790919063ffffffff16565b612dcd90919063ffffffff16565b9150611785670de0b6b3a7640000611777856005670de0b6b3a764000002612d4790919063ffffffff16565b612dcd90919063ffffffff16565b9050915091565b611794612626565b73ffffffffffffffffffffffffffffffffffffffff168273ffffffffffffffffffffffffffffffffffffffff161415611835576040517f08c379a00000000000000000000000000000000000000000000000000000000081526004018080602001828103825260198152602001807f4552433732313a20617070726f766520746f2063616c6c65720000000000000081525060200191505060405180910390fd5b8060046000611842612626565b73ffffffffffffffffffffffffffffffffffffffff1673ffffffffffffffffffffffffffffffffffffffff16815260200190815260200160002060008473ffffffffffffffffffffffffffffffffffffffff1673ffffffffffffffffffffffffffffffffffffffff16815260200190815260200160002060006101000a81548160ff0219169083151502179055508173ffffffffffffffffffffffffffffffffffffffff166118ef612626565b73ffffffffffffffffffffffffffffffffffffffff167f17307eab39ab6107e8899845ad3d59bd9653f200f220920489ca2b5937696c3183604051808215151515815260200191505060405180910390a35050565b8261194e816112df565b73ffffffffffffffffffffffffffffffffffffffff163373ffffffffffffffffffffffffffffffffffffffff16146119d1576040517f08c379a000000000000000000000000000000000000000000000000000000000815260040180806020018281038252602d815260200180613bfe602d913960400191505060405180910390fd5b611a1e83838080601f016020809104026020016040519081016040528093929190818152602001838380828437600081840152601f19601f82011690508083019250505050505050612e17565b611a90576040517f08c379a000000000000000000000000000000000000000000000000000000000815260040180806020018281038252600d8152602001807f496e76616c696420736b696e2e0000000000000000000000000000000000000081525060200191505060405180910390fd5b600060068581548110611a9f57fe5b9060005260206000209060050201905060006008858560405180838380828437808301925050509250505090815260200160405180910390205490508082600301541015611b38576040517f08c379a0000000000000000000000000000000000000000000000000000000008152600401808060200182810382526024815260200180613b5f6024913960400191505060405180910390fd5b848460068881548110611b4757fe5b90600052602060002090600502016002019190611b65929190613819565b50857f546aa5db2f34cd0c10c3bf80054ede7658175a11189cbeee6241bd45952c3a99868660405180806020018281038252848482818152602001925080828437600081840152601f19601f820116905080830192505050935050505060405180910390a2505050505050565b6000611bdd336113ba565b14611c33576040517f08c379a0000000000000000000000000000000000000000000000000000000008152600401808060200182810382526024815260200180613b126024913960400191505060405180910390fd5b6000600680549050905060066040518060a0016040528083815260200185858080601f016020809104026020016040519081016040528093929190818152602001838380828437600081840152601f19601f8201169050808301925050505050505081526020016007600081548110611ca857fe5b90600052602060002090600202016000018054600181600116156101000203166002900480601f016020809104026020016040519081016040528092919081815260200182805460018160011615610100020316600290048015611d4d5780601f10611d2257610100808354040283529160200191611d4d565b820191906000526020600020905b815481529060010190602001808311611d3057829003601f168201915b505050505081526020016001815260200160008152509080600181540180825580915050600190039060005260206000209060050201600090919091909150600082015181600001556020820151816001019080519060200190611db2929190613899565b506040820151816002019080519060200190611dcf929190613899565b5060608201518160030155608082015181600401555050611df03382612e8c565b3373ffffffffffffffffffffffffffffffffffffffff167f1243c32293ccfe8a2001f7de06e504e0ffb98f63144253faa43123a5cffe93dc82858560405180848152602001806020018281038252848482818152602001925080828437600081840152601f19601f82011690508083019250505094505050505060405180910390a2505050565b611e88611e82612626565b836126e7565b611edd576040517f08c379a0000000000000000000000000000000000000000000000000000000008152600401808060200182810382526031815260200180613bcd6031913960400191505060405180910390fd5b611ee9848484846130b0565b50505050565b6000611ef9613919565b60068481548110611f0657fe5b90600052602060002090600502016040518060a001604052908160008201548152602001600182018054600181600116156101000203166002900480601f016020809104026020016040519081016040528092919081815260200182805460018160011615610100020316600290048015611fc25780601f10611f9757610100808354040283529160200191611fc2565b820191906000526020600020905b815481529060010190602001808311611fa557829003601f168201915b50505050508152602001600282018054600181600116156101000203166002900480601f0160208091040260200160405190810160405280929190818152602001828054600181600116156101000203166002900480156120645780601f1061203957610100808354040283529160200191612064565b820191906000526020600020905b81548152906001019060200180831161204757829003601f168201915b5050505050815260200160038201548152602001600482015481525050905061208b613919565b6006848154811061209857fe5b90600052602060002090600502016040518060a001604052908160008201548152602001600182018054600181600116156101000203166002900480601f0160208091040260200160405190810160405280929190818152602001828054600181600116156101000203166002900480156121545780601f1061212957610100808354040283529160200191612154565b820191906000526020600020905b81548152906001019060200180831161213757829003601f168201915b50505050508152602001600282018054600181600116156101000203166002900480601f0160208091040260200160405190810160405280929190818152602001828054600181600116156101000203166002900480156121f65780601f106121cb576101008083540402835291602001916121f6565b820191906000526020600020905b8154815290600101906020018083116121d957829003601f168201915b505050505081526020016003820154815260200160048201548152505090506122606122338260600151846060015161312290919063ffffffff16565b612252670de0b6b3a76400008560600151612d4790919063ffffffff16565b612dcd90919063ffffffff16565b9250505092915050565b806006838154811061227857fe5b9060005260206000209060050201600301819055505050565b61229d84848484612aa3565b50505050565b600560009054906101000a900473ffffffffffffffffffffffffffffffffffffffff1673ffffffffffffffffffffffffffffffffffffffff166323b872dd3330846040518463ffffffff1660e01b8152600401808473ffffffffffffffffffffffffffffffffffffffff1673ffffffffffffffffffffffffffffffffffffffff1681526020018373ffffffffffffffffffffffffffffffffffffffff1673ffffffffffffffffffffffffffffffffffffffff1681526020018281526020019350505050602060405180830381600087803b15801561238057600080fd5b505af1158015612394573d6000803e3d6000fd5b505050506040513d60208110156123aa57600080fd5b810190808051906020019092919050505061242d576040517f08c379a000000000000000000000000000000000000000000000000000000000815260040180806020018281038252601c8152602001807f4465706f736974207472616e736665722077697468206572726f722e0000000081525060200191505060405180910390fd5b6005670de0b6b3a764000002811015612491576040517f08c379a000000000000000000000000000000000000000000000000000000000815260040180806020018281038252602481526020018061396e6024913960400191505060405180910390fd5b6124c281600684815481106124a257fe5b90600052602060002090600502016004015461312290919063ffffffff16565b600683815481106124cf57fe5b906000526020600020906005020160040181905550817f06da3309189fa49284f335d2c2bcb4cb0b8ad2a59ad92a9bdebeeb8f1ceba511826040518082815260200191505060405180910390a25050565b6000600460008473ffffffffffffffffffffffffffffffffffffffff1673ffffffffffffffffffffffffffffffffffffffff16815260200190815260200160002060008373ffffffffffffffffffffffffffffffffffffffff1673ffffffffffffffffffffffffffffffffffffffff16815260200190815260200160002060009054906101000a900460ff16905092915050565b6000806001600084815260200190815260200160002060009054906101000a900473ffffffffffffffffffffffffffffffffffffffff169050600073ffffffffffffffffffffffffffffffffffffffff168173ffffffffffffffffffffffffffffffffffffffff161415915050919050565b600033905090565b816002600083815260200190815260200160002060006101000a81548173ffffffffffffffffffffffffffffffffffffffff021916908373ffffffffffffffffffffffffffffffffffffffff160217905550808273ffffffffffffffffffffffffffffffffffffffff166126a1836112df565b73ffffffffffffffffffffffffffffffffffffffff167f8c5be1e5ebec7d5bd14f71427d1e84f3dd0314c0f7b2291e5b200ac8c7c3b92560405160405180910390a45050565b60006126f2826125b4565b612747576040517f08c379a000000000000000000000000000000000000000000000000000000000815260040180806020018281038252602c815260200180613a0e602c913960400191505060405180910390fd5b6000612752836112df565b90508073ffffffffffffffffffffffffffffffffffffffff168473ffffffffffffffffffffffffffffffffffffffff1614806127c157508373ffffffffffffffffffffffffffffffffffffffff166127a984610c0c565b73ffffffffffffffffffffffffffffffffffffffff16145b806127d257506127d18185612520565b5b91505092915050565b8273ffffffffffffffffffffffffffffffffffffffff166127fb826112df565b73ffffffffffffffffffffffffffffffffffffffff1614612867576040517f08c379a0000000000000000000000000000000000000000000000000000000008152600401808060200182810382526029815260200180613b366029913960400191505060405180910390fd5b600073ffffffffffffffffffffffffffffffffffffffff168273ffffffffffffffffffffffffffffffffffffffff1614156128ed576040517f08c379a00000000000000000000000000000000000000000000000000000000081526004018080602001828103825260248152602001806139ea6024913960400191505060405180910390fd5b6128f88383836131aa565b61290360008261262e565b61294a600360008573ffffffffffffffffffffffffffffffffffffffff1673ffffffffffffffffffffffffffffffffffffffff1681526020019081526020016000206131af565b612991600360008473ffffffffffffffffffffffffffffffffffffffff1673ffffffffffffffffffffffffffffffffffffffff1681526020019081526020016000206131d2565b816001600083815260200190815260200160002060006101000a81548173ffffffffffffffffffffffffffffffffffffffff021916908373ffffffffffffffffffffffffffffffffffffffff160217905550808273ffffffffffffffffffffffffffffffffffffffff168473ffffffffffffffffffffffffffffffffffffffff167fddf252ad1be2c89b69c2b068fc378daa952ba7f163c4a11628f55a4df523b3ef60405160405180910390a4505050565b6000612a9e6064670de0b6b3a76400006064424460405160200180838152602001828152602001925050506040516020818303038152906040528051906020012060001c81612a8e57fe5b0602612dcd90919063ffffffff16565b905090565b600080612aaf836116f6565b915091508060068781548110612ac157fe5b9060005260206000209060050201600401541015612b2a576040517f08c379a0000000000000000000000000000000000000000000000000000000008152600401808060200182810382526029815260200180613ba46029913960400191505060405180910390fd5b8160068681548110612b3857fe5b9060005260206000209060050201600401541015612ba1576040517f08c379a00000000000000000000000000000000000000000000000000000000081526004018080602001828103825260268152602001806139c46026913960400191505060405180910390fd5b6000848714612bb05781612bb2565b825b90506000878614612bc35787612bc5565b865b905060068681548110612bd457fe5b906000526020600020906005020160030160008154809291906001019190505550612c268260068881548110612c0657fe5b90600052602060002090600502016004015461312290919063ffffffff16565b60068781548110612c3357fe5b906000526020600020906005020160040181905550612c798260068381548110612c5957fe5b906000526020600020906005020160040154612cfd90919063ffffffff16565b60068281548110612c8657fe5b906000526020600020906005020160040181905550612ca4866131e8565b50877f9710e56297b5e8778d11e7e8579c9906ed103bf38376059777631205ff0c57788888604051808381526020018281526020019250505060405180910390a25050505050505050565b600081600001549050919050565b6000612d3f83836040518060400160405280601e81526020017f536166654d6174683a207375627472616374696f6e206f766572666c6f770000815250613325565b905092915050565b600080831415612d5a5760009050612dc7565b6000828402905082848281612d6b57fe5b0414612dc2576040517f08c379a0000000000000000000000000000000000000000000000000000000008152600401808060200182810382526021815260200180613ac56021913960400191505060405180910390fd5b809150505b92915050565b6000612e0f83836040518060400160405280601a81526020017f536166654d6174683a206469766973696f6e206279207a65726f0000000000008152506133e5565b905092915050565b6000806008836040518082805190602001908083835b60208310612e505780518252602082019150602081019050602083039250612e2d565b6001836020036101000a038019825116818451168082178552505050505050905001915050908152602001604051809103902054119050919050565b600073ffffffffffffffffffffffffffffffffffffffff168273ffffffffffffffffffffffffffffffffffffffff161415612f2f576040517f08c379a00000000000000000000000000000000000000000000000000000000081526004018080602001828103825260208152602001807f4552433732313a206d696e7420746f20746865207a65726f206164647265737381525060200191505060405180910390fd5b612f38816125b4565b15612fab576040517f08c379a000000000000000000000000000000000000000000000000000000000815260040180806020018281038252601c8152602001807f4552433732313a20746f6b656e20616c7265616479206d696e7465640000000081525060200191505060405180910390fd5b612fb7600083836131aa565b816001600083815260200190815260200160002060006101000a81548173ffffffffffffffffffffffffffffffffffffffff021916908373ffffffffffffffffffffffffffffffffffffffff160217905550613050600360008473ffffffffffffffffffffffffffffffffffffffff1673ffffffffffffffffffffffffffffffffffffffff1681526020019081526020016000206131d2565b808273ffffffffffffffffffffffffffffffffffffffff16600073ffffffffffffffffffffffffffffffffffffffff167fddf252ad1be2c89b69c2b068fc378daa952ba7f163c4a11628f55a4df523b3ef60405160405180910390a45050565b6130bb8484846127db565b6130c7848484846134ab565b61311c576040517f08c379a00000000000000000000000000000000000000000000000000000000081526004018080602001828103825260328152602001806139926032913960400191505060405180910390fd5b50505050565b6000808284019050838110156131a0576040517f08c379a000000000000000000000000000000000000000000000000000000000815260040180806020018281038252601b8152602001807f536166654d6174683a206164646974696f6e206f766572666c6f77000000000081525060200191505060405180910390fd5b8091505092915050565b505050565b6131c760018260000154612cfd90919063ffffffff16565b816000018190555050565b6001816000016000828254019250508190555050565b6060600060016007805490500390505b6000811061331f576007818154811061320d57fe5b906000526020600020906002020160010160009054906101000a900460ff1660ff166006848154811061323c57fe5b90600052602060002090600502016003015410613311576007818154811061326057fe5b90600052602060002090600202016000018054600181600116156101000203166002900480601f0160208091040260200160405190810160405280929190818152602001828054600181600116156101000203166002900480156133055780601f106132da57610100808354040283529160200191613305565b820191906000526020600020905b8154815290600101906020018083116132e857829003601f168201915b5050505050915061331f565b8080600190039150506131f8565b50919050565b60008383111582906133d2576040517f08c379a00000000000000000000000000000000000000000000000000000000081526004018080602001828103825283818151815260200191508051906020019080838360005b8381101561339757808201518184015260208101905061337c565b50505050905090810190601f1680156133c45780820380516001836020036101000a031916815260200191505b509250505060405180910390fd5b5060008385039050809150509392505050565b60008083118290613491576040517f08c379a00000000000000000000000000000000000000000000000000000000081526004018080602001828103825283818151815260200191508051906020019080838360005b8381101561345657808201518184015260208101905061343b565b50505050905090810190601f1680156134835780820380516001836020036101000a031916815260200191505b509250505060405180910390fd5b50600083858161349d57fe5b049050809150509392505050565b60006134cc8473ffffffffffffffffffffffffffffffffffffffff166137ce565b6134d957600190506137c6565b600060608573ffffffffffffffffffffffffffffffffffffffff1663150b7a0260e01b613504612626565b898888604051602401808573ffffffffffffffffffffffffffffffffffffffff1673ffffffffffffffffffffffffffffffffffffffff1681526020018473ffffffffffffffffffffffffffffffffffffffff1673ffffffffffffffffffffffffffffffffffffffff16815260200183815260200180602001828103825283818151815260200191508051906020019080838360005b838110156135b4578082015181840152602081019050613599565b50505050905090810190601f1680156135e15780820380516001836020036101000a031916815260200191505b5095505050505050604051602081830303815290604052907bffffffffffffffffffffffffffffffffffffffffffffffffffffffff19166020820180517bffffffffffffffffffffffffffffffffffffffffffffffffffffffff83818316178352505050506040518082805190602001908083835b602083106136795780518252602082019150602081019050602083039250613656565b6001836020036101000a0380198251168184511680821785525050505050509050019150506000604051808303816000865af19150503d80600081146136db576040519150601f19603f3d011682016040523d82523d6000602084013e6136e0565b606091505b50915091508161374e576000815111156136fd5780518082602001fd5b6040517f08c379a00000000000000000000000000000000000000000000000000000000081526004018080602001828103825260328152602001806139926032913960400191505060405180910390fd5b600081806020019051602081101561376557600080fd5b8101908080519060200190929190505050905063150b7a0260e01b7bffffffffffffffffffffffffffffffffffffffffffffffffffffffff1916817bffffffffffffffffffffffffffffffffffffffffffffffffffffffff19161493505050505b949350505050565b60008060007fc5d2460186f7233c927e7db2dcc703c0e500b653ca82273b7bfad8045d85a47060001b9050833f915080821415801561381057506000801b8214155b92505050919050565b828054600181600116156101000203166002900490600052602060002090601f016020900481019282601f1061385a57803560ff1916838001178555613888565b82800160010185558215613888579182015b8281111561388757823582559160200191906001019061386c565b5b5090506138959190613948565b5090565b828054600181600116156101000203166002900490600052602060002090601f016020900481019282601f106138da57805160ff1916838001178555613908565b82800160010185558215613908579182015b828111156139075782518255916020019190600101906138ec565b5b5090506139159190613948565b5090565b6040518060a0016040528060008152602001606081526020016060815260200160008152602001600081525090565b61396a91905b8082111561396657600081600090555060010161394e565b5090565b9056fe4465706f73697420616d6f756e74206c657373207468616e20746865206d696e696d756d4552433732313a207472616e7366657220746f206e6f6e20455243373231526563656976657220696d706c656d656e74657254686520656e656d7920646f65736e2774206861766520656e6f7567682062616c616e63652e4552433732313a207472616e7366657220746f20746865207a65726f20616464726573734552433732313a206f70657261746f7220717565727920666f72206e6f6e6578697374656e7420746f6b656e4552433732313a20617070726f76652063616c6c6572206973206e6f74206f776e6572206e6f7220617070726f76656420666f7220616c6c4552433732313a2062616c616e636520717565727920666f7220746865207a65726f20616464726573734552433732313a206f776e657220717565727920666f72206e6f6e6578697374656e7420746f6b656e536166654d6174683a206d756c7469706c69636174696f6e206f766572666c6f774552433732313a20617070726f76656420717565727920666f72206e6f6e6578697374656e7420746f6b656e4561636820757365722063616e2068617665206a757374206f6e6520667967687465722e4552433732313a207472616e73666572206f6620746f6b656e2074686174206973206e6f74206f776e596f7572206679676874657220646f65736e2774206861766520656e6f7567682058502e4552433732313a20617070726f76616c20746f2063757272656e74206f776e6572596f7572206679676874657220646f65736e2774206861766520656e6f7567682062616c616e63652e4552433732313a207472616e736665722063616c6c6572206973206e6f74206f776e6572206e6f7220617070726f76656454686973206f7065726174696f6e206f6e6c792063616e20626520646f6e6520627920746865206f776e65722ea264697066735822122000b5ae7e68b0113d99b5da28b4381c5c43a0f24366cb40dafff3837115e1159264736f6c63430006020033",
  "source": "pragma solidity 0.6.2;\n\nimport \"../Fyghters.sol\";\n\n\ncontract FyghtersMock is Fyghters {\n    constructor(LoomDai _dai) public Fyghters(_dai) {}\n\n    function deterministicChallenge(uint256 _myFyghterId, uint256 _enemyId, uint256 _winnerId, uint256 _winProbability)\n        external\n    {\n        processChallengeResult(_myFyghterId, _enemyId, _winnerId, _winProbability);\n    }\n\n    function updateXp(uint256 _fyghterId, uint256 _xp) public {\n        fyghters[_fyghterId].xp = _xp;\n    }\n\n    function updateBalance(uint256 _fyghterId, uint256 _balance) public {\n        fyghters[_fyghterId].balance = _balance;\n    }\n}\n",
  "sourcePath": "/home/cmarcelo/git/fyght/packages/contracts/contracts/mocks/FyghtersMock.sol",
  "compiler": {
    "name": "solc",
    "version": "0.6.2+commit.bacdbe57.Emscripten.clang"
  },
  "schemaVersion": "3.0.23",
  "updatedAt": "2020-04-08T20:33:59.435Z",
  "devdoc": {
    "methods": {
      "approve(address,uint256)": {
        "details": "Approves another address to transfer the given token ID The zero address indicates there is no approved address. There can only be one approved address per token at a given time. Can only be called by the token owner or an approved operator.",
        "params": {
          "to": "address to be approved for the given token ID",
          "tokenId": "uint256 ID of the token to be approved"
        }
      },
      "balanceOf(address)": {
        "details": "Gets the balance of the specified address.",
        "params": {
          "owner": "address to query the balance of"
        },
        "returns": {
          "_0": "uint256 representing the amount owned by the passed address"
        }
      },
      "getApproved(uint256)": {
        "details": "Gets the approved address for a token ID, or zero if no address set Reverts if the token ID does not exist.",
        "params": {
          "tokenId": "uint256 ID of the token to query the approval of"
        },
        "returns": {
          "_0": "address currently approved for the given token ID"
        }
      },
      "isApprovedForAll(address,address)": {
        "details": "Tells whether an operator is approved by a given owner.",
        "params": {
          "operator": "operator address which you want to query the approval of",
          "owner": "owner address which you want to query the approval of"
        },
        "returns": {
          "_0": "bool whether the given operator is approved by the given owner"
        }
      },
      "ownerOf(uint256)": {
        "details": "Gets the owner of the specified token ID.",
        "params": {
          "tokenId": "uint256 ID of the token to query the owner of"
        },
        "returns": {
          "_0": "address currently marked as the owner of the given token ID"
        }
      },
      "safeTransferFrom(address,address,uint256)": {
        "details": "Safely transfers the ownership of a given token ID to another address If the target address is a contract, it must implement {IERC721Receiver-onERC721Received}, which is called upon a safe transfer, and return the magic value `bytes4(keccak256(\"onERC721Received(address,address,uint256,bytes)\"))`; otherwise, the transfer is reverted. Requires the msg.sender to be the owner, approved, or operator",
        "params": {
          "from": "current owner of the token",
          "to": "address to receive the ownership of the given token ID",
          "tokenId": "uint256 ID of the token to be transferred"
        }
      },
      "safeTransferFrom(address,address,uint256,bytes)": {
        "details": "Safely transfers the ownership of a given token ID to another address If the target address is a contract, it must implement {IERC721Receiver-onERC721Received}, which is called upon a safe transfer, and return the magic value `bytes4(keccak256(\"onERC721Received(address,address,uint256,bytes)\"))`; otherwise, the transfer is reverted. Requires the _msgSender() to be the owner, approved, or operator",
        "params": {
          "_data": "bytes data to send along with a safe transfer check",
          "from": "current owner of the token",
          "to": "address to receive the ownership of the given token ID",
          "tokenId": "uint256 ID of the token to be transferred"
        }
      },
      "setApprovalForAll(address,bool)": {
        "details": "Sets or unsets the approval of a given operator An operator is allowed to transfer all tokens of the sender on their behalf.",
        "params": {
          "approved": "representing the status of the approval to be set",
          "operator": "operator address to set the approval"
        }
      },
      "supportsInterface(bytes4)": {
        "details": "See {IERC165-supportsInterface}.     * Time complexity O(1), guaranteed to always use less than 30 000 gas."
      },
      "transferFrom(address,address,uint256)": {
        "details": "Transfers the ownership of a given token ID to another address. Usage of this method is discouraged, use {safeTransferFrom} whenever possible. Requires the msg.sender to be the owner, approved, or operator.",
        "params": {
          "from": "current owner of the token",
          "to": "address to receive the ownership of the given token ID",
          "tokenId": "uint256 ID of the token to be transferred"
        }
      }
    }
  },
  "userdoc": {
    "methods": {}
  }
}